{
	"contracts/StakingRewardsFactory_flattened.sol": {
		"StakingRewardsFactory": {
			"abi": [
				{
					"inputs": [
						{
							"internalType": "address",
							"name": "_rewardsToken",
							"type": "address"
						},
						{
							"internalType": "uint256",
							"name": "_stakingRewardsGenesis",
							"type": "uint256"
						}
					],
					"payable": false,
					"stateMutability": "nonpayable",
					"type": "constructor"
				},
				{
					"anonymous": false,
					"inputs": [
						{
							"indexed": true,
							"internalType": "address",
							"name": "previousOwner",
							"type": "address"
						},
						{
							"indexed": true,
							"internalType": "address",
							"name": "newOwner",
							"type": "address"
						}
					],
					"name": "OwnershipTransferred",
					"type": "event"
				},
				{
					"constant": false,
					"inputs": [
						{
							"internalType": "address",
							"name": "stakingToken",
							"type": "address"
						},
						{
							"internalType": "uint256",
							"name": "rewardAmount",
							"type": "uint256"
						},
						{
							"internalType": "uint256",
							"name": "rewardsDuration",
							"type": "uint256"
						}
					],
					"name": "deploy",
					"outputs": [],
					"payable": false,
					"stateMutability": "nonpayable",
					"type": "function"
				},
				{
					"constant": true,
					"inputs": [],
					"name": "isOwner",
					"outputs": [
						{
							"internalType": "bool",
							"name": "",
							"type": "bool"
						}
					],
					"payable": false,
					"stateMutability": "view",
					"type": "function"
				},
				{
					"constant": false,
					"inputs": [
						{
							"internalType": "address",
							"name": "stakingToken",
							"type": "address"
						}
					],
					"name": "notifyRewardAmount",
					"outputs": [],
					"payable": false,
					"stateMutability": "nonpayable",
					"type": "function"
				},
				{
					"constant": false,
					"inputs": [],
					"name": "notifyRewardAmounts",
					"outputs": [],
					"payable": false,
					"stateMutability": "nonpayable",
					"type": "function"
				},
				{
					"constant": true,
					"inputs": [],
					"name": "owner",
					"outputs": [
						{
							"internalType": "address",
							"name": "",
							"type": "address"
						}
					],
					"payable": false,
					"stateMutability": "view",
					"type": "function"
				},
				{
					"constant": false,
					"inputs": [],
					"name": "renounceOwnership",
					"outputs": [],
					"payable": false,
					"stateMutability": "nonpayable",
					"type": "function"
				},
				{
					"constant": true,
					"inputs": [],
					"name": "rewardsToken",
					"outputs": [
						{
							"internalType": "address",
							"name": "",
							"type": "address"
						}
					],
					"payable": false,
					"stateMutability": "view",
					"type": "function"
				},
				{
					"constant": true,
					"inputs": [],
					"name": "stakingRewardsGenesis",
					"outputs": [
						{
							"internalType": "uint256",
							"name": "",
							"type": "uint256"
						}
					],
					"payable": false,
					"stateMutability": "view",
					"type": "function"
				},
				{
					"constant": true,
					"inputs": [
						{
							"internalType": "address",
							"name": "",
							"type": "address"
						}
					],
					"name": "stakingRewardsInfoByStakingToken",
					"outputs": [
						{
							"internalType": "address",
							"name": "stakingRewards",
							"type": "address"
						},
						{
							"internalType": "uint256",
							"name": "rewardAmount",
							"type": "uint256"
						}
					],
					"payable": false,
					"stateMutability": "view",
					"type": "function"
				},
				{
					"constant": true,
					"inputs": [
						{
							"internalType": "uint256",
							"name": "",
							"type": "uint256"
						}
					],
					"name": "stakingTokens",
					"outputs": [
						{
							"internalType": "address",
							"name": "",
							"type": "address"
						}
					],
					"payable": false,
					"stateMutability": "view",
					"type": "function"
				},
				{
					"constant": false,
					"inputs": [
						{
							"internalType": "address",
							"name": "newOwner",
							"type": "address"
						}
					],
					"name": "transferOwnership",
					"outputs": [],
					"payable": false,
					"stateMutability": "nonpayable",
					"type": "function"
				}
			],
			"devdoc": {
				"methods": {
					"isOwner()": {
						"details": "Returns true if the caller is the current owner."
					},
					"owner()": {
						"details": "Returns the address of the current owner."
					},
					"renounceOwnership()": {
						"details": "Leaves the contract without owner. It will not be possible to call `onlyOwner` functions anymore. Can only be called by the current owner.     * > Note: Renouncing ownership will leave the contract without an owner, thereby removing any functionality that is only available to the owner."
					},
					"transferOwnership(address)": {
						"details": "Transfers ownership of the contract to a new account (`newOwner`). Can only be called by the current owner."
					}
				}
			},
			"evm": {
				"assembly": "    /* \"contracts/StakingRewardsFactory_flattened.sol\":24988:28474  contract StakingRewardsFactory is Ownable {... */\n  mstore(0x40, 0x80)\n    /* \"contracts/StakingRewardsFactory_flattened.sol\":25524:25879  constructor(... */\n  callvalue\n    /* \"--CODEGEN--\":8:17   */\n  dup1\n    /* \"--CODEGEN--\":5:7   */\n  iszero\n  tag_1\n  jumpi\n    /* \"--CODEGEN--\":30:31   */\n  0x00\n    /* \"--CODEGEN--\":27:28   */\n  dup1\n    /* \"--CODEGEN--\":20:32   */\n  revert\n    /* \"--CODEGEN--\":5:7   */\ntag_1:\n    /* \"contracts/StakingRewardsFactory_flattened.sol\":25524:25879  constructor(... */\n  pop\n  mload(0x40)\n  sub(codesize, bytecodeSize)\n  dup1\n  bytecodeSize\n  dup4\n  codecopy\n  dup2\n  dup2\n  add\n  0x40\n  mstore\n    /* \"--CODEGEN--\":13:15   */\n  0x40\n    /* \"--CODEGEN--\":8:11   */\n  dup2\n    /* \"--CODEGEN--\":5:16   */\n  lt\n    /* \"--CODEGEN--\":2:4   */\n  iszero\n  tag_2\n  jumpi\n    /* \"--CODEGEN--\":29:30   */\n  0x00\n    /* \"--CODEGEN--\":26:27   */\n  dup1\n    /* \"--CODEGEN--\":19:31   */\n  revert\n    /* \"--CODEGEN--\":2:4   */\ntag_2:\n    /* \"contracts/StakingRewardsFactory_flattened.sol\":25524:25879  constructor(... */\n  dup2\n  add\n  swap1\n  dup1\n  dup1\n  mload\n  swap1\n  0x20\n  add\n  swap1\n  swap3\n  swap2\n  swap1\n  dup1\n  mload\n  swap1\n  0x20\n  add\n  swap1\n  swap3\n  swap2\n  swap1\n  pop\n  pop\n  pop\n    /* \"contracts/StakingRewardsFactory_flattened.sol\":8788:8798  msg.sender */\n  caller\n    /* \"contracts/StakingRewardsFactory_flattened.sol\":8779:8785  _owner */\n  0x00\n  dup1\n    /* \"contracts/StakingRewardsFactory_flattened.sol\":8779:8798  _owner = msg.sender */\n  0x0100\n  exp\n  dup2\n  sload\n  dup2\n  0xffffffffffffffffffffffffffffffffffffffff\n  mul\n  not\n  and\n  swap1\n  dup4\n  0xffffffffffffffffffffffffffffffffffffffff\n  and\n  mul\n  or\n  swap1\n  sstore\n  pop\n    /* \"contracts/StakingRewardsFactory_flattened.sol\":8846:8852  _owner */\n  0x00\n  dup1\n  swap1\n  sload\n  swap1\n  0x0100\n  exp\n  swap1\n  div\n  0xffffffffffffffffffffffffffffffffffffffff\n  and\n    /* \"contracts/StakingRewardsFactory_flattened.sol\":8813:8853  OwnershipTransferred(address(0), _owner) */\n  0xffffffffffffffffffffffffffffffffffffffff\n  and\n    /* \"contracts/StakingRewardsFactory_flattened.sol\":8842:8843  0 */\n  0x00\n    /* \"contracts/StakingRewardsFactory_flattened.sol\":8813:8853  OwnershipTransferred(address(0), _owner) */\n  0xffffffffffffffffffffffffffffffffffffffff\n  and\n  0x8be0079c531659141344cd1fd0a4f28419497f9722a3daafe3b4186f6b6457e0\n  mload(0x40)\n  mload(0x40)\n  dup1\n  swap2\n  sub\n  swap1\n  log3\n    /* \"contracts/StakingRewardsFactory_flattened.sol\":25684:25699  block.timestamp */\n  timestamp\n    /* \"contracts/StakingRewardsFactory_flattened.sol\":25658:25680  _stakingRewardsGenesis */\n  dup2\n    /* \"contracts/StakingRewardsFactory_flattened.sol\":25658:25699  _stakingRewardsGenesis >= block.timestamp */\n  lt\n  iszero\n    /* \"contracts/StakingRewardsFactory_flattened.sol\":25637:25777  require(... */\n  tag_7\n  jumpi\n  mload(0x40)\n  0x08c379a000000000000000000000000000000000000000000000000000000000\n  dup2\n  mstore\n  0x04\n  add\n  dup1\n  dup1\n  0x20\n  add\n  dup3\n  dup2\n  sub\n  dup3\n  mstore\n  0x34\n  dup2\n  mstore\n  0x20\n  add\n  dup1\n  data_f22e14100106eb9f2180e576eda6e762fdcbd26e14106a6823275a3b8fdea515\n  0x34\n  swap2\n  codecopy\n  0x40\n  add\n  swap2\n  pop\n  pop\n  mload(0x40)\n  dup1\n  swap2\n  sub\n  swap1\n  revert\ntag_7:\n    /* \"contracts/StakingRewardsFactory_flattened.sol\":25803:25816  _rewardsToken */\n  dup2\n    /* \"contracts/StakingRewardsFactory_flattened.sol\":25788:25800  rewardsToken */\n  0x01\n  0x00\n    /* \"contracts/StakingRewardsFactory_flattened.sol\":25788:25816  rewardsToken = _rewardsToken */\n  0x0100\n  exp\n  dup2\n  sload\n  dup2\n  0xffffffffffffffffffffffffffffffffffffffff\n  mul\n  not\n  and\n  swap1\n  dup4\n  0xffffffffffffffffffffffffffffffffffffffff\n  and\n  mul\n  or\n  swap1\n  sstore\n  pop\n    /* \"contracts/StakingRewardsFactory_flattened.sol\":25850:25872  _stakingRewardsGenesis */\n  dup1\n    /* \"contracts/StakingRewardsFactory_flattened.sol\":25826:25847  stakingRewardsGenesis */\n  0x02\n    /* \"contracts/StakingRewardsFactory_flattened.sol\":25826:25872  stakingRewardsGenesis = _stakingRewardsGenesis */\n  dup2\n  swap1\n  sstore\n  pop\n    /* \"contracts/StakingRewardsFactory_flattened.sol\":25524:25879  constructor(... */\n  pop\n  pop\n    /* \"contracts/StakingRewardsFactory_flattened.sol\":24988:28474  contract StakingRewardsFactory is Ownable {... */\n  dataSize(sub_0)\n  dup1\n  dataOffset(sub_0)\n  0x00\n  codecopy\n  0x00\n  return\nstop\ndata_f22e14100106eb9f2180e576eda6e762fdcbd26e14106a6823275a3b8fdea515 5374616b696e6752657761726473466163746f72793a3a636f6e7374727563746f723a2067656e6573697320746f6f20736f6f6e\n\nsub_0: assembly {\n        /* \"contracts/StakingRewardsFactory_flattened.sol\":24988:28474  contract StakingRewardsFactory is Ownable {... */\n      mstore(0x40, 0x80)\n      callvalue\n        /* \"--CODEGEN--\":8:17   */\n      dup1\n        /* \"--CODEGEN--\":5:7   */\n      iszero\n      tag_1\n      jumpi\n        /* \"--CODEGEN--\":30:31   */\n      0x00\n        /* \"--CODEGEN--\":27:28   */\n      dup1\n        /* \"--CODEGEN--\":20:32   */\n      revert\n        /* \"--CODEGEN--\":5:7   */\n    tag_1:\n        /* \"contracts/StakingRewardsFactory_flattened.sol\":24988:28474  contract StakingRewardsFactory is Ownable {... */\n      pop\n      jumpi(tag_2, lt(calldatasize, 0x04))\n      shr(0xe0, calldataload(0x00))\n      dup1\n      0x8f32d59b\n      gt\n      tag_14\n      jumpi\n      dup1\n      0x8f32d59b\n      eq\n      tag_8\n      jumpi\n      dup1\n      0xa0928c11\n      eq\n      tag_9\n      jumpi\n      dup1\n      0xae741d8d\n      eq\n      tag_10\n      jumpi\n      dup1\n      0xcfda5478\n      eq\n      tag_11\n      jumpi\n      dup1\n      0xd1af0c7d\n      eq\n      tag_12\n      jumpi\n      dup1\n      0xf2fde38b\n      eq\n      tag_13\n      jumpi\n      jump(tag_2)\n    tag_14:\n      dup1\n      0x344e5e34\n      eq\n      tag_3\n      jumpi\n      dup1\n      0x6cf8caf8\n      eq\n      tag_4\n      jumpi\n      dup1\n      0x715018a6\n      eq\n      tag_5\n      jumpi\n      dup1\n      0x81e16298\n      eq\n      tag_6\n      jumpi\n      dup1\n      0x8da5cb5b\n      eq\n      tag_7\n      jumpi\n    tag_2:\n      0x00\n      dup1\n      revert\n        /* \"contracts/StakingRewardsFactory_flattened.sol\":25202:25232  address[] public stakingTokens */\n    tag_3:\n      tag_15\n      0x04\n      dup1\n      calldatasize\n      sub\n        /* \"--CODEGEN--\":13:15   */\n      0x20\n        /* \"--CODEGEN--\":8:11   */\n      dup2\n        /* \"--CODEGEN--\":5:16   */\n      lt\n        /* \"--CODEGEN--\":2:4   */\n      iszero\n      tag_16\n      jumpi\n        /* \"--CODEGEN--\":29:30   */\n      0x00\n        /* \"--CODEGEN--\":26:27   */\n      dup1\n        /* \"--CODEGEN--\":19:31   */\n      revert\n        /* \"--CODEGEN--\":2:4   */\n    tag_16:\n        /* \"contracts/StakingRewardsFactory_flattened.sol\":25202:25232  address[] public stakingTokens */\n      dup2\n      add\n      swap1\n      dup1\n      dup1\n      calldataload\n      swap1\n      0x20\n      add\n      swap1\n      swap3\n      swap2\n      swap1\n      pop\n      pop\n      pop\n      tag_17\n      jump\t// in\n    tag_15:\n      mload(0x40)\n      dup1\n      dup3\n      0xffffffffffffffffffffffffffffffffffffffff\n      and\n      0xffffffffffffffffffffffffffffffffffffffff\n      and\n      dup2\n      mstore\n      0x20\n      add\n      swap2\n      pop\n      pop\n      mload(0x40)\n      dup1\n      swap2\n      sub\n      swap1\n      return\n        /* \"contracts/StakingRewardsFactory_flattened.sol\":25431:25517  mapping(address => StakingRewardsInfo)... */\n    tag_4:\n      tag_18\n      0x04\n      dup1\n      calldatasize\n      sub\n        /* \"--CODEGEN--\":13:15   */\n      0x20\n        /* \"--CODEGEN--\":8:11   */\n      dup2\n        /* \"--CODEGEN--\":5:16   */\n      lt\n        /* \"--CODEGEN--\":2:4   */\n      iszero\n      tag_19\n      jumpi\n        /* \"--CODEGEN--\":29:30   */\n      0x00\n        /* \"--CODEGEN--\":26:27   */\n      dup1\n        /* \"--CODEGEN--\":19:31   */\n      revert\n        /* \"--CODEGEN--\":2:4   */\n    tag_19:\n        /* \"contracts/StakingRewardsFactory_flattened.sol\":25431:25517  mapping(address => StakingRewardsInfo)... */\n      dup2\n      add\n      swap1\n      dup1\n      dup1\n      calldataload\n      0xffffffffffffffffffffffffffffffffffffffff\n      and\n      swap1\n      0x20\n      add\n      swap1\n      swap3\n      swap2\n      swap1\n      pop\n      pop\n      pop\n      tag_20\n      jump\t// in\n    tag_18:\n      mload(0x40)\n      dup1\n      dup4\n      0xffffffffffffffffffffffffffffffffffffffff\n      and\n      0xffffffffffffffffffffffffffffffffffffffff\n      and\n      dup2\n      mstore\n      0x20\n      add\n      dup3\n      dup2\n      mstore\n      0x20\n      add\n      swap3\n      pop\n      pop\n      pop\n      mload(0x40)\n      dup1\n      swap2\n      sub\n      swap1\n      return\n        /* \"contracts/StakingRewardsFactory_flattened.sol\":9721:9858  function renounceOwnership() public onlyOwner {... */\n    tag_5:\n      tag_21\n      tag_22\n      jump\t// in\n    tag_21:\n      stop\n        /* \"contracts/StakingRewardsFactory_flattened.sol\":27501:28472  function notifyRewardAmount(address stakingToken) public {... */\n    tag_6:\n      tag_23\n      0x04\n      dup1\n      calldatasize\n      sub\n        /* \"--CODEGEN--\":13:15   */\n      0x20\n        /* \"--CODEGEN--\":8:11   */\n      dup2\n        /* \"--CODEGEN--\":5:16   */\n      lt\n        /* \"--CODEGEN--\":2:4   */\n      iszero\n      tag_24\n      jumpi\n        /* \"--CODEGEN--\":29:30   */\n      0x00\n        /* \"--CODEGEN--\":26:27   */\n      dup1\n        /* \"--CODEGEN--\":19:31   */\n      revert\n        /* \"--CODEGEN--\":2:4   */\n    tag_24:\n        /* \"contracts/StakingRewardsFactory_flattened.sol\":27501:28472  function notifyRewardAmount(address stakingToken) public {... */\n      dup2\n      add\n      swap1\n      dup1\n      dup1\n      calldataload\n      0xffffffffffffffffffffffffffffffffffffffff\n      and\n      swap1\n      0x20\n      add\n      swap1\n      swap3\n      swap2\n      swap1\n      pop\n      pop\n      pop\n      tag_25\n      jump\t// in\n    tag_23:\n      stop\n        /* \"contracts/StakingRewardsFactory_flattened.sol\":8936:9013  function owner() public view returns (address) {... */\n    tag_7:\n      tag_26\n      tag_27\n      jump\t// in\n    tag_26:\n      mload(0x40)\n      dup1\n      dup3\n      0xffffffffffffffffffffffffffffffffffffffff\n      and\n      0xffffffffffffffffffffffffffffffffffffffff\n      and\n      dup2\n      mstore\n      0x20\n      add\n      swap2\n      pop\n      pop\n      mload(0x40)\n      dup1\n      swap2\n      sub\n      swap1\n      return\n        /* \"contracts/StakingRewardsFactory_flattened.sol\":9287:9377  function isOwner() public view returns (bool) {... */\n    tag_8:\n      tag_28\n      tag_29\n      jump\t// in\n    tag_28:\n      mload(0x40)\n      dup1\n      dup3\n      iszero\n      iszero\n      iszero\n      iszero\n      dup2\n      mstore\n      0x20\n      add\n      swap2\n      pop\n      pop\n      mload(0x40)\n      dup1\n      swap2\n      sub\n      swap1\n      return\n        /* \"contracts/StakingRewardsFactory_flattened.sol\":25087:25120  uint public stakingRewardsGenesis */\n    tag_9:\n      tag_30\n      tag_31\n      jump\t// in\n    tag_30:\n      mload(0x40)\n      dup1\n      dup3\n      dup2\n      mstore\n      0x20\n      add\n      swap2\n      pop\n      pop\n      mload(0x40)\n      dup1\n      swap2\n      sub\n      swap1\n      return\n        /* \"contracts/StakingRewardsFactory_flattened.sol\":27018:27331  function notifyRewardAmounts() public {... */\n    tag_10:\n      tag_32\n      tag_33\n      jump\t// in\n    tag_32:\n      stop\n        /* \"contracts/StakingRewardsFactory_flattened.sol\":26131:26921  function deploy(address stakingToken, uint rewardAmount, uint256 rewardsDuration) public onlyOwner {... */\n    tag_11:\n      tag_34\n      0x04\n      dup1\n      calldatasize\n      sub\n        /* \"--CODEGEN--\":13:15   */\n      0x60\n        /* \"--CODEGEN--\":8:11   */\n      dup2\n        /* \"--CODEGEN--\":5:16   */\n      lt\n        /* \"--CODEGEN--\":2:4   */\n      iszero\n      tag_35\n      jumpi\n        /* \"--CODEGEN--\":29:30   */\n      0x00\n        /* \"--CODEGEN--\":26:27   */\n      dup1\n        /* \"--CODEGEN--\":19:31   */\n      revert\n        /* \"--CODEGEN--\":2:4   */\n    tag_35:\n        /* \"contracts/StakingRewardsFactory_flattened.sol\":26131:26921  function deploy(address stakingToken, uint rewardAmount, uint256 rewardsDuration) public onlyOwner {... */\n      dup2\n      add\n      swap1\n      dup1\n      dup1\n      calldataload\n      0xffffffffffffffffffffffffffffffffffffffff\n      and\n      swap1\n      0x20\n      add\n      swap1\n      swap3\n      swap2\n      swap1\n      dup1\n      calldataload\n      swap1\n      0x20\n      add\n      swap1\n      swap3\n      swap2\n      swap1\n      dup1\n      calldataload\n      swap1\n      0x20\n      add\n      swap1\n      swap3\n      swap2\n      swap1\n      pop\n      pop\n      pop\n      tag_36\n      jump\t// in\n    tag_34:\n      stop\n        /* \"contracts/StakingRewardsFactory_flattened.sol\":25054:25081  address public rewardsToken */\n    tag_12:\n      tag_37\n      tag_38\n      jump\t// in\n    tag_37:\n      mload(0x40)\n      dup1\n      dup3\n      0xffffffffffffffffffffffffffffffffffffffff\n      and\n      0xffffffffffffffffffffffffffffffffffffffff\n      and\n      dup2\n      mstore\n      0x20\n      add\n      swap2\n      pop\n      pop\n      mload(0x40)\n      dup1\n      swap2\n      sub\n      swap1\n      return\n        /* \"contracts/StakingRewardsFactory_flattened.sol\":10007:10114  function transferOwnership(address newOwner) public onlyOwner {... */\n    tag_13:\n      tag_39\n      0x04\n      dup1\n      calldatasize\n      sub\n        /* \"--CODEGEN--\":13:15   */\n      0x20\n        /* \"--CODEGEN--\":8:11   */\n      dup2\n        /* \"--CODEGEN--\":5:16   */\n      lt\n        /* \"--CODEGEN--\":2:4   */\n      iszero\n      tag_40\n      jumpi\n        /* \"--CODEGEN--\":29:30   */\n      0x00\n        /* \"--CODEGEN--\":26:27   */\n      dup1\n        /* \"--CODEGEN--\":19:31   */\n      revert\n        /* \"--CODEGEN--\":2:4   */\n    tag_40:\n        /* \"contracts/StakingRewardsFactory_flattened.sol\":10007:10114  function transferOwnership(address newOwner) public onlyOwner {... */\n      dup2\n      add\n      swap1\n      dup1\n      dup1\n      calldataload\n      0xffffffffffffffffffffffffffffffffffffffff\n      and\n      swap1\n      0x20\n      add\n      swap1\n      swap3\n      swap2\n      swap1\n      pop\n      pop\n      pop\n      tag_41\n      jump\t// in\n    tag_39:\n      stop\n        /* \"contracts/StakingRewardsFactory_flattened.sol\":25202:25232  address[] public stakingTokens */\n    tag_17:\n      0x03\n      dup2\n      dup2\n      sload\n      dup2\n      lt\n      tag_42\n      jumpi\n      invalid\n    tag_42:\n      swap1\n      0x00\n      mstore\n      keccak256(0x00, 0x20)\n      add\n      0x00\n      swap2\n      pop\n      sload\n      swap1\n      0x0100\n      exp\n      swap1\n      div\n      0xffffffffffffffffffffffffffffffffffffffff\n      and\n      dup2\n      jump\t// out\n        /* \"contracts/StakingRewardsFactory_flattened.sol\":25431:25517  mapping(address => StakingRewardsInfo)... */\n    tag_20:\n      mstore(0x20, 0x04)\n      dup1\n      0x00\n      mstore\n      keccak256(0x00, 0x40)\n      0x00\n      swap2\n      pop\n      swap1\n      pop\n      dup1\n      0x00\n      add\n      0x00\n      swap1\n      sload\n      swap1\n      0x0100\n      exp\n      swap1\n      div\n      0xffffffffffffffffffffffffffffffffffffffff\n      and\n      swap1\n      dup1\n      0x01\n      add\n      sload\n      swap1\n      pop\n      dup3\n      jump\t// out\n        /* \"contracts/StakingRewardsFactory_flattened.sol\":9721:9858  function renounceOwnership() public onlyOwner {... */\n    tag_22:\n        /* \"contracts/StakingRewardsFactory_flattened.sol\":9140:9149  isOwner() */\n      tag_45\n        /* \"contracts/StakingRewardsFactory_flattened.sol\":9140:9147  isOwner */\n      tag_29\n        /* \"contracts/StakingRewardsFactory_flattened.sol\":9140:9149  isOwner() */\n      jump\t// in\n    tag_45:\n        /* \"contracts/StakingRewardsFactory_flattened.sol\":9132:9186  require(isOwner(), \"Ownable: caller is not the owner\") */\n      tag_46\n      jumpi\n      mload(0x40)\n      0x08c379a000000000000000000000000000000000000000000000000000000000\n      dup2\n      mstore\n      0x04\n      add\n      dup1\n      dup1\n      0x20\n      add\n      dup3\n      dup2\n      sub\n      dup3\n      mstore\n      0x20\n      dup2\n      mstore\n      0x20\n      add\n      dup1\n      0x4f776e61626c653a2063616c6c6572206973206e6f7420746865206f776e6572\n      dup2\n      mstore\n      pop\n      0x20\n      add\n      swap2\n      pop\n      pop\n      mload(0x40)\n      dup1\n      swap2\n      sub\n      swap1\n      revert\n    tag_46:\n        /* \"contracts/StakingRewardsFactory_flattened.sol\":9819:9820  0 */\n      0x00\n        /* \"contracts/StakingRewardsFactory_flattened.sol\":9782:9822  OwnershipTransferred(_owner, address(0)) */\n      0xffffffffffffffffffffffffffffffffffffffff\n      and\n        /* \"contracts/StakingRewardsFactory_flattened.sol\":9803:9809  _owner */\n      0x00\n      dup1\n      swap1\n      sload\n      swap1\n      0x0100\n      exp\n      swap1\n      div\n      0xffffffffffffffffffffffffffffffffffffffff\n      and\n        /* \"contracts/StakingRewardsFactory_flattened.sol\":9782:9822  OwnershipTransferred(_owner, address(0)) */\n      0xffffffffffffffffffffffffffffffffffffffff\n      and\n      0x8be0079c531659141344cd1fd0a4f28419497f9722a3daafe3b4186f6b6457e0\n      mload(0x40)\n      mload(0x40)\n      dup1\n      swap2\n      sub\n      swap1\n      log3\n        /* \"contracts/StakingRewardsFactory_flattened.sol\":9849:9850  0 */\n      0x00\n        /* \"contracts/StakingRewardsFactory_flattened.sol\":9832:9838  _owner */\n      dup1\n      0x00\n        /* \"contracts/StakingRewardsFactory_flattened.sol\":9832:9851  _owner = address(0) */\n      0x0100\n      exp\n      dup2\n      sload\n      dup2\n      0xffffffffffffffffffffffffffffffffffffffff\n      mul\n      not\n      and\n      swap1\n      dup4\n      0xffffffffffffffffffffffffffffffffffffffff\n      and\n      mul\n      or\n      swap1\n      sstore\n      pop\n        /* \"contracts/StakingRewardsFactory_flattened.sol\":9721:9858  function renounceOwnership() public onlyOwner {... */\n      jump\t// out\n        /* \"contracts/StakingRewardsFactory_flattened.sol\":27501:28472  function notifyRewardAmount(address stakingToken) public {... */\n    tag_25:\n        /* \"contracts/StakingRewardsFactory_flattened.sol\":27608:27629  stakingRewardsGenesis */\n      sload(0x02)\n        /* \"contracts/StakingRewardsFactory_flattened.sol\":27589:27604  block.timestamp */\n      timestamp\n        /* \"contracts/StakingRewardsFactory_flattened.sol\":27589:27629  block.timestamp >= stakingRewardsGenesis */\n      lt\n      iszero\n        /* \"contracts/StakingRewardsFactory_flattened.sol\":27568:27707  require(... */\n      tag_49\n      jumpi\n      mload(0x40)\n      0x08c379a000000000000000000000000000000000000000000000000000000000\n      dup2\n      mstore\n      0x04\n      add\n      dup1\n      dup1\n      0x20\n      add\n      dup3\n      dup2\n      sub\n      dup3\n      mstore\n      0x34\n      dup2\n      mstore\n      0x20\n      add\n      dup1\n      data_e71986032604f829ccaec9386c51e838a85cdbf506769bd103c829f640682adf\n      0x34\n      swap2\n      codecopy\n      0x40\n      add\n      swap2\n      pop\n      pop\n      mload(0x40)\n      dup1\n      swap2\n      sub\n      swap1\n      revert\n    tag_49:\n        /* \"contracts/StakingRewardsFactory_flattened.sol\":27718:27749  StakingRewardsInfo storage info */\n      0x00\n        /* \"contracts/StakingRewardsFactory_flattened.sol\":27752:27784  stakingRewardsInfoByStakingToken */\n      0x04\n        /* \"contracts/StakingRewardsFactory_flattened.sol\":27752:27820  stakingRewardsInfoByStakingToken[... */\n      0x00\n        /* \"contracts/StakingRewardsFactory_flattened.sol\":27798:27810  stakingToken */\n      dup4\n        /* \"contracts/StakingRewardsFactory_flattened.sol\":27752:27820  stakingRewardsInfoByStakingToken[... */\n      0xffffffffffffffffffffffffffffffffffffffff\n      and\n      0xffffffffffffffffffffffffffffffffffffffff\n      and\n      dup2\n      mstore\n      0x20\n      add\n      swap1\n      dup2\n      mstore\n      0x20\n      add\n      0x00\n      keccak256\n        /* \"contracts/StakingRewardsFactory_flattened.sol\":27718:27820  StakingRewardsInfo storage info = stakingRewardsInfoByStakingToken[... */\n      swap1\n      pop\n        /* \"contracts/StakingRewardsFactory_flattened.sol\":27882:27883  0 */\n      0x00\n        /* \"contracts/StakingRewardsFactory_flattened.sol\":27851:27884  info.stakingRewards != address(0) */\n      0xffffffffffffffffffffffffffffffffffffffff\n      and\n        /* \"contracts/StakingRewardsFactory_flattened.sol\":27851:27855  info */\n      dup2\n        /* \"contracts/StakingRewardsFactory_flattened.sol\":27851:27870  info.stakingRewards */\n      0x00\n      add\n      0x00\n      swap1\n      sload\n      swap1\n      0x0100\n      exp\n      swap1\n      div\n      0xffffffffffffffffffffffffffffffffffffffff\n      and\n        /* \"contracts/StakingRewardsFactory_flattened.sol\":27851:27884  info.stakingRewards != address(0) */\n      0xffffffffffffffffffffffffffffffffffffffff\n      and\n      eq\n      iszero\n        /* \"contracts/StakingRewardsFactory_flattened.sol\":27830:27965  require(... */\n      tag_50\n      jumpi\n      mload(0x40)\n      0x08c379a000000000000000000000000000000000000000000000000000000000\n      dup2\n      mstore\n      0x04\n      add\n      dup1\n      dup1\n      0x20\n      add\n      dup3\n      dup2\n      sub\n      dup3\n      mstore\n      0x37\n      dup2\n      mstore\n      0x20\n      add\n      dup1\n      data_e8f5c4ca6631f4bfe6ffabf099741b79e5c6b86618ddcbeee6ba3c5940184427\n      0x37\n      swap2\n      codecopy\n      0x40\n      add\n      swap2\n      pop\n      pop\n      mload(0x40)\n      dup1\n      swap2\n      sub\n      swap1\n      revert\n    tag_50:\n        /* \"contracts/StakingRewardsFactory_flattened.sol\":28000:28001  0 */\n      0x00\n        /* \"contracts/StakingRewardsFactory_flattened.sol\":27980:27984  info */\n      dup2\n        /* \"contracts/StakingRewardsFactory_flattened.sol\":27980:27997  info.rewardAmount */\n      0x01\n      add\n      sload\n        /* \"contracts/StakingRewardsFactory_flattened.sol\":27980:28001  info.rewardAmount > 0 */\n      gt\n        /* \"contracts/StakingRewardsFactory_flattened.sol\":27976:28466  if (info.rewardAmount > 0) {... */\n      iszero\n      tag_51\n      jumpi\n        /* \"contracts/StakingRewardsFactory_flattened.sol\":28017:28034  uint rewardAmount */\n      0x00\n        /* \"contracts/StakingRewardsFactory_flattened.sol\":28037:28041  info */\n      dup2\n        /* \"contracts/StakingRewardsFactory_flattened.sol\":28037:28054  info.rewardAmount */\n      0x01\n      add\n      sload\n        /* \"contracts/StakingRewardsFactory_flattened.sol\":28017:28054  uint rewardAmount = info.rewardAmount */\n      swap1\n      pop\n        /* \"contracts/StakingRewardsFactory_flattened.sol\":28088:28089  0 */\n      0x00\n        /* \"contracts/StakingRewardsFactory_flattened.sol\":28068:28072  info */\n      dup3\n        /* \"contracts/StakingRewardsFactory_flattened.sol\":28068:28085  info.rewardAmount */\n      0x01\n      add\n        /* \"contracts/StakingRewardsFactory_flattened.sol\":28068:28089  info.rewardAmount = 0 */\n      dup2\n      swap1\n      sstore\n      pop\n        /* \"contracts/StakingRewardsFactory_flattened.sol\":28136:28148  rewardsToken */\n      0x01\n      0x00\n      swap1\n      sload\n      swap1\n      0x0100\n      exp\n      swap1\n      div\n      0xffffffffffffffffffffffffffffffffffffffff\n      and\n        /* \"contracts/StakingRewardsFactory_flattened.sol\":28129:28158  IERC20(rewardsToken).transfer */\n      0xffffffffffffffffffffffffffffffffffffffff\n      and\n      0xa9059cbb\n        /* \"contracts/StakingRewardsFactory_flattened.sol\":28180:28184  info */\n      dup4\n        /* \"contracts/StakingRewardsFactory_flattened.sol\":28180:28199  info.stakingRewards */\n      0x00\n      add\n      0x00\n      swap1\n      sload\n      swap1\n      0x0100\n      exp\n      swap1\n      div\n      0xffffffffffffffffffffffffffffffffffffffff\n      and\n        /* \"contracts/StakingRewardsFactory_flattened.sol\":28221:28233  rewardAmount */\n      dup4\n        /* \"contracts/StakingRewardsFactory_flattened.sol\":28129:28251  IERC20(rewardsToken).transfer(... */\n      mload(0x40)\n      dup4\n      0xffffffff\n      and\n      0xe0\n      shl\n      dup2\n      mstore\n      0x04\n      add\n      dup1\n      dup4\n      0xffffffffffffffffffffffffffffffffffffffff\n      and\n      0xffffffffffffffffffffffffffffffffffffffff\n      and\n      dup2\n      mstore\n      0x20\n      add\n      dup3\n      dup2\n      mstore\n      0x20\n      add\n      swap3\n      pop\n      pop\n      pop\n      0x20\n      mload(0x40)\n      dup1\n      dup4\n      sub\n      dup2\n      0x00\n      dup8\n      dup1\n      extcodesize\n      iszero\n        /* \"--CODEGEN--\":8:17   */\n      dup1\n        /* \"--CODEGEN--\":5:7   */\n      iszero\n      tag_52\n      jumpi\n        /* \"--CODEGEN--\":30:31   */\n      0x00\n        /* \"--CODEGEN--\":27:28   */\n      dup1\n        /* \"--CODEGEN--\":20:32   */\n      revert\n        /* \"--CODEGEN--\":5:7   */\n    tag_52:\n        /* \"contracts/StakingRewardsFactory_flattened.sol\":28129:28251  IERC20(rewardsToken).transfer(... */\n      pop\n      gas\n      call\n      iszero\n        /* \"--CODEGEN--\":8:17   */\n      dup1\n        /* \"--CODEGEN--\":5:7   */\n      iszero\n      tag_53\n      jumpi\n        /* \"--CODEGEN--\":45:61   */\n      returndatasize\n        /* \"--CODEGEN--\":42:43   */\n      0x00\n        /* \"--CODEGEN--\":39:40   */\n      dup1\n        /* \"--CODEGEN--\":24:62   */\n      returndatacopy\n        /* \"--CODEGEN--\":77:93   */\n      returndatasize\n        /* \"--CODEGEN--\":74:75   */\n      0x00\n        /* \"--CODEGEN--\":67:94   */\n      revert\n        /* \"--CODEGEN--\":5:7   */\n    tag_53:\n        /* \"contracts/StakingRewardsFactory_flattened.sol\":28129:28251  IERC20(rewardsToken).transfer(... */\n      pop\n      pop\n      pop\n      pop\n      mload(0x40)\n      returndatasize\n        /* \"--CODEGEN--\":13:15   */\n      0x20\n        /* \"--CODEGEN--\":8:11   */\n      dup2\n        /* \"--CODEGEN--\":5:16   */\n      lt\n        /* \"--CODEGEN--\":2:4   */\n      iszero\n      tag_54\n      jumpi\n        /* \"--CODEGEN--\":29:30   */\n      0x00\n        /* \"--CODEGEN--\":26:27   */\n      dup1\n        /* \"--CODEGEN--\":19:31   */\n      revert\n        /* \"--CODEGEN--\":2:4   */\n    tag_54:\n        /* \"contracts/StakingRewardsFactory_flattened.sol\":28129:28251  IERC20(rewardsToken).transfer(... */\n      dup2\n      add\n      swap1\n      dup1\n      dup1\n      mload\n      swap1\n      0x20\n      add\n      swap1\n      swap3\n      swap2\n      swap1\n      pop\n      pop\n      pop\n        /* \"contracts/StakingRewardsFactory_flattened.sol\":28104:28343  require(... */\n      tag_55\n      jumpi\n      mload(0x40)\n      0x08c379a000000000000000000000000000000000000000000000000000000000\n      dup2\n      mstore\n      0x04\n      add\n      dup1\n      dup1\n      0x20\n      add\n      dup3\n      dup2\n      sub\n      dup3\n      mstore\n      0x3a\n      dup2\n      mstore\n      0x20\n      add\n      dup1\n      data_afbe2226aded12cd2f0d3c83ff167eedc78632dc0894f92eea331d3f2b56d089\n      0x3a\n      swap2\n      codecopy\n      0x40\n      add\n      swap2\n      pop\n      pop\n      mload(0x40)\n      dup1\n      swap2\n      sub\n      swap1\n      revert\n    tag_55:\n        /* \"contracts/StakingRewardsFactory_flattened.sol\":28372:28376  info */\n      dup2\n        /* \"contracts/StakingRewardsFactory_flattened.sol\":28372:28391  info.stakingRewards */\n      0x00\n      add\n      0x00\n      swap1\n      sload\n      swap1\n      0x0100\n      exp\n      swap1\n      div\n      0xffffffffffffffffffffffffffffffffffffffff\n      and\n        /* \"contracts/StakingRewardsFactory_flattened.sol\":28357:28411  StakingRewards(info.stakingRewards).notifyRewardAmount */\n      0xffffffffffffffffffffffffffffffffffffffff\n      and\n      0x3c6b16ab\n        /* \"contracts/StakingRewardsFactory_flattened.sol\":28429:28441  rewardAmount */\n      dup3\n        /* \"contracts/StakingRewardsFactory_flattened.sol\":28357:28455  StakingRewards(info.stakingRewards).notifyRewardAmount(... */\n      mload(0x40)\n      dup3\n      0xffffffff\n      and\n      0xe0\n      shl\n      dup2\n      mstore\n      0x04\n      add\n      dup1\n      dup3\n      dup2\n      mstore\n      0x20\n      add\n      swap2\n      pop\n      pop\n      0x00\n      mload(0x40)\n      dup1\n      dup4\n      sub\n      dup2\n      0x00\n      dup8\n      dup1\n      extcodesize\n      iszero\n        /* \"--CODEGEN--\":8:17   */\n      dup1\n        /* \"--CODEGEN--\":5:7   */\n      iszero\n      tag_56\n      jumpi\n        /* \"--CODEGEN--\":30:31   */\n      0x00\n        /* \"--CODEGEN--\":27:28   */\n      dup1\n        /* \"--CODEGEN--\":20:32   */\n      revert\n        /* \"--CODEGEN--\":5:7   */\n    tag_56:\n        /* \"contracts/StakingRewardsFactory_flattened.sol\":28357:28455  StakingRewards(info.stakingRewards).notifyRewardAmount(... */\n      pop\n      gas\n      call\n      iszero\n        /* \"--CODEGEN--\":8:17   */\n      dup1\n        /* \"--CODEGEN--\":5:7   */\n      iszero\n      tag_57\n      jumpi\n        /* \"--CODEGEN--\":45:61   */\n      returndatasize\n        /* \"--CODEGEN--\":42:43   */\n      0x00\n        /* \"--CODEGEN--\":39:40   */\n      dup1\n        /* \"--CODEGEN--\":24:62   */\n      returndatacopy\n        /* \"--CODEGEN--\":77:93   */\n      returndatasize\n        /* \"--CODEGEN--\":74:75   */\n      0x00\n        /* \"--CODEGEN--\":67:94   */\n      revert\n        /* \"--CODEGEN--\":5:7   */\n    tag_57:\n        /* \"contracts/StakingRewardsFactory_flattened.sol\":28357:28455  StakingRewards(info.stakingRewards).notifyRewardAmount(... */\n      pop\n      pop\n      pop\n      pop\n        /* \"contracts/StakingRewardsFactory_flattened.sol\":27976:28466  if (info.rewardAmount > 0) {... */\n      pop\n    tag_51:\n        /* \"contracts/StakingRewardsFactory_flattened.sol\":27501:28472  function notifyRewardAmount(address stakingToken) public {... */\n      pop\n      pop\n      jump\t// out\n        /* \"contracts/StakingRewardsFactory_flattened.sol\":8936:9013  function owner() public view returns (address) {... */\n    tag_27:\n        /* \"contracts/StakingRewardsFactory_flattened.sol\":8974:8981  address */\n      0x00\n        /* \"contracts/StakingRewardsFactory_flattened.sol\":9000:9006  _owner */\n      dup1\n      0x00\n      swap1\n      sload\n      swap1\n      0x0100\n      exp\n      swap1\n      div\n      0xffffffffffffffffffffffffffffffffffffffff\n      and\n        /* \"contracts/StakingRewardsFactory_flattened.sol\":8993:9006  return _owner */\n      swap1\n      pop\n        /* \"contracts/StakingRewardsFactory_flattened.sol\":8936:9013  function owner() public view returns (address) {... */\n      swap1\n      jump\t// out\n        /* \"contracts/StakingRewardsFactory_flattened.sol\":9287:9377  function isOwner() public view returns (bool) {... */\n    tag_29:\n        /* \"contracts/StakingRewardsFactory_flattened.sol\":9327:9331  bool */\n      0x00\n        /* \"contracts/StakingRewardsFactory_flattened.sol\":9364:9370  _owner */\n      dup1\n      0x00\n      swap1\n      sload\n      swap1\n      0x0100\n      exp\n      swap1\n      div\n      0xffffffffffffffffffffffffffffffffffffffff\n      and\n        /* \"contracts/StakingRewardsFactory_flattened.sol\":9350:9370  msg.sender == _owner */\n      0xffffffffffffffffffffffffffffffffffffffff\n      and\n        /* \"contracts/StakingRewardsFactory_flattened.sol\":9350:9360  msg.sender */\n      caller\n        /* \"contracts/StakingRewardsFactory_flattened.sol\":9350:9370  msg.sender == _owner */\n      0xffffffffffffffffffffffffffffffffffffffff\n      and\n      eq\n        /* \"contracts/StakingRewardsFactory_flattened.sol\":9343:9370  return msg.sender == _owner */\n      swap1\n      pop\n        /* \"contracts/StakingRewardsFactory_flattened.sol\":9287:9377  function isOwner() public view returns (bool) {... */\n      swap1\n      jump\t// out\n        /* \"contracts/StakingRewardsFactory_flattened.sol\":25087:25120  uint public stakingRewardsGenesis */\n    tag_31:\n      sload(0x02)\n      dup2\n      jump\t// out\n        /* \"contracts/StakingRewardsFactory_flattened.sol\":27018:27331  function notifyRewardAmounts() public {... */\n    tag_33:\n        /* \"contracts/StakingRewardsFactory_flattened.sol\":27110:27111  0 */\n      0x00\n        /* \"contracts/StakingRewardsFactory_flattened.sol\":27087:27100  stakingTokens */\n      0x03\n        /* \"contracts/StakingRewardsFactory_flattened.sol\":27087:27107  stakingTokens.length */\n      dup1\n      sload\n      swap1\n      pop\n        /* \"contracts/StakingRewardsFactory_flattened.sol\":27087:27111  stakingTokens.length > 0 */\n      gt\n        /* \"contracts/StakingRewardsFactory_flattened.sol\":27066:27206  require(... */\n      tag_61\n      jumpi\n      mload(0x40)\n      0x08c379a000000000000000000000000000000000000000000000000000000000\n      dup2\n      mstore\n      0x04\n      add\n      dup1\n      dup1\n      0x20\n      add\n      dup3\n      dup2\n      sub\n      dup3\n      mstore\n      0x45\n      dup2\n      mstore\n      0x20\n      add\n      dup1\n      data_ae1f87e20c157d2878a2e48b377d209dfddfc6d5ec9b80ceecc5addd0ef6ffdb\n      0x45\n      swap2\n      codecopy\n      0x60\n      add\n      swap2\n      pop\n      pop\n      mload(0x40)\n      dup1\n      swap2\n      sub\n      swap1\n      revert\n    tag_61:\n        /* \"contracts/StakingRewardsFactory_flattened.sol\":27221:27227  uint i */\n      0x00\n        /* \"contracts/StakingRewardsFactory_flattened.sol\":27230:27231  0 */\n      dup1\n        /* \"contracts/StakingRewardsFactory_flattened.sol\":27221:27231  uint i = 0 */\n      swap1\n      pop\n        /* \"contracts/StakingRewardsFactory_flattened.sol\":27216:27325  for (uint i = 0; i < stakingTokens.length; i++) {... */\n    tag_62:\n        /* \"contracts/StakingRewardsFactory_flattened.sol\":27237:27250  stakingTokens */\n      0x03\n        /* \"contracts/StakingRewardsFactory_flattened.sol\":27237:27257  stakingTokens.length */\n      dup1\n      sload\n      swap1\n      pop\n        /* \"contracts/StakingRewardsFactory_flattened.sol\":27233:27234  i */\n      dup2\n        /* \"contracts/StakingRewardsFactory_flattened.sol\":27233:27257  i < stakingTokens.length */\n      lt\n        /* \"contracts/StakingRewardsFactory_flattened.sol\":27216:27325  for (uint i = 0; i < stakingTokens.length; i++) {... */\n      iszero\n      tag_63\n      jumpi\n        /* \"contracts/StakingRewardsFactory_flattened.sol\":27278:27314  notifyRewardAmount(stakingTokens[i]) */\n      tag_65\n        /* \"contracts/StakingRewardsFactory_flattened.sol\":27297:27310  stakingTokens */\n      0x03\n        /* \"contracts/StakingRewardsFactory_flattened.sol\":27311:27312  i */\n      dup3\n        /* \"contracts/StakingRewardsFactory_flattened.sol\":27297:27313  stakingTokens[i] */\n      dup2\n      sload\n      dup2\n      lt\n      tag_66\n      jumpi\n      invalid\n    tag_66:\n      swap1\n      0x00\n      mstore\n      keccak256(0x00, 0x20)\n      add\n      0x00\n      swap1\n      sload\n      swap1\n      0x0100\n      exp\n      swap1\n      div\n      0xffffffffffffffffffffffffffffffffffffffff\n      and\n        /* \"contracts/StakingRewardsFactory_flattened.sol\":27278:27296  notifyRewardAmount */\n      tag_25\n        /* \"contracts/StakingRewardsFactory_flattened.sol\":27278:27314  notifyRewardAmount(stakingTokens[i]) */\n      jump\t// in\n    tag_65:\n        /* \"contracts/StakingRewardsFactory_flattened.sol\":27259:27262  i++ */\n      dup1\n      dup1\n      0x01\n      add\n      swap2\n      pop\n      pop\n        /* \"contracts/StakingRewardsFactory_flattened.sol\":27216:27325  for (uint i = 0; i < stakingTokens.length; i++) {... */\n      jump(tag_62)\n    tag_63:\n      pop\n        /* \"contracts/StakingRewardsFactory_flattened.sol\":27018:27331  function notifyRewardAmounts() public {... */\n      jump\t// out\n        /* \"contracts/StakingRewardsFactory_flattened.sol\":26131:26921  function deploy(address stakingToken, uint rewardAmount, uint256 rewardsDuration) public onlyOwner {... */\n    tag_36:\n        /* \"contracts/StakingRewardsFactory_flattened.sol\":9140:9149  isOwner() */\n      tag_69\n        /* \"contracts/StakingRewardsFactory_flattened.sol\":9140:9147  isOwner */\n      tag_29\n        /* \"contracts/StakingRewardsFactory_flattened.sol\":9140:9149  isOwner() */\n      jump\t// in\n    tag_69:\n        /* \"contracts/StakingRewardsFactory_flattened.sol\":9132:9186  require(isOwner(), \"Ownable: caller is not the owner\") */\n      tag_70\n      jumpi\n      mload(0x40)\n      0x08c379a000000000000000000000000000000000000000000000000000000000\n      dup2\n      mstore\n      0x04\n      add\n      dup1\n      dup1\n      0x20\n      add\n      dup3\n      dup2\n      sub\n      dup3\n      mstore\n      0x20\n      dup2\n      mstore\n      0x20\n      add\n      dup1\n      0x4f776e61626c653a2063616c6c6572206973206e6f7420746865206f776e6572\n      dup2\n      mstore\n      pop\n      0x20\n      add\n      swap2\n      pop\n      pop\n      mload(0x40)\n      dup1\n      swap2\n      sub\n      swap1\n      revert\n    tag_70:\n        /* \"contracts/StakingRewardsFactory_flattened.sol\":26240:26271  StakingRewardsInfo storage info */\n      0x00\n        /* \"contracts/StakingRewardsFactory_flattened.sol\":26274:26306  stakingRewardsInfoByStakingToken */\n      0x04\n        /* \"contracts/StakingRewardsFactory_flattened.sol\":26274:26342  stakingRewardsInfoByStakingToken[... */\n      0x00\n        /* \"contracts/StakingRewardsFactory_flattened.sol\":26320:26332  stakingToken */\n      dup6\n        /* \"contracts/StakingRewardsFactory_flattened.sol\":26274:26342  stakingRewardsInfoByStakingToken[... */\n      0xffffffffffffffffffffffffffffffffffffffff\n      and\n      0xffffffffffffffffffffffffffffffffffffffff\n      and\n      dup2\n      mstore\n      0x20\n      add\n      swap1\n      dup2\n      mstore\n      0x20\n      add\n      0x00\n      keccak256\n        /* \"contracts/StakingRewardsFactory_flattened.sol\":26240:26342  StakingRewardsInfo storage info = stakingRewardsInfoByStakingToken[... */\n      swap1\n      pop\n        /* \"contracts/StakingRewardsFactory_flattened.sol\":26379:26380  0 */\n      0x00\n        /* \"contracts/StakingRewardsFactory_flattened.sol\":26360:26375  rewardsDuration */\n      dup3\n        /* \"contracts/StakingRewardsFactory_flattened.sol\":26360:26380  rewardsDuration >= 0 */\n      lt\n      iszero\n        /* \"contracts/StakingRewardsFactory_flattened.sol\":26352:26447  require(rewardsDuration >= 0, \"StakingRewardsFactory::deploy: rewardsDuration can not be zero\") */\n      tag_72\n      jumpi\n      mload(0x40)\n      0x08c379a000000000000000000000000000000000000000000000000000000000\n      dup2\n      mstore\n      0x04\n      add\n      dup1\n      dup1\n      0x20\n      add\n      dup3\n      dup2\n      sub\n      dup3\n      mstore\n      0x3e\n      dup2\n      mstore\n      0x20\n      add\n      dup1\n      data_cc27f2dffed4c3824209566ea8e12fa8ada36aeef7e1b370d7fbfe3232cfed72\n      0x3e\n      swap2\n      codecopy\n      0x40\n      add\n      swap2\n      pop\n      pop\n      mload(0x40)\n      dup1\n      swap2\n      sub\n      swap1\n      revert\n    tag_72:\n        /* \"contracts/StakingRewardsFactory_flattened.sol\":26509:26510  0 */\n      0x00\n        /* \"contracts/StakingRewardsFactory_flattened.sol\":26478:26511  info.stakingRewards == address(0) */\n      0xffffffffffffffffffffffffffffffffffffffff\n      and\n        /* \"contracts/StakingRewardsFactory_flattened.sol\":26478:26482  info */\n      dup2\n        /* \"contracts/StakingRewardsFactory_flattened.sol\":26478:26497  info.stakingRewards */\n      0x00\n      add\n      0x00\n      swap1\n      sload\n      swap1\n      0x0100\n      exp\n      swap1\n      div\n      0xffffffffffffffffffffffffffffffffffffffff\n      and\n        /* \"contracts/StakingRewardsFactory_flattened.sol\":26478:26511  info.stakingRewards == address(0) */\n      0xffffffffffffffffffffffffffffffffffffffff\n      and\n      eq\n        /* \"contracts/StakingRewardsFactory_flattened.sol\":26457:26584  require(... */\n      tag_73\n      jumpi\n      mload(0x40)\n      0x08c379a000000000000000000000000000000000000000000000000000000000\n      dup2\n      mstore\n      0x04\n      add\n      dup1\n      dup1\n      0x20\n      add\n      dup3\n      dup2\n      sub\n      dup3\n      mstore\n      0x2f\n      dup2\n      mstore\n      0x20\n      add\n      dup1\n      data_77d8567a7b7bf9a9a30ea727f6e525cae6667d736cdaff555c86db8d81648a1a\n      0x2f\n      swap2\n      codecopy\n      0x40\n      add\n      swap2\n      pop\n      pop\n      mload(0x40)\n      dup1\n      swap2\n      sub\n      swap1\n      revert\n    tag_73:\n        /* \"contracts/StakingRewardsFactory_flattened.sol\":26708:26712  this */\n      address\n        /* \"contracts/StakingRewardsFactory_flattened.sol\":26731:26743  rewardsToken */\n      0x01\n      0x00\n      swap1\n      sload\n      swap1\n      0x0100\n      exp\n      swap1\n      div\n      0xffffffffffffffffffffffffffffffffffffffff\n      and\n        /* \"contracts/StakingRewardsFactory_flattened.sol\":26761:26776  rewardsDuration */\n      dup4\n        /* \"contracts/StakingRewardsFactory_flattened.sol\":26794:26806  stakingToken */\n      dup7\n        /* \"contracts/StakingRewardsFactory_flattened.sol\":26638:26820  new StakingRewards(... */\n      mload(0x40)\n      tag_74\n      swap1\n      tag_75\n      jump\t// in\n    tag_74:\n      dup1\n      dup6\n      0xffffffffffffffffffffffffffffffffffffffff\n      and\n      0xffffffffffffffffffffffffffffffffffffffff\n      and\n      dup2\n      mstore\n      0x20\n      add\n      dup5\n      0xffffffffffffffffffffffffffffffffffffffff\n      and\n      0xffffffffffffffffffffffffffffffffffffffff\n      and\n      dup2\n      mstore\n      0x20\n      add\n      dup4\n      dup2\n      mstore\n      0x20\n      add\n      dup3\n      0xffffffffffffffffffffffffffffffffffffffff\n      and\n      0xffffffffffffffffffffffffffffffffffffffff\n      and\n      dup2\n      mstore\n      0x20\n      add\n      swap5\n      pop\n      pop\n      pop\n      pop\n      pop\n      mload(0x40)\n      dup1\n      swap2\n      sub\n      swap1\n      0x00\n      create\n      dup1\n      iszero\n        /* \"--CODEGEN--\":8:17   */\n      dup1\n        /* \"--CODEGEN--\":5:7   */\n      iszero\n      tag_76\n      jumpi\n        /* \"--CODEGEN--\":45:61   */\n      returndatasize\n        /* \"--CODEGEN--\":42:43   */\n      0x00\n        /* \"--CODEGEN--\":39:40   */\n      dup1\n        /* \"--CODEGEN--\":24:62   */\n      returndatacopy\n        /* \"--CODEGEN--\":77:93   */\n      returndatasize\n        /* \"--CODEGEN--\":74:75   */\n      0x00\n        /* \"--CODEGEN--\":67:94   */\n      revert\n        /* \"--CODEGEN--\":5:7   */\n    tag_76:\n        /* \"contracts/StakingRewardsFactory_flattened.sol\":26638:26820  new StakingRewards(... */\n      pop\n        /* \"contracts/StakingRewardsFactory_flattened.sol\":26595:26599  info */\n      dup2\n        /* \"contracts/StakingRewardsFactory_flattened.sol\":26595:26614  info.stakingRewards */\n      0x00\n      add\n      0x00\n        /* \"contracts/StakingRewardsFactory_flattened.sol\":26595:26830  info.stakingRewards = address(... */\n      0x0100\n      exp\n      dup2\n      sload\n      dup2\n      0xffffffffffffffffffffffffffffffffffffffff\n      mul\n      not\n      and\n      swap1\n      dup4\n      0xffffffffffffffffffffffffffffffffffffffff\n      and\n      mul\n      or\n      swap1\n      sstore\n      pop\n        /* \"contracts/StakingRewardsFactory_flattened.sol\":26860:26872  rewardAmount */\n      dup3\n        /* \"contracts/StakingRewardsFactory_flattened.sol\":26840:26844  info */\n      dup2\n        /* \"contracts/StakingRewardsFactory_flattened.sol\":26840:26857  info.rewardAmount */\n      0x01\n      add\n        /* \"contracts/StakingRewardsFactory_flattened.sol\":26840:26872  info.rewardAmount = rewardAmount */\n      dup2\n      swap1\n      sstore\n      pop\n        /* \"contracts/StakingRewardsFactory_flattened.sol\":26882:26895  stakingTokens */\n      0x03\n        /* \"contracts/StakingRewardsFactory_flattened.sol\":26901:26913  stakingToken */\n      dup5\n        /* \"contracts/StakingRewardsFactory_flattened.sol\":26882:26914  stakingTokens.push(stakingToken) */\n      swap1\n      dup1\n        /* \"--CODEGEN--\":39:40   */\n      0x01\n        /* \"--CODEGEN--\":33:36   */\n      dup2\n        /* \"--CODEGEN--\":27:37   */\n      sload\n        /* \"--CODEGEN--\":23:41   */\n      add\n        /* \"--CODEGEN--\":57:67   */\n      dup1\n        /* \"--CODEGEN--\":52:55   */\n      dup3\n        /* \"--CODEGEN--\":45:68   */\n      sstore\n        /* \"--CODEGEN--\":79:89   */\n      dup1\n        /* \"--CODEGEN--\":72:89   */\n      swap2\n      pop\n        /* \"--CODEGEN--\":0:93   */\n      pop\n        /* \"contracts/StakingRewardsFactory_flattened.sol\":26882:26914  stakingTokens.push(stakingToken) */\n      swap1\n      0x01\n      dup3\n      sub\n      swap1\n      0x00\n      mstore\n      keccak256(0x00, 0x20)\n      add\n      0x00\n      swap1\n      swap2\n      swap3\n      swap1\n      swap2\n      swap1\n      swap2\n      0x0100\n      exp\n      dup2\n      sload\n      dup2\n      0xffffffffffffffffffffffffffffffffffffffff\n      mul\n      not\n      and\n      swap1\n      dup4\n      0xffffffffffffffffffffffffffffffffffffffff\n      and\n      mul\n      or\n      swap1\n      sstore\n      pop\n      pop\n        /* \"contracts/StakingRewardsFactory_flattened.sol\":9196:9197  _ */\n      pop\n        /* \"contracts/StakingRewardsFactory_flattened.sol\":26131:26921  function deploy(address stakingToken, uint rewardAmount, uint256 rewardsDuration) public onlyOwner {... */\n      pop\n      pop\n      pop\n      jump\t// out\n        /* \"contracts/StakingRewardsFactory_flattened.sol\":25054:25081  address public rewardsToken */\n    tag_38:\n      0x01\n      0x00\n      swap1\n      sload\n      swap1\n      0x0100\n      exp\n      swap1\n      div\n      0xffffffffffffffffffffffffffffffffffffffff\n      and\n      dup2\n      jump\t// out\n        /* \"contracts/StakingRewardsFactory_flattened.sol\":10007:10114  function transferOwnership(address newOwner) public onlyOwner {... */\n    tag_41:\n        /* \"contracts/StakingRewardsFactory_flattened.sol\":9140:9149  isOwner() */\n      tag_79\n        /* \"contracts/StakingRewardsFactory_flattened.sol\":9140:9147  isOwner */\n      tag_29\n        /* \"contracts/StakingRewardsFactory_flattened.sol\":9140:9149  isOwner() */\n      jump\t// in\n    tag_79:\n        /* \"contracts/StakingRewardsFactory_flattened.sol\":9132:9186  require(isOwner(), \"Ownable: caller is not the owner\") */\n      tag_80\n      jumpi\n      mload(0x40)\n      0x08c379a000000000000000000000000000000000000000000000000000000000\n      dup2\n      mstore\n      0x04\n      add\n      dup1\n      dup1\n      0x20\n      add\n      dup3\n      dup2\n      sub\n      dup3\n      mstore\n      0x20\n      dup2\n      mstore\n      0x20\n      add\n      dup1\n      0x4f776e61626c653a2063616c6c6572206973206e6f7420746865206f776e6572\n      dup2\n      mstore\n      pop\n      0x20\n      add\n      swap2\n      pop\n      pop\n      mload(0x40)\n      dup1\n      swap2\n      sub\n      swap1\n      revert\n    tag_80:\n        /* \"contracts/StakingRewardsFactory_flattened.sol\":10079:10107  _transferOwnership(newOwner) */\n      tag_82\n        /* \"contracts/StakingRewardsFactory_flattened.sol\":10098:10106  newOwner */\n      dup2\n        /* \"contracts/StakingRewardsFactory_flattened.sol\":10079:10097  _transferOwnership */\n      tag_83\n        /* \"contracts/StakingRewardsFactory_flattened.sol\":10079:10107  _transferOwnership(newOwner) */\n      jump\t// in\n    tag_82:\n        /* \"contracts/StakingRewardsFactory_flattened.sol\":10007:10114  function transferOwnership(address newOwner) public onlyOwner {... */\n      pop\n      jump\t// out\n        /* \"contracts/StakingRewardsFactory_flattened.sol\":10215:10440  function _transferOwnership(address newOwner) internal {... */\n    tag_83:\n        /* \"contracts/StakingRewardsFactory_flattened.sol\":10308:10309  0 */\n      0x00\n        /* \"contracts/StakingRewardsFactory_flattened.sol\":10288:10310  newOwner != address(0) */\n      0xffffffffffffffffffffffffffffffffffffffff\n      and\n        /* \"contracts/StakingRewardsFactory_flattened.sol\":10288:10296  newOwner */\n      dup2\n        /* \"contracts/StakingRewardsFactory_flattened.sol\":10288:10310  newOwner != address(0) */\n      0xffffffffffffffffffffffffffffffffffffffff\n      and\n      eq\n      iszero\n        /* \"contracts/StakingRewardsFactory_flattened.sol\":10280:10353  require(newOwner != address(0), \"Ownable: new owner is the zero address\") */\n      tag_85\n      jumpi\n      mload(0x40)\n      0x08c379a000000000000000000000000000000000000000000000000000000000\n      dup2\n      mstore\n      0x04\n      add\n      dup1\n      dup1\n      0x20\n      add\n      dup3\n      dup2\n      sub\n      dup3\n      mstore\n      0x26\n      dup2\n      mstore\n      0x20\n      add\n      dup1\n      data_245f15ff17f551913a7a18385165551503906a406f905ac1c2437281a7cd0cfe\n      0x26\n      swap2\n      codecopy\n      0x40\n      add\n      swap2\n      pop\n      pop\n      mload(0x40)\n      dup1\n      swap2\n      sub\n      swap1\n      revert\n    tag_85:\n        /* \"contracts/StakingRewardsFactory_flattened.sol\":10397:10405  newOwner */\n      dup1\n        /* \"contracts/StakingRewardsFactory_flattened.sol\":10368:10406  OwnershipTransferred(_owner, newOwner) */\n      0xffffffffffffffffffffffffffffffffffffffff\n      and\n        /* \"contracts/StakingRewardsFactory_flattened.sol\":10389:10395  _owner */\n      0x00\n      dup1\n      swap1\n      sload\n      swap1\n      0x0100\n      exp\n      swap1\n      div\n      0xffffffffffffffffffffffffffffffffffffffff\n      and\n        /* \"contracts/StakingRewardsFactory_flattened.sol\":10368:10406  OwnershipTransferred(_owner, newOwner) */\n      0xffffffffffffffffffffffffffffffffffffffff\n      and\n      0x8be0079c531659141344cd1fd0a4f28419497f9722a3daafe3b4186f6b6457e0\n      mload(0x40)\n      mload(0x40)\n      dup1\n      swap2\n      sub\n      swap1\n      log3\n        /* \"contracts/StakingRewardsFactory_flattened.sol\":10425:10433  newOwner */\n      dup1\n        /* \"contracts/StakingRewardsFactory_flattened.sol\":10416:10422  _owner */\n      0x00\n      dup1\n        /* \"contracts/StakingRewardsFactory_flattened.sol\":10416:10433  _owner = newOwner */\n      0x0100\n      exp\n      dup2\n      sload\n      dup2\n      0xffffffffffffffffffffffffffffffffffffffff\n      mul\n      not\n      and\n      swap1\n      dup4\n      0xffffffffffffffffffffffffffffffffffffffff\n      and\n      mul\n      or\n      swap1\n      sstore\n      pop\n        /* \"contracts/StakingRewardsFactory_flattened.sol\":10215:10440  function _transferOwnership(address newOwner) internal {... */\n      pop\n      jump\t// out\n        /* \"contracts/StakingRewardsFactory_flattened.sol\":24988:28474  contract StakingRewardsFactory is Ownable {... */\n    tag_75:\n      dataSize(sub_0)\n      dup1\n      dataOffset(sub_0)\n      dup4\n      codecopy\n      add\n      swap1\n      jump\t// out\n    stop\n    data_245f15ff17f551913a7a18385165551503906a406f905ac1c2437281a7cd0cfe 4f776e61626c653a206e6577206f776e657220697320746865207a65726f2061646472657373\n    data_77d8567a7b7bf9a9a30ea727f6e525cae6667d736cdaff555c86db8d81648a1a 5374616b696e6752657761726473466163746f72793a3a6465706c6f793a20616c7265616479206465706c6f796564\n    data_ae1f87e20c157d2878a2e48b377d209dfddfc6d5ec9b80ceecc5addd0ef6ffdb 5374616b696e6752657761726473466163746f72793a3a6e6f74696679526577617264416d6f756e74733a2063616c6c6564206265666f726520616e79206465706c6f7973\n    data_afbe2226aded12cd2f0d3c83ff167eedc78632dc0894f92eea331d3f2b56d089 5374616b696e6752657761726473466163746f72793a3a6e6f74696679526577617264416d6f756e743a207472616e73666572206661696c6564\n    data_cc27f2dffed4c3824209566ea8e12fa8ada36aeef7e1b370d7fbfe3232cfed72 5374616b696e6752657761726473466163746f72793a3a6465706c6f793a20726577617264734475726174696f6e2063616e206e6f74206265207a65726f\n    data_e71986032604f829ccaec9386c51e838a85cdbf506769bd103c829f640682adf 5374616b696e6752657761726473466163746f72793a3a6e6f74696679526577617264416d6f756e743a206e6f74207265616479\n    data_e8f5c4ca6631f4bfe6ffabf099741b79e5c6b86618ddcbeee6ba3c5940184427 5374616b696e6752657761726473466163746f72793a3a6e6f74696679526577617264416d6f756e743a206e6f74206465706c6f796564\n\n    sub_0: assembly {\n            /* \"contracts/StakingRewardsFactory_flattened.sol\":18618:24693  contract StakingRewards is... */\n          mstore(0x40, 0x80)\n            /* \"contracts/StakingRewardsFactory_flattened.sol\":18934:18935  0 */\n          0x00\n            /* \"contracts/StakingRewardsFactory_flattened.sol\":18904:18935  uint256 public periodFinish = 0 */\n          0x04\n          sstore\n            /* \"contracts/StakingRewardsFactory_flattened.sol\":18969:18970  0 */\n          0x00\n            /* \"contracts/StakingRewardsFactory_flattened.sol\":18941:18970  uint256 public rewardRate = 0 */\n          0x05\n          sstore\n            /* \"contracts/StakingRewardsFactory_flattened.sol\":19009:19015  0 days */\n          0x00\n            /* \"contracts/StakingRewardsFactory_flattened.sol\":18976:19015  uint256 public rewardsDuration = 0 days */\n          0x06\n          sstore\n            /* \"contracts/StakingRewardsFactory_flattened.sol\":19341:19750  constructor(... */\n          callvalue\n            /* \"--CODEGEN--\":8:17   */\n          dup1\n            /* \"--CODEGEN--\":5:7   */\n          iszero\n          tag_1\n          jumpi\n            /* \"--CODEGEN--\":30:31   */\n          0x00\n            /* \"--CODEGEN--\":27:28   */\n          dup1\n            /* \"--CODEGEN--\":20:32   */\n          revert\n            /* \"--CODEGEN--\":5:7   */\n        tag_1:\n            /* \"contracts/StakingRewardsFactory_flattened.sol\":19341:19750  constructor(... */\n          pop\n          mload(0x40)\n          sub(codesize, bytecodeSize)\n          dup1\n          bytecodeSize\n          dup4\n          codecopy\n          dup2\n          dup2\n          add\n          0x40\n          mstore\n            /* \"--CODEGEN--\":13:16   */\n          0x80\n            /* \"--CODEGEN--\":8:11   */\n          dup2\n            /* \"--CODEGEN--\":5:17   */\n          lt\n            /* \"--CODEGEN--\":2:4   */\n          iszero\n          tag_2\n          jumpi\n            /* \"--CODEGEN--\":30:31   */\n          0x00\n            /* \"--CODEGEN--\":27:28   */\n          dup1\n            /* \"--CODEGEN--\":20:32   */\n          revert\n            /* \"--CODEGEN--\":2:4   */\n        tag_2:\n            /* \"contracts/StakingRewardsFactory_flattened.sol\":19341:19750  constructor(... */\n          dup2\n          add\n          swap1\n          dup1\n          dup1\n          mload\n          swap1\n          0x20\n          add\n          swap1\n          swap3\n          swap2\n          swap1\n          dup1\n          mload\n          swap1\n          0x20\n          add\n          swap1\n          swap3\n          swap2\n          swap1\n          dup1\n          mload\n          swap1\n          0x20\n          add\n          swap1\n          swap3\n          swap2\n          swap1\n          dup1\n          mload\n          swap1\n          0x20\n          add\n          swap1\n          swap3\n          swap2\n          swap1\n          pop\n          pop\n          pop\n            /* \"contracts/StakingRewardsFactory_flattened.sol\":2070:2071  1 */\n          0x01\n            /* \"contracts/StakingRewardsFactory_flattened.sol\":2054:2067  _guardCounter */\n          dup1\n            /* \"contracts/StakingRewardsFactory_flattened.sol\":2054:2071  _guardCounter = 1 */\n          dup2\n          swap1\n          sstore\n          pop\n            /* \"contracts/StakingRewardsFactory_flattened.sol\":19553:19566  _rewardsToken */\n          dup3\n            /* \"contracts/StakingRewardsFactory_flattened.sol\":19531:19543  rewardsToken */\n          0x02\n          0x00\n            /* \"contracts/StakingRewardsFactory_flattened.sol\":19531:19567  rewardsToken = IERC20(_rewardsToken) */\n          0x0100\n          exp\n          dup2\n          sload\n          dup2\n          0xffffffffffffffffffffffffffffffffffffffff\n          mul\n          not\n          and\n          swap1\n          dup4\n          0xffffffffffffffffffffffffffffffffffffffff\n          and\n          mul\n          or\n          swap1\n          sstore\n          pop\n            /* \"contracts/StakingRewardsFactory_flattened.sol\":19599:19612  _stakingToken */\n          dup1\n            /* \"contracts/StakingRewardsFactory_flattened.sol\":19577:19589  stakingToken */\n          0x03\n          0x00\n            /* \"contracts/StakingRewardsFactory_flattened.sol\":19577:19613  stakingToken = IERC20(_stakingToken) */\n          0x0100\n          exp\n          dup2\n          sload\n          dup2\n          0xffffffffffffffffffffffffffffffffffffffff\n          mul\n          not\n          and\n          swap1\n          dup4\n          0xffffffffffffffffffffffffffffffffffffffff\n          and\n          mul\n          or\n          swap1\n          sstore\n          pop\n            /* \"contracts/StakingRewardsFactory_flattened.sol\":19660:19666  1 days */\n          0x015180\n            /* \"contracts/StakingRewardsFactory_flattened.sol\":19641:19657  _rewardsDuration */\n          dup3\n            /* \"contracts/StakingRewardsFactory_flattened.sol\":19641:19666  _rewardsDuration * 1 days */\n          mul\n            /* \"contracts/StakingRewardsFactory_flattened.sol\":19623:19638  rewardsDuration */\n          0x06\n            /* \"contracts/StakingRewardsFactory_flattened.sol\":19623:19666  rewardsDuration = _rewardsDuration * 1 days */\n          dup2\n          swap1\n          sstore\n          pop\n            /* \"contracts/StakingRewardsFactory_flattened.sol\":19723:19743  _rewardsDistribution */\n          dup4\n            /* \"contracts/StakingRewardsFactory_flattened.sol\":19701:19720  rewardsDistribution */\n          0x00\n          dup1\n            /* \"contracts/StakingRewardsFactory_flattened.sol\":19701:19743  rewardsDistribution = _rewardsDistribution */\n          0x0100\n          exp\n          dup2\n          sload\n          dup2\n          0xffffffffffffffffffffffffffffffffffffffff\n          mul\n          not\n          and\n          swap1\n          dup4\n          0xffffffffffffffffffffffffffffffffffffffff\n          and\n          mul\n          or\n          swap1\n          sstore\n          pop\n            /* \"contracts/StakingRewardsFactory_flattened.sol\":19341:19750  constructor(... */\n          pop\n          pop\n          pop\n          pop\n            /* \"contracts/StakingRewardsFactory_flattened.sol\":18618:24693  contract StakingRewards is... */\n          dataSize(sub_0)\n          dup1\n          dataOffset(sub_0)\n          0x00\n          codecopy\n          0x00\n          return\n        stop\n\n        sub_0: assembly {\n                /* \"contracts/StakingRewardsFactory_flattened.sol\":18618:24693  contract StakingRewards is... */\n              mstore(0x40, 0x80)\n              callvalue\n                /* \"--CODEGEN--\":8:17   */\n              dup1\n                /* \"--CODEGEN--\":5:7   */\n              iszero\n              tag_1\n              jumpi\n                /* \"--CODEGEN--\":30:31   */\n              0x00\n                /* \"--CODEGEN--\":27:28   */\n              dup1\n                /* \"--CODEGEN--\":20:32   */\n              revert\n                /* \"--CODEGEN--\":5:7   */\n            tag_1:\n                /* \"contracts/StakingRewardsFactory_flattened.sol\":18618:24693  contract StakingRewards is... */\n              pop\n              jumpi(tag_2, lt(calldatasize, 0x04))\n              shr(0xe0, calldataload(0x00))\n              dup1\n              0x7b0a47ee\n              gt\n              tag_25\n              jumpi\n              dup1\n              0xcd3daf9d\n              gt\n              tag_26\n              jumpi\n              dup1\n              0xcd3daf9d\n              eq\n              tag_19\n              jumpi\n              dup1\n              0xd1af0c7d\n              eq\n              tag_20\n              jumpi\n              dup1\n              0xdf136d65\n              eq\n              tag_21\n              jumpi\n              dup1\n              0xe9fad8ee\n              eq\n              tag_22\n              jumpi\n              dup1\n              0xebe2b12b\n              eq\n              tag_23\n              jumpi\n              dup1\n              0xecd9ba82\n              eq\n              tag_24\n              jumpi\n              jump(tag_2)\n            tag_26:\n              dup1\n              0x7b0a47ee\n              eq\n              tag_14\n              jumpi\n              dup1\n              0x80faa57d\n              eq\n              tag_15\n              jumpi\n              dup1\n              0x8b876347\n              eq\n              tag_16\n              jumpi\n              dup1\n              0xa694fc3a\n              eq\n              tag_17\n              jumpi\n              dup1\n              0xc8f33c91\n              eq\n              tag_18\n              jumpi\n              jump(tag_2)\n            tag_25:\n              dup1\n              0x386a9525\n              gt\n              tag_27\n              jumpi\n              dup1\n              0x386a9525\n              eq\n              tag_8\n              jumpi\n              dup1\n              0x3c6b16ab\n              eq\n              tag_9\n              jumpi\n              dup1\n              0x3d18b912\n              eq\n              tag_10\n              jumpi\n              dup1\n              0x3fc6df6e\n              eq\n              tag_11\n              jumpi\n              dup1\n              0x70a08231\n              eq\n              tag_12\n              jumpi\n              dup1\n              0x72f702f3\n              eq\n              tag_13\n              jumpi\n              jump(tag_2)\n            tag_27:\n              dup1\n              0x8cc262\n              eq\n              tag_3\n              jumpi\n              dup1\n              0x0700037d\n              eq\n              tag_4\n              jumpi\n              dup1\n              0x18160ddd\n              eq\n              tag_5\n              jumpi\n              dup1\n              0x1c1f78eb\n              eq\n              tag_6\n              jumpi\n              dup1\n              0x2e1a7d4d\n              eq\n              tag_7\n              jumpi\n            tag_2:\n              0x00\n              dup1\n              revert\n                /* \"contracts/StakingRewardsFactory_flattened.sol\":20555:20814  function earned(address account) public view returns (uint256) {... */\n            tag_3:\n              tag_28\n              0x04\n              dup1\n              calldatasize\n              sub\n                /* \"--CODEGEN--\":13:15   */\n              0x20\n                /* \"--CODEGEN--\":8:11   */\n              dup2\n                /* \"--CODEGEN--\":5:16   */\n              lt\n                /* \"--CODEGEN--\":2:4   */\n              iszero\n              tag_29\n              jumpi\n                /* \"--CODEGEN--\":29:30   */\n              0x00\n                /* \"--CODEGEN--\":26:27   */\n              dup1\n                /* \"--CODEGEN--\":19:31   */\n              revert\n                /* \"--CODEGEN--\":2:4   */\n            tag_29:\n                /* \"contracts/StakingRewardsFactory_flattened.sol\":20555:20814  function earned(address account) public view returns (uint256) {... */\n              dup2\n              add\n              swap1\n              dup1\n              dup1\n              calldataload\n              0xffffffffffffffffffffffffffffffffffffffff\n              and\n              swap1\n              0x20\n              add\n              swap1\n              swap3\n              swap2\n              swap1\n              pop\n              pop\n              pop\n              tag_30\n              jump\t// in\n            tag_28:\n              mload(0x40)\n              dup1\n              dup3\n              dup2\n              mstore\n              0x20\n              add\n              swap2\n              pop\n              pop\n              mload(0x40)\n              dup1\n              swap2\n              sub\n              swap1\n              return\n                /* \"contracts/StakingRewardsFactory_flattened.sol\":19161:19203  mapping(address => uint256) public rewards */\n            tag_4:\n              tag_31\n              0x04\n              dup1\n              calldatasize\n              sub\n                /* \"--CODEGEN--\":13:15   */\n              0x20\n                /* \"--CODEGEN--\":8:11   */\n              dup2\n                /* \"--CODEGEN--\":5:16   */\n              lt\n                /* \"--CODEGEN--\":2:4   */\n              iszero\n              tag_32\n              jumpi\n                /* \"--CODEGEN--\":29:30   */\n              0x00\n                /* \"--CODEGEN--\":26:27   */\n              dup1\n                /* \"--CODEGEN--\":19:31   */\n              revert\n                /* \"--CODEGEN--\":2:4   */\n            tag_32:\n                /* \"contracts/StakingRewardsFactory_flattened.sol\":19161:19203  mapping(address => uint256) public rewards */\n              dup2\n              add\n              swap1\n              dup1\n              dup1\n              calldataload\n              0xffffffffffffffffffffffffffffffffffffffff\n              and\n              swap1\n              0x20\n              add\n              swap1\n              swap3\n              swap2\n              swap1\n              pop\n              pop\n              pop\n              tag_33\n              jump\t// in\n            tag_31:\n              mload(0x40)\n              dup1\n              dup3\n              dup2\n              mstore\n              0x20\n              add\n              swap2\n              pop\n              pop\n              mload(0x40)\n              dup1\n              swap2\n              sub\n              swap1\n              return\n                /* \"contracts/StakingRewardsFactory_flattened.sol\":19795:19886  function totalSupply() external view returns (uint256) {... */\n            tag_5:\n              tag_34\n              tag_35\n              jump\t// in\n            tag_34:\n              mload(0x40)\n              dup1\n              dup3\n              dup2\n              mstore\n              0x20\n              add\n              swap2\n              pop\n              pop\n              mload(0x40)\n              dup1\n              swap2\n              sub\n              swap1\n              return\n                /* \"contracts/StakingRewardsFactory_flattened.sol\":20820:20939  function getRewardForDuration() external view returns (uint256) {... */\n            tag_6:\n              tag_36\n              tag_37\n              jump\t// in\n            tag_36:\n              mload(0x40)\n              dup1\n              dup3\n              dup2\n              mstore\n              0x20\n              add\n              swap2\n              pop\n              pop\n              mload(0x40)\n              dup1\n              swap2\n              sub\n              swap1\n              return\n                /* \"contracts/StakingRewardsFactory_flattened.sol\":22091:22470  function withdraw(uint256 amount)... */\n            tag_7:\n              tag_38\n              0x04\n              dup1\n              calldatasize\n              sub\n                /* \"--CODEGEN--\":13:15   */\n              0x20\n                /* \"--CODEGEN--\":8:11   */\n              dup2\n                /* \"--CODEGEN--\":5:16   */\n              lt\n                /* \"--CODEGEN--\":2:4   */\n              iszero\n              tag_39\n              jumpi\n                /* \"--CODEGEN--\":29:30   */\n              0x00\n                /* \"--CODEGEN--\":26:27   */\n              dup1\n                /* \"--CODEGEN--\":19:31   */\n              revert\n                /* \"--CODEGEN--\":2:4   */\n            tag_39:\n                /* \"contracts/StakingRewardsFactory_flattened.sol\":22091:22470  function withdraw(uint256 amount)... */\n              dup2\n              add\n              swap1\n              dup1\n              dup1\n              calldataload\n              swap1\n              0x20\n              add\n              swap1\n              swap3\n              swap2\n              swap1\n              pop\n              pop\n              pop\n              tag_40\n              jump\t// in\n            tag_38:\n              stop\n                /* \"contracts/StakingRewardsFactory_flattened.sol\":18976:19015  uint256 public rewardsDuration = 0 days */\n            tag_8:\n              tag_41\n              tag_42\n              jump\t// in\n            tag_41:\n              mload(0x40)\n              dup1\n              dup3\n              dup2\n              mstore\n              0x20\n              add\n              swap2\n              pop\n              pop\n              mload(0x40)\n              dup1\n              swap2\n              sub\n              swap1\n              return\n                /* \"contracts/StakingRewardsFactory_flattened.sol\":22936:24065  function notifyRewardAmount(uint256 reward)... */\n            tag_9:\n              tag_43\n              0x04\n              dup1\n              calldatasize\n              sub\n                /* \"--CODEGEN--\":13:15   */\n              0x20\n                /* \"--CODEGEN--\":8:11   */\n              dup2\n                /* \"--CODEGEN--\":5:16   */\n              lt\n                /* \"--CODEGEN--\":2:4   */\n              iszero\n              tag_44\n              jumpi\n                /* \"--CODEGEN--\":29:30   */\n              0x00\n                /* \"--CODEGEN--\":26:27   */\n              dup1\n                /* \"--CODEGEN--\":19:31   */\n              revert\n                /* \"--CODEGEN--\":2:4   */\n            tag_44:\n                /* \"contracts/StakingRewardsFactory_flattened.sol\":22936:24065  function notifyRewardAmount(uint256 reward)... */\n              dup2\n              add\n              swap1\n              dup1\n              dup1\n              calldataload\n              swap1\n              0x20\n              add\n              swap1\n              swap3\n              swap2\n              swap1\n              pop\n              pop\n              pop\n              tag_45\n              jump\t// in\n            tag_43:\n              stop\n                /* \"contracts/StakingRewardsFactory_flattened.sol\":22476:22776  function getReward() public nonReentrant updateReward(msg.sender) {... */\n            tag_10:\n              tag_46\n              tag_47\n              jump\t// in\n            tag_46:\n              stop\n                /* \"contracts/StakingRewardsFactory_flattened.sol\":123:157  address public rewardsDistribution */\n            tag_11:\n              tag_48\n              tag_49\n              jump\t// in\n            tag_48:\n              mload(0x40)\n              dup1\n              dup3\n              0xffffffffffffffffffffffffffffffffffffffff\n              and\n              0xffffffffffffffffffffffffffffffffffffffff\n              and\n              dup2\n              mstore\n              0x20\n              add\n              swap2\n              pop\n              pop\n              mload(0x40)\n              dup1\n              swap2\n              sub\n              swap1\n              return\n                /* \"contracts/StakingRewardsFactory_flattened.sol\":19892:20002  function balanceOf(address account) external view returns (uint256) {... */\n            tag_12:\n              tag_50\n              0x04\n              dup1\n              calldatasize\n              sub\n                /* \"--CODEGEN--\":13:15   */\n              0x20\n                /* \"--CODEGEN--\":8:11   */\n              dup2\n                /* \"--CODEGEN--\":5:16   */\n              lt\n                /* \"--CODEGEN--\":2:4   */\n              iszero\n              tag_51\n              jumpi\n                /* \"--CODEGEN--\":29:30   */\n              0x00\n                /* \"--CODEGEN--\":26:27   */\n              dup1\n                /* \"--CODEGEN--\":19:31   */\n              revert\n                /* \"--CODEGEN--\":2:4   */\n            tag_51:\n                /* \"contracts/StakingRewardsFactory_flattened.sol\":19892:20002  function balanceOf(address account) external view returns (uint256) {... */\n              dup2\n              add\n              swap1\n              dup1\n              dup1\n              calldataload\n              0xffffffffffffffffffffffffffffffffffffffff\n              and\n              swap1\n              0x20\n              add\n              swap1\n              swap3\n              swap2\n              swap1\n              pop\n              pop\n              pop\n              tag_52\n              jump\t// in\n            tag_50:\n              mload(0x40)\n              dup1\n              dup3\n              dup2\n              mstore\n              0x20\n              add\n              swap2\n              pop\n              pop\n              mload(0x40)\n              dup1\n              swap2\n              sub\n              swap1\n              return\n                /* \"contracts/StakingRewardsFactory_flattened.sol\":18872:18898  IERC20 public stakingToken */\n            tag_13:\n              tag_53\n              tag_54\n              jump\t// in\n            tag_53:\n              mload(0x40)\n              dup1\n              dup3\n              0xffffffffffffffffffffffffffffffffffffffff\n              and\n              0xffffffffffffffffffffffffffffffffffffffff\n              and\n              dup2\n              mstore\n              0x20\n              add\n              swap2\n              pop\n              pop\n              mload(0x40)\n              dup1\n              swap2\n              sub\n              swap1\n              return\n                /* \"contracts/StakingRewardsFactory_flattened.sol\":18941:18970  uint256 public rewardRate = 0 */\n            tag_14:\n              tag_55\n              tag_56\n              jump\t// in\n            tag_55:\n              mload(0x40)\n              dup1\n              dup3\n              dup2\n              mstore\n              0x20\n              add\n              swap2\n              pop\n              pop\n              mload(0x40)\n              dup1\n              swap2\n              sub\n              swap1\n              return\n                /* \"contracts/StakingRewardsFactory_flattened.sol\":20008:20137  function lastTimeRewardApplicable() public view returns (uint256) {... */\n            tag_15:\n              tag_57\n              tag_58\n              jump\t// in\n            tag_57:\n              mload(0x40)\n              dup1\n              dup3\n              dup2\n              mstore\n              0x20\n              add\n              swap2\n              pop\n              pop\n              mload(0x40)\n              dup1\n              swap2\n              sub\n              swap1\n              return\n                /* \"contracts/StakingRewardsFactory_flattened.sol\":19098:19155  mapping(address => uint256) public userRewardPerTokenPaid */\n            tag_16:\n              tag_59\n              0x04\n              dup1\n              calldatasize\n              sub\n                /* \"--CODEGEN--\":13:15   */\n              0x20\n                /* \"--CODEGEN--\":8:11   */\n              dup2\n                /* \"--CODEGEN--\":5:16   */\n              lt\n                /* \"--CODEGEN--\":2:4   */\n              iszero\n              tag_60\n              jumpi\n                /* \"--CODEGEN--\":29:30   */\n              0x00\n                /* \"--CODEGEN--\":26:27   */\n              dup1\n                /* \"--CODEGEN--\":19:31   */\n              revert\n                /* \"--CODEGEN--\":2:4   */\n            tag_60:\n                /* \"contracts/StakingRewardsFactory_flattened.sol\":19098:19155  mapping(address => uint256) public userRewardPerTokenPaid */\n              dup2\n              add\n              swap1\n              dup1\n              dup1\n              calldataload\n              0xffffffffffffffffffffffffffffffffffffffff\n              and\n              swap1\n              0x20\n              add\n              swap1\n              swap3\n              swap2\n              swap1\n              pop\n              pop\n              pop\n              tag_61\n              jump\t// in\n            tag_59:\n              mload(0x40)\n              dup1\n              dup3\n              dup2\n              mstore\n              0x20\n              add\n              swap2\n              pop\n              pop\n              mload(0x40)\n              dup1\n              swap2\n              sub\n              swap1\n              return\n                /* \"contracts/StakingRewardsFactory_flattened.sol\":21694:22085  function stake(uint256 amount)... */\n            tag_17:\n              tag_62\n              0x04\n              dup1\n              calldatasize\n              sub\n                /* \"--CODEGEN--\":13:15   */\n              0x20\n                /* \"--CODEGEN--\":8:11   */\n              dup2\n                /* \"--CODEGEN--\":5:16   */\n              lt\n                /* \"--CODEGEN--\":2:4   */\n              iszero\n              tag_63\n              jumpi\n                /* \"--CODEGEN--\":29:30   */\n              0x00\n                /* \"--CODEGEN--\":26:27   */\n              dup1\n                /* \"--CODEGEN--\":19:31   */\n              revert\n                /* \"--CODEGEN--\":2:4   */\n            tag_63:\n                /* \"contracts/StakingRewardsFactory_flattened.sol\":21694:22085  function stake(uint256 amount)... */\n              dup2\n              add\n              swap1\n              dup1\n              dup1\n              calldataload\n              swap1\n              0x20\n              add\n              swap1\n              swap3\n              swap2\n              swap1\n              pop\n              pop\n              pop\n              tag_64\n              jump\t// in\n            tag_62:\n              stop\n                /* \"contracts/StakingRewardsFactory_flattened.sol\":19021:19050  uint256 public lastUpdateTime */\n            tag_18:\n              tag_65\n              tag_66\n              jump\t// in\n            tag_65:\n              mload(0x40)\n              dup1\n              dup3\n              dup2\n              mstore\n              0x20\n              add\n              swap2\n              pop\n              pop\n              mload(0x40)\n              dup1\n              swap2\n              sub\n              swap1\n              return\n                /* \"contracts/StakingRewardsFactory_flattened.sol\":20143:20549  function rewardPerToken() public view returns (uint256) {... */\n            tag_19:\n              tag_67\n              tag_68\n              jump\t// in\n            tag_67:\n              mload(0x40)\n              dup1\n              dup3\n              dup2\n              mstore\n              0x20\n              add\n              swap2\n              pop\n              pop\n              mload(0x40)\n              dup1\n              swap2\n              sub\n              swap1\n              return\n                /* \"contracts/StakingRewardsFactory_flattened.sol\":18840:18866  IERC20 public rewardsToken */\n            tag_20:\n              tag_69\n              tag_70\n              jump\t// in\n            tag_69:\n              mload(0x40)\n              dup1\n              dup3\n              0xffffffffffffffffffffffffffffffffffffffff\n              and\n              0xffffffffffffffffffffffffffffffffffffffff\n              and\n              dup2\n              mstore\n              0x20\n              add\n              swap2\n              pop\n              pop\n              mload(0x40)\n              dup1\n              swap2\n              sub\n              swap1\n              return\n                /* \"contracts/StakingRewardsFactory_flattened.sol\":19056:19091  uint256 public rewardPerTokenStored */\n            tag_21:\n              tag_71\n              tag_72\n              jump\t// in\n            tag_71:\n              mload(0x40)\n              dup1\n              dup3\n              dup2\n              mstore\n              0x20\n              add\n              swap2\n              pop\n              pop\n              mload(0x40)\n              dup1\n              swap2\n              sub\n              swap1\n              return\n                /* \"contracts/StakingRewardsFactory_flattened.sol\":22782:22876  function exit() external {... */\n            tag_22:\n              tag_73\n              tag_74\n              jump\t// in\n            tag_73:\n              stop\n                /* \"contracts/StakingRewardsFactory_flattened.sol\":18904:18935  uint256 public periodFinish = 0 */\n            tag_23:\n              tag_75\n              tag_76\n              jump\t// in\n            tag_75:\n              mload(0x40)\n              dup1\n              dup3\n              dup2\n              mstore\n              0x20\n              add\n              swap2\n              pop\n              pop\n              mload(0x40)\n              dup1\n              swap2\n              sub\n              swap1\n              return\n                /* \"contracts/StakingRewardsFactory_flattened.sol\":20997:21688  function stakeWithPermit(... */\n            tag_24:\n              tag_77\n              0x04\n              dup1\n              calldatasize\n              sub\n                /* \"--CODEGEN--\":13:16   */\n              0xa0\n                /* \"--CODEGEN--\":8:11   */\n              dup2\n                /* \"--CODEGEN--\":5:17   */\n              lt\n                /* \"--CODEGEN--\":2:4   */\n              iszero\n              tag_78\n              jumpi\n                /* \"--CODEGEN--\":30:31   */\n              0x00\n                /* \"--CODEGEN--\":27:28   */\n              dup1\n                /* \"--CODEGEN--\":20:32   */\n              revert\n                /* \"--CODEGEN--\":2:4   */\n            tag_78:\n                /* \"contracts/StakingRewardsFactory_flattened.sol\":20997:21688  function stakeWithPermit(... */\n              dup2\n              add\n              swap1\n              dup1\n              dup1\n              calldataload\n              swap1\n              0x20\n              add\n              swap1\n              swap3\n              swap2\n              swap1\n              dup1\n              calldataload\n              swap1\n              0x20\n              add\n              swap1\n              swap3\n              swap2\n              swap1\n              dup1\n              calldataload\n              0xff\n              and\n              swap1\n              0x20\n              add\n              swap1\n              swap3\n              swap2\n              swap1\n              dup1\n              calldataload\n              swap1\n              0x20\n              add\n              swap1\n              swap3\n              swap2\n              swap1\n              dup1\n              calldataload\n              swap1\n              0x20\n              add\n              swap1\n              swap3\n              swap2\n              swap1\n              pop\n              pop\n              pop\n              tag_79\n              jump\t// in\n            tag_77:\n              stop\n                /* \"contracts/StakingRewardsFactory_flattened.sol\":20555:20814  function earned(address account) public view returns (uint256) {... */\n            tag_30:\n                /* \"contracts/StakingRewardsFactory_flattened.sol\":20609:20616  uint256 */\n              0x00\n                /* \"contracts/StakingRewardsFactory_flattened.sol\":20647:20807  _balances[account]... */\n              tag_81\n                /* \"contracts/StakingRewardsFactory_flattened.sol\":20790:20797  rewards */\n              0x0a\n                /* \"contracts/StakingRewardsFactory_flattened.sol\":20790:20806  rewards[account] */\n              0x00\n                /* \"contracts/StakingRewardsFactory_flattened.sol\":20798:20805  account */\n              dup5\n                /* \"contracts/StakingRewardsFactory_flattened.sol\":20790:20806  rewards[account] */\n              0xffffffffffffffffffffffffffffffffffffffff\n              and\n              0xffffffffffffffffffffffffffffffffffffffff\n              and\n              dup2\n              mstore\n              0x20\n              add\n              swap1\n              dup2\n              mstore\n              0x20\n              add\n              0x00\n              keccak256\n              sload\n                /* \"contracts/StakingRewardsFactory_flattened.sol\":20647:20768  _balances[account]... */\n              tag_82\n                /* \"contracts/StakingRewardsFactory_flattened.sol\":20763:20767  1e18 */\n              0x0de0b6b3a7640000\n                /* \"contracts/StakingRewardsFactory_flattened.sol\":20647:20741  _balances[account]... */\n              tag_83\n                /* \"contracts/StakingRewardsFactory_flattened.sol\":20687:20740  rewardPerToken().sub(userRewardPerTokenPaid[account]) */\n              tag_84\n                /* \"contracts/StakingRewardsFactory_flattened.sol\":20708:20730  userRewardPerTokenPaid */\n              0x09\n                /* \"contracts/StakingRewardsFactory_flattened.sol\":20708:20739  userRewardPerTokenPaid[account] */\n              0x00\n                /* \"contracts/StakingRewardsFactory_flattened.sol\":20731:20738  account */\n              dup10\n                /* \"contracts/StakingRewardsFactory_flattened.sol\":20708:20739  userRewardPerTokenPaid[account] */\n              0xffffffffffffffffffffffffffffffffffffffff\n              and\n              0xffffffffffffffffffffffffffffffffffffffff\n              and\n              dup2\n              mstore\n              0x20\n              add\n              swap1\n              dup2\n              mstore\n              0x20\n              add\n              0x00\n              keccak256\n              sload\n                /* \"contracts/StakingRewardsFactory_flattened.sol\":20687:20703  rewardPerToken() */\n              tag_85\n                /* \"contracts/StakingRewardsFactory_flattened.sol\":20687:20701  rewardPerToken */\n              tag_68\n                /* \"contracts/StakingRewardsFactory_flattened.sol\":20687:20703  rewardPerToken() */\n              jump\t// in\n            tag_85:\n                /* \"contracts/StakingRewardsFactory_flattened.sol\":20687:20707  rewardPerToken().sub */\n              tag_86\n              swap1\n                /* \"contracts/StakingRewardsFactory_flattened.sol\":20687:20740  rewardPerToken().sub(userRewardPerTokenPaid[account]) */\n              swap2\n              swap1\n              0xffffffff\n              and\n              jump\t// in\n            tag_84:\n                /* \"contracts/StakingRewardsFactory_flattened.sol\":20647:20656  _balances */\n              0x0c\n                /* \"contracts/StakingRewardsFactory_flattened.sol\":20647:20665  _balances[account] */\n              0x00\n                /* \"contracts/StakingRewardsFactory_flattened.sol\":20657:20664  account */\n              dup10\n                /* \"contracts/StakingRewardsFactory_flattened.sol\":20647:20665  _balances[account] */\n              0xffffffffffffffffffffffffffffffffffffffff\n              and\n              0xffffffffffffffffffffffffffffffffffffffff\n              and\n              dup2\n              mstore\n              0x20\n              add\n              swap1\n              dup2\n              mstore\n              0x20\n              add\n              0x00\n              keccak256\n              sload\n                /* \"contracts/StakingRewardsFactory_flattened.sol\":20647:20686  _balances[account]... */\n              tag_87\n              swap1\n                /* \"contracts/StakingRewardsFactory_flattened.sol\":20647:20741  _balances[account]... */\n              swap2\n              swap1\n              0xffffffff\n              and\n              jump\t// in\n            tag_83:\n                /* \"contracts/StakingRewardsFactory_flattened.sol\":20647:20762  _balances[account]... */\n              tag_88\n              swap1\n                /* \"contracts/StakingRewardsFactory_flattened.sol\":20647:20768  _balances[account]... */\n              swap2\n              swap1\n              0xffffffff\n              and\n              jump\t// in\n            tag_82:\n                /* \"contracts/StakingRewardsFactory_flattened.sol\":20647:20789  _balances[account]... */\n              tag_89\n              swap1\n                /* \"contracts/StakingRewardsFactory_flattened.sol\":20647:20807  _balances[account]... */\n              swap2\n              swap1\n              0xffffffff\n              and\n              jump\t// in\n            tag_81:\n                /* \"contracts/StakingRewardsFactory_flattened.sol\":20628:20807  return... */\n              swap1\n              pop\n                /* \"contracts/StakingRewardsFactory_flattened.sol\":20555:20814  function earned(address account) public view returns (uint256) {... */\n              swap2\n              swap1\n              pop\n              jump\t// out\n                /* \"contracts/StakingRewardsFactory_flattened.sol\":19161:19203  mapping(address => uint256) public rewards */\n            tag_33:\n              mstore(0x20, 0x0a)\n              dup1\n              0x00\n              mstore\n              keccak256(0x00, 0x40)\n              0x00\n              swap2\n              pop\n              swap1\n              pop\n              sload\n              dup2\n              jump\t// out\n                /* \"contracts/StakingRewardsFactory_flattened.sol\":19795:19886  function totalSupply() external view returns (uint256) {... */\n            tag_35:\n                /* \"contracts/StakingRewardsFactory_flattened.sol\":19841:19848  uint256 */\n              0x00\n                /* \"contracts/StakingRewardsFactory_flattened.sol\":19867:19879  _totalSupply */\n              sload(0x0b)\n                /* \"contracts/StakingRewardsFactory_flattened.sol\":19860:19879  return _totalSupply */\n              swap1\n              pop\n                /* \"contracts/StakingRewardsFactory_flattened.sol\":19795:19886  function totalSupply() external view returns (uint256) {... */\n              swap1\n              jump\t// out\n                /* \"contracts/StakingRewardsFactory_flattened.sol\":20820:20939  function getRewardForDuration() external view returns (uint256) {... */\n            tag_37:\n                /* \"contracts/StakingRewardsFactory_flattened.sol\":20875:20882  uint256 */\n              0x00\n                /* \"contracts/StakingRewardsFactory_flattened.sol\":20901:20932  rewardRate.mul(rewardsDuration) */\n              tag_92\n                /* \"contracts/StakingRewardsFactory_flattened.sol\":20916:20931  rewardsDuration */\n              sload(0x06)\n                /* \"contracts/StakingRewardsFactory_flattened.sol\":20901:20911  rewardRate */\n              sload(0x05)\n                /* \"contracts/StakingRewardsFactory_flattened.sol\":20901:20915  rewardRate.mul */\n              tag_87\n              swap1\n                /* \"contracts/StakingRewardsFactory_flattened.sol\":20901:20932  rewardRate.mul(rewardsDuration) */\n              swap2\n              swap1\n              0xffffffff\n              and\n              jump\t// in\n            tag_92:\n                /* \"contracts/StakingRewardsFactory_flattened.sol\":20894:20932  return rewardRate.mul(rewardsDuration) */\n              swap1\n              pop\n                /* \"contracts/StakingRewardsFactory_flattened.sol\":20820:20939  function getRewardForDuration() external view returns (uint256) {... */\n              swap1\n              jump\t// out\n                /* \"contracts/StakingRewardsFactory_flattened.sol\":22091:22470  function withdraw(uint256 amount)... */\n            tag_40:\n                /* \"contracts/StakingRewardsFactory_flattened.sol\":2504:2505  1 */\n              0x01\n                /* \"contracts/StakingRewardsFactory_flattened.sol\":2487:2500  _guardCounter */\n              dup1\n              0x00\n                /* \"contracts/StakingRewardsFactory_flattened.sol\":2487:2505  _guardCounter += 1 */\n              dup3\n              dup3\n              sload\n              add\n              swap3\n              pop\n              pop\n              dup2\n              swap1\n              sstore\n              pop\n                /* \"contracts/StakingRewardsFactory_flattened.sol\":2515:2535  uint256 localCounter */\n              0x00\n                /* \"contracts/StakingRewardsFactory_flattened.sol\":2538:2551  _guardCounter */\n              sload(0x01)\n                /* \"contracts/StakingRewardsFactory_flattened.sol\":2515:2551  uint256 localCounter = _guardCounter */\n              swap1\n              pop\n                /* \"contracts/StakingRewardsFactory_flattened.sol\":22182:22192  msg.sender */\n              caller\n                /* \"contracts/StakingRewardsFactory_flattened.sol\":24186:24202  rewardPerToken() */\n              tag_95\n                /* \"contracts/StakingRewardsFactory_flattened.sol\":24186:24200  rewardPerToken */\n              tag_68\n                /* \"contracts/StakingRewardsFactory_flattened.sol\":24186:24202  rewardPerToken() */\n              jump\t// in\n            tag_95:\n                /* \"contracts/StakingRewardsFactory_flattened.sol\":24163:24183  rewardPerTokenStored */\n              0x08\n                /* \"contracts/StakingRewardsFactory_flattened.sol\":24163:24202  rewardPerTokenStored = rewardPerToken() */\n              dup2\n              swap1\n              sstore\n              pop\n                /* \"contracts/StakingRewardsFactory_flattened.sol\":24229:24255  lastTimeRewardApplicable() */\n              tag_96\n                /* \"contracts/StakingRewardsFactory_flattened.sol\":24229:24253  lastTimeRewardApplicable */\n              tag_58\n                /* \"contracts/StakingRewardsFactory_flattened.sol\":24229:24255  lastTimeRewardApplicable() */\n              jump\t// in\n            tag_96:\n                /* \"contracts/StakingRewardsFactory_flattened.sol\":24212:24226  lastUpdateTime */\n              0x07\n                /* \"contracts/StakingRewardsFactory_flattened.sol\":24212:24255  lastUpdateTime = lastTimeRewardApplicable() */\n              dup2\n              swap1\n              sstore\n              pop\n                /* \"contracts/StakingRewardsFactory_flattened.sol\":24288:24289  0 */\n              0x00\n                /* \"contracts/StakingRewardsFactory_flattened.sol\":24269:24290  account != address(0) */\n              0xffffffffffffffffffffffffffffffffffffffff\n              and\n                /* \"contracts/StakingRewardsFactory_flattened.sol\":24269:24276  account */\n              dup2\n                /* \"contracts/StakingRewardsFactory_flattened.sol\":24269:24290  account != address(0) */\n              0xffffffffffffffffffffffffffffffffffffffff\n              and\n              eq\n                /* \"contracts/StakingRewardsFactory_flattened.sol\":24265:24419  if (account != address(0)) {... */\n              tag_97\n              jumpi\n                /* \"contracts/StakingRewardsFactory_flattened.sol\":24325:24340  earned(account) */\n              tag_98\n                /* \"contracts/StakingRewardsFactory_flattened.sol\":24332:24339  account */\n              dup2\n                /* \"contracts/StakingRewardsFactory_flattened.sol\":24325:24331  earned */\n              tag_30\n                /* \"contracts/StakingRewardsFactory_flattened.sol\":24325:24340  earned(account) */\n              jump\t// in\n            tag_98:\n                /* \"contracts/StakingRewardsFactory_flattened.sol\":24306:24313  rewards */\n              0x0a\n                /* \"contracts/StakingRewardsFactory_flattened.sol\":24306:24322  rewards[account] */\n              0x00\n                /* \"contracts/StakingRewardsFactory_flattened.sol\":24314:24321  account */\n              dup4\n                /* \"contracts/StakingRewardsFactory_flattened.sol\":24306:24322  rewards[account] */\n              0xffffffffffffffffffffffffffffffffffffffff\n              and\n              0xffffffffffffffffffffffffffffffffffffffff\n              and\n              dup2\n              mstore\n              0x20\n              add\n              swap1\n              dup2\n              mstore\n              0x20\n              add\n              0x00\n              keccak256\n                /* \"contracts/StakingRewardsFactory_flattened.sol\":24306:24340  rewards[account] = earned(account) */\n              dup2\n              swap1\n              sstore\n              pop\n                /* \"contracts/StakingRewardsFactory_flattened.sol\":24388:24408  rewardPerTokenStored */\n              sload(0x08)\n                /* \"contracts/StakingRewardsFactory_flattened.sol\":24354:24376  userRewardPerTokenPaid */\n              0x09\n                /* \"contracts/StakingRewardsFactory_flattened.sol\":24354:24385  userRewardPerTokenPaid[account] */\n              0x00\n                /* \"contracts/StakingRewardsFactory_flattened.sol\":24377:24384  account */\n              dup4\n                /* \"contracts/StakingRewardsFactory_flattened.sol\":24354:24385  userRewardPerTokenPaid[account] */\n              0xffffffffffffffffffffffffffffffffffffffff\n              and\n              0xffffffffffffffffffffffffffffffffffffffff\n              and\n              dup2\n              mstore\n              0x20\n              add\n              swap1\n              dup2\n              mstore\n              0x20\n              add\n              0x00\n              keccak256\n                /* \"contracts/StakingRewardsFactory_flattened.sol\":24354:24408  userRewardPerTokenPaid[account] = rewardPerTokenStored */\n              dup2\n              swap1\n              sstore\n              pop\n                /* \"contracts/StakingRewardsFactory_flattened.sol\":24265:24419  if (account != address(0)) {... */\n            tag_97:\n                /* \"contracts/StakingRewardsFactory_flattened.sol\":22225:22226  0 */\n              0x00\n                /* \"contracts/StakingRewardsFactory_flattened.sol\":22216:22222  amount */\n              dup4\n                /* \"contracts/StakingRewardsFactory_flattened.sol\":22216:22226  amount > 0 */\n              gt\n                /* \"contracts/StakingRewardsFactory_flattened.sol\":22208:22248  require(amount > 0, \"Cannot withdraw 0\") */\n              tag_100\n              jumpi\n              mload(0x40)\n              0x08c379a000000000000000000000000000000000000000000000000000000000\n              dup2\n              mstore\n              0x04\n              add\n              dup1\n              dup1\n              0x20\n              add\n              dup3\n              dup2\n              sub\n              dup3\n              mstore\n              0x11\n              dup2\n              mstore\n              0x20\n              add\n              dup1\n              0x43616e6e6f742077697468647261772030000000000000000000000000000000\n              dup2\n              mstore\n              pop\n              0x20\n              add\n              swap2\n              pop\n              pop\n              mload(0x40)\n              dup1\n              swap2\n              sub\n              swap1\n              revert\n            tag_100:\n                /* \"contracts/StakingRewardsFactory_flattened.sol\":22273:22297  _totalSupply.sub(amount) */\n              tag_101\n                /* \"contracts/StakingRewardsFactory_flattened.sol\":22290:22296  amount */\n              dup4\n                /* \"contracts/StakingRewardsFactory_flattened.sol\":22273:22285  _totalSupply */\n              sload(0x0b)\n                /* \"contracts/StakingRewardsFactory_flattened.sol\":22273:22289  _totalSupply.sub */\n              tag_86\n              swap1\n                /* \"contracts/StakingRewardsFactory_flattened.sol\":22273:22297  _totalSupply.sub(amount) */\n              swap2\n              swap1\n              0xffffffff\n              and\n              jump\t// in\n            tag_101:\n                /* \"contracts/StakingRewardsFactory_flattened.sol\":22258:22270  _totalSupply */\n              0x0b\n                /* \"contracts/StakingRewardsFactory_flattened.sol\":22258:22297  _totalSupply = _totalSupply.sub(amount) */\n              dup2\n              swap1\n              sstore\n              pop\n                /* \"contracts/StakingRewardsFactory_flattened.sol\":22331:22364  _balances[msg.sender].sub(amount) */\n              tag_102\n                /* \"contracts/StakingRewardsFactory_flattened.sol\":22357:22363  amount */\n              dup4\n                /* \"contracts/StakingRewardsFactory_flattened.sol\":22331:22340  _balances */\n              0x0c\n                /* \"contracts/StakingRewardsFactory_flattened.sol\":22331:22352  _balances[msg.sender] */\n              0x00\n                /* \"contracts/StakingRewardsFactory_flattened.sol\":22341:22351  msg.sender */\n              caller\n                /* \"contracts/StakingRewardsFactory_flattened.sol\":22331:22352  _balances[msg.sender] */\n              0xffffffffffffffffffffffffffffffffffffffff\n              and\n              0xffffffffffffffffffffffffffffffffffffffff\n              and\n              dup2\n              mstore\n              0x20\n              add\n              swap1\n              dup2\n              mstore\n              0x20\n              add\n              0x00\n              keccak256\n              sload\n                /* \"contracts/StakingRewardsFactory_flattened.sol\":22331:22356  _balances[msg.sender].sub */\n              tag_86\n              swap1\n                /* \"contracts/StakingRewardsFactory_flattened.sol\":22331:22364  _balances[msg.sender].sub(amount) */\n              swap2\n              swap1\n              0xffffffff\n              and\n              jump\t// in\n            tag_102:\n                /* \"contracts/StakingRewardsFactory_flattened.sol\":22307:22316  _balances */\n              0x0c\n                /* \"contracts/StakingRewardsFactory_flattened.sol\":22307:22328  _balances[msg.sender] */\n              0x00\n                /* \"contracts/StakingRewardsFactory_flattened.sol\":22317:22327  msg.sender */\n              caller\n                /* \"contracts/StakingRewardsFactory_flattened.sol\":22307:22328  _balances[msg.sender] */\n              0xffffffffffffffffffffffffffffffffffffffff\n              and\n              0xffffffffffffffffffffffffffffffffffffffff\n              and\n              dup2\n              mstore\n              0x20\n              add\n              swap1\n              dup2\n              mstore\n              0x20\n              add\n              0x00\n              keccak256\n                /* \"contracts/StakingRewardsFactory_flattened.sol\":22307:22364  _balances[msg.sender] = _balances[msg.sender].sub(amount) */\n              dup2\n              swap1\n              sstore\n              pop\n                /* \"contracts/StakingRewardsFactory_flattened.sol\":22374:22419  stakingToken.safeTransfer(msg.sender, amount) */\n              tag_103\n                /* \"contracts/StakingRewardsFactory_flattened.sol\":22400:22410  msg.sender */\n              caller\n                /* \"contracts/StakingRewardsFactory_flattened.sol\":22412:22418  amount */\n              dup5\n                /* \"contracts/StakingRewardsFactory_flattened.sol\":22374:22386  stakingToken */\n              0x03\n              0x00\n              swap1\n              sload\n              swap1\n              0x0100\n              exp\n              swap1\n              div\n              0xffffffffffffffffffffffffffffffffffffffff\n              and\n                /* \"contracts/StakingRewardsFactory_flattened.sol\":22374:22399  stakingToken.safeTransfer */\n              0xffffffffffffffffffffffffffffffffffffffff\n              and\n              tag_104\n              swap1\n                /* \"contracts/StakingRewardsFactory_flattened.sol\":22374:22419  stakingToken.safeTransfer(msg.sender, amount) */\n              swap3\n              swap2\n              swap1\n              0xffffffff\n              and\n              jump\t// in\n            tag_103:\n                /* \"contracts/StakingRewardsFactory_flattened.sol\":22444:22454  msg.sender */\n              caller\n                /* \"contracts/StakingRewardsFactory_flattened.sol\":22434:22463  Withdrawn(msg.sender, amount) */\n              0xffffffffffffffffffffffffffffffffffffffff\n              and\n              0x7084f5476618d8e60b11ef0d7d3f06914655adb8793e28ff7f018d4c76d505d5\n                /* \"contracts/StakingRewardsFactory_flattened.sol\":22456:22462  amount */\n              dup5\n                /* \"contracts/StakingRewardsFactory_flattened.sol\":22434:22463  Withdrawn(msg.sender, amount) */\n              mload(0x40)\n              dup1\n              dup3\n              dup2\n              mstore\n              0x20\n              add\n              swap2\n              pop\n              pop\n              mload(0x40)\n              dup1\n              swap2\n              sub\n              swap1\n              log2\n                /* \"contracts/StakingRewardsFactory_flattened.sol\":2561:2562  _ */\n              pop\n                /* \"contracts/StakingRewardsFactory_flattened.sol\":2596:2609  _guardCounter */\n              sload(0x01)\n                /* \"contracts/StakingRewardsFactory_flattened.sol\":2580:2592  localCounter */\n              dup2\n                /* \"contracts/StakingRewardsFactory_flattened.sol\":2580:2609  localCounter == _guardCounter */\n              eq\n                /* \"contracts/StakingRewardsFactory_flattened.sol\":2572:2645  require(localCounter == _guardCounter, \"ReentrancyGuard: reentrant call\") */\n              tag_105\n              jumpi\n              mload(0x40)\n              0x08c379a000000000000000000000000000000000000000000000000000000000\n              dup2\n              mstore\n              0x04\n              add\n              dup1\n              dup1\n              0x20\n              add\n              dup3\n              dup2\n              sub\n              dup3\n              mstore\n              0x1f\n              dup2\n              mstore\n              0x20\n              add\n              dup1\n              0x5265656e7472616e637947756172643a207265656e7472616e742063616c6c00\n              dup2\n              mstore\n              pop\n              0x20\n              add\n              swap2\n              pop\n              pop\n              mload(0x40)\n              dup1\n              swap2\n              sub\n              swap1\n              revert\n            tag_105:\n                /* \"contracts/StakingRewardsFactory_flattened.sol\":22091:22470  function withdraw(uint256 amount)... */\n              pop\n              pop\n              jump\t// out\n                /* \"contracts/StakingRewardsFactory_flattened.sol\":18976:19015  uint256 public rewardsDuration = 0 days */\n            tag_42:\n              sload(0x06)\n              dup2\n              jump\t// out\n                /* \"contracts/StakingRewardsFactory_flattened.sol\":22936:24065  function notifyRewardAmount(uint256 reward)... */\n            tag_45:\n                /* \"contracts/StakingRewardsFactory_flattened.sol\":303:322  rewardsDistribution */\n              0x00\n              dup1\n              swap1\n              sload\n              swap1\n              0x0100\n              exp\n              swap1\n              div\n              0xffffffffffffffffffffffffffffffffffffffff\n              and\n                /* \"contracts/StakingRewardsFactory_flattened.sol\":289:322  msg.sender == rewardsDistribution */\n              0xffffffffffffffffffffffffffffffffffffffff\n              and\n                /* \"contracts/StakingRewardsFactory_flattened.sol\":289:299  msg.sender */\n              caller\n                /* \"contracts/StakingRewardsFactory_flattened.sol\":289:322  msg.sender == rewardsDistribution */\n              0xffffffffffffffffffffffffffffffffffffffff\n              and\n              eq\n                /* \"contracts/StakingRewardsFactory_flattened.sol\":268:390  require(... */\n              tag_107\n              jumpi\n              mload(0x40)\n              0x08c379a000000000000000000000000000000000000000000000000000000000\n              dup2\n              mstore\n              0x04\n              add\n              dup1\n              dup1\n              0x20\n              add\n              dup3\n              dup2\n              sub\n              dup3\n              mstore\n              0x2a\n              dup2\n              mstore\n              0x20\n              add\n              dup1\n              data_d50b095422f4cbfcb4c90fbd4d55aaf0967bf1d90e94bb6a1ae9fc4ee7e733de\n              0x2a\n              swap2\n              codecopy\n              0x40\n              add\n              swap2\n              pop\n              pop\n              mload(0x40)\n              dup1\n              swap2\n              sub\n              swap1\n              revert\n            tag_107:\n                /* \"contracts/StakingRewardsFactory_flattened.sol\":23058:23059  0 */\n              0x00\n                /* \"contracts/StakingRewardsFactory_flattened.sol\":24186:24202  rewardPerToken() */\n              tag_109\n                /* \"contracts/StakingRewardsFactory_flattened.sol\":24186:24200  rewardPerToken */\n              tag_68\n                /* \"contracts/StakingRewardsFactory_flattened.sol\":24186:24202  rewardPerToken() */\n              jump\t// in\n            tag_109:\n                /* \"contracts/StakingRewardsFactory_flattened.sol\":24163:24183  rewardPerTokenStored */\n              0x08\n                /* \"contracts/StakingRewardsFactory_flattened.sol\":24163:24202  rewardPerTokenStored = rewardPerToken() */\n              dup2\n              swap1\n              sstore\n              pop\n                /* \"contracts/StakingRewardsFactory_flattened.sol\":24229:24255  lastTimeRewardApplicable() */\n              tag_110\n                /* \"contracts/StakingRewardsFactory_flattened.sol\":24229:24253  lastTimeRewardApplicable */\n              tag_58\n                /* \"contracts/StakingRewardsFactory_flattened.sol\":24229:24255  lastTimeRewardApplicable() */\n              jump\t// in\n            tag_110:\n                /* \"contracts/StakingRewardsFactory_flattened.sol\":24212:24226  lastUpdateTime */\n              0x07\n                /* \"contracts/StakingRewardsFactory_flattened.sol\":24212:24255  lastUpdateTime = lastTimeRewardApplicable() */\n              dup2\n              swap1\n              sstore\n              pop\n                /* \"contracts/StakingRewardsFactory_flattened.sol\":24288:24289  0 */\n              0x00\n                /* \"contracts/StakingRewardsFactory_flattened.sol\":24269:24290  account != address(0) */\n              0xffffffffffffffffffffffffffffffffffffffff\n              and\n                /* \"contracts/StakingRewardsFactory_flattened.sol\":24269:24276  account */\n              dup2\n                /* \"contracts/StakingRewardsFactory_flattened.sol\":24269:24290  account != address(0) */\n              0xffffffffffffffffffffffffffffffffffffffff\n              and\n              eq\n                /* \"contracts/StakingRewardsFactory_flattened.sol\":24265:24419  if (account != address(0)) {... */\n              tag_111\n              jumpi\n                /* \"contracts/StakingRewardsFactory_flattened.sol\":24325:24340  earned(account) */\n              tag_112\n                /* \"contracts/StakingRewardsFactory_flattened.sol\":24332:24339  account */\n              dup2\n                /* \"contracts/StakingRewardsFactory_flattened.sol\":24325:24331  earned */\n              tag_30\n                /* \"contracts/StakingRewardsFactory_flattened.sol\":24325:24340  earned(account) */\n              jump\t// in\n            tag_112:\n                /* \"contracts/StakingRewardsFactory_flattened.sol\":24306:24313  rewards */\n              0x0a\n                /* \"contracts/StakingRewardsFactory_flattened.sol\":24306:24322  rewards[account] */\n              0x00\n                /* \"contracts/StakingRewardsFactory_flattened.sol\":24314:24321  account */\n              dup4\n                /* \"contracts/StakingRewardsFactory_flattened.sol\":24306:24322  rewards[account] */\n              0xffffffffffffffffffffffffffffffffffffffff\n              and\n              0xffffffffffffffffffffffffffffffffffffffff\n              and\n              dup2\n              mstore\n              0x20\n              add\n              swap1\n              dup2\n              mstore\n              0x20\n              add\n              0x00\n              keccak256\n                /* \"contracts/StakingRewardsFactory_flattened.sol\":24306:24340  rewards[account] = earned(account) */\n              dup2\n              swap1\n              sstore\n              pop\n                /* \"contracts/StakingRewardsFactory_flattened.sol\":24388:24408  rewardPerTokenStored */\n              sload(0x08)\n                /* \"contracts/StakingRewardsFactory_flattened.sol\":24354:24376  userRewardPerTokenPaid */\n              0x09\n                /* \"contracts/StakingRewardsFactory_flattened.sol\":24354:24385  userRewardPerTokenPaid[account] */\n              0x00\n                /* \"contracts/StakingRewardsFactory_flattened.sol\":24377:24384  account */\n              dup4\n                /* \"contracts/StakingRewardsFactory_flattened.sol\":24354:24385  userRewardPerTokenPaid[account] */\n              0xffffffffffffffffffffffffffffffffffffffff\n              and\n              0xffffffffffffffffffffffffffffffffffffffff\n              and\n              dup2\n              mstore\n              0x20\n              add\n              swap1\n              dup2\n              mstore\n              0x20\n              add\n              0x00\n              keccak256\n                /* \"contracts/StakingRewardsFactory_flattened.sol\":24354:24408  userRewardPerTokenPaid[account] = rewardPerTokenStored */\n              dup2\n              swap1\n              sstore\n              pop\n                /* \"contracts/StakingRewardsFactory_flattened.sol\":24265:24419  if (account != address(0)) {... */\n            tag_111:\n                /* \"contracts/StakingRewardsFactory_flattened.sol\":23099:23111  periodFinish */\n              sload(0x04)\n                /* \"contracts/StakingRewardsFactory_flattened.sol\":23080:23095  block.timestamp */\n              timestamp\n                /* \"contracts/StakingRewardsFactory_flattened.sol\":23080:23111  block.timestamp >= periodFinish */\n              lt\n                /* \"contracts/StakingRewardsFactory_flattened.sol\":23076:23388  if (block.timestamp >= periodFinish) {... */\n              tag_114\n              jumpi\n                /* \"contracts/StakingRewardsFactory_flattened.sol\":23140:23167  reward.div(rewardsDuration) */\n              tag_115\n                /* \"contracts/StakingRewardsFactory_flattened.sol\":23151:23166  rewardsDuration */\n              sload(0x06)\n                /* \"contracts/StakingRewardsFactory_flattened.sol\":23140:23146  reward */\n              dup4\n                /* \"contracts/StakingRewardsFactory_flattened.sol\":23140:23150  reward.div */\n              tag_88\n              swap1\n                /* \"contracts/StakingRewardsFactory_flattened.sol\":23140:23167  reward.div(rewardsDuration) */\n              swap2\n              swap1\n              0xffffffff\n              and\n              jump\t// in\n            tag_115:\n                /* \"contracts/StakingRewardsFactory_flattened.sol\":23127:23137  rewardRate */\n              0x05\n                /* \"contracts/StakingRewardsFactory_flattened.sol\":23127:23167  rewardRate = reward.div(rewardsDuration) */\n              dup2\n              swap1\n              sstore\n              pop\n                /* \"contracts/StakingRewardsFactory_flattened.sol\":23076:23388  if (block.timestamp >= periodFinish) {... */\n              jump(tag_116)\n            tag_114:\n                /* \"contracts/StakingRewardsFactory_flattened.sol\":23198:23215  uint256 remaining */\n              0x00\n                /* \"contracts/StakingRewardsFactory_flattened.sol\":23218:23251  periodFinish.sub(block.timestamp) */\n              tag_117\n                /* \"contracts/StakingRewardsFactory_flattened.sol\":23235:23250  block.timestamp */\n              timestamp\n                /* \"contracts/StakingRewardsFactory_flattened.sol\":23218:23230  periodFinish */\n              sload(0x04)\n                /* \"contracts/StakingRewardsFactory_flattened.sol\":23218:23234  periodFinish.sub */\n              tag_86\n              swap1\n                /* \"contracts/StakingRewardsFactory_flattened.sol\":23218:23251  periodFinish.sub(block.timestamp) */\n              swap2\n              swap1\n              0xffffffff\n              and\n              jump\t// in\n            tag_117:\n                /* \"contracts/StakingRewardsFactory_flattened.sol\":23198:23251  uint256 remaining = periodFinish.sub(block.timestamp) */\n              swap1\n              pop\n                /* \"contracts/StakingRewardsFactory_flattened.sol\":23265:23281  uint256 leftover */\n              0x00\n                /* \"contracts/StakingRewardsFactory_flattened.sol\":23284:23309  remaining.mul(rewardRate) */\n              tag_118\n                /* \"contracts/StakingRewardsFactory_flattened.sol\":23298:23308  rewardRate */\n              sload(0x05)\n                /* \"contracts/StakingRewardsFactory_flattened.sol\":23284:23293  remaining */\n              dup4\n                /* \"contracts/StakingRewardsFactory_flattened.sol\":23284:23297  remaining.mul */\n              tag_87\n              swap1\n                /* \"contracts/StakingRewardsFactory_flattened.sol\":23284:23309  remaining.mul(rewardRate) */\n              swap2\n              swap1\n              0xffffffff\n              and\n              jump\t// in\n            tag_118:\n                /* \"contracts/StakingRewardsFactory_flattened.sol\":23265:23309  uint256 leftover = remaining.mul(rewardRate) */\n              swap1\n              pop\n                /* \"contracts/StakingRewardsFactory_flattened.sol\":23336:23377  reward.add(leftover).div(rewardsDuration) */\n              tag_119\n                /* \"contracts/StakingRewardsFactory_flattened.sol\":23361:23376  rewardsDuration */\n              sload(0x06)\n                /* \"contracts/StakingRewardsFactory_flattened.sol\":23336:23356  reward.add(leftover) */\n              tag_120\n                /* \"contracts/StakingRewardsFactory_flattened.sol\":23347:23355  leftover */\n              dup4\n                /* \"contracts/StakingRewardsFactory_flattened.sol\":23336:23342  reward */\n              dup8\n                /* \"contracts/StakingRewardsFactory_flattened.sol\":23336:23346  reward.add */\n              tag_89\n              swap1\n                /* \"contracts/StakingRewardsFactory_flattened.sol\":23336:23356  reward.add(leftover) */\n              swap2\n              swap1\n              0xffffffff\n              and\n              jump\t// in\n            tag_120:\n                /* \"contracts/StakingRewardsFactory_flattened.sol\":23336:23360  reward.add(leftover).div */\n              tag_88\n              swap1\n                /* \"contracts/StakingRewardsFactory_flattened.sol\":23336:23377  reward.add(leftover).div(rewardsDuration) */\n              swap2\n              swap1\n              0xffffffff\n              and\n              jump\t// in\n            tag_119:\n                /* \"contracts/StakingRewardsFactory_flattened.sol\":23323:23333  rewardRate */\n              0x05\n                /* \"contracts/StakingRewardsFactory_flattened.sol\":23323:23377  rewardRate = reward.add(leftover).div(rewardsDuration) */\n              dup2\n              swap1\n              sstore\n              pop\n                /* \"contracts/StakingRewardsFactory_flattened.sol\":23076:23388  if (block.timestamp >= periodFinish) {... */\n              pop\n              pop\n            tag_116:\n                /* \"contracts/StakingRewardsFactory_flattened.sol\":23742:23757  uint256 balance */\n              0x00\n                /* \"contracts/StakingRewardsFactory_flattened.sol\":23760:23772  rewardsToken */\n              0x02\n              0x00\n              swap1\n              sload\n              swap1\n              0x0100\n              exp\n              swap1\n              div\n              0xffffffffffffffffffffffffffffffffffffffff\n              and\n                /* \"contracts/StakingRewardsFactory_flattened.sol\":23760:23782  rewardsToken.balanceOf */\n              0xffffffffffffffffffffffffffffffffffffffff\n              and\n              0x70a08231\n                /* \"contracts/StakingRewardsFactory_flattened.sol\":23791:23795  this */\n              address\n                /* \"contracts/StakingRewardsFactory_flattened.sol\":23760:23797  rewardsToken.balanceOf(address(this)) */\n              mload(0x40)\n              dup3\n              0xffffffff\n              and\n              0xe0\n              shl\n              dup2\n              mstore\n              0x04\n              add\n              dup1\n              dup3\n              0xffffffffffffffffffffffffffffffffffffffff\n              and\n              0xffffffffffffffffffffffffffffffffffffffff\n              and\n              dup2\n              mstore\n              0x20\n              add\n              swap2\n              pop\n              pop\n              0x20\n              mload(0x40)\n              dup1\n              dup4\n              sub\n              dup2\n              dup7\n              dup1\n              extcodesize\n              iszero\n                /* \"--CODEGEN--\":8:17   */\n              dup1\n                /* \"--CODEGEN--\":5:7   */\n              iszero\n              tag_121\n              jumpi\n                /* \"--CODEGEN--\":30:31   */\n              0x00\n                /* \"--CODEGEN--\":27:28   */\n              dup1\n                /* \"--CODEGEN--\":20:32   */\n              revert\n                /* \"--CODEGEN--\":5:7   */\n            tag_121:\n                /* \"contracts/StakingRewardsFactory_flattened.sol\":23760:23797  rewardsToken.balanceOf(address(this)) */\n              pop\n              gas\n              staticcall\n              iszero\n                /* \"--CODEGEN--\":8:17   */\n              dup1\n                /* \"--CODEGEN--\":5:7   */\n              iszero\n              tag_122\n              jumpi\n                /* \"--CODEGEN--\":45:61   */\n              returndatasize\n                /* \"--CODEGEN--\":42:43   */\n              0x00\n                /* \"--CODEGEN--\":39:40   */\n              dup1\n                /* \"--CODEGEN--\":24:62   */\n              returndatacopy\n                /* \"--CODEGEN--\":77:93   */\n              returndatasize\n                /* \"--CODEGEN--\":74:75   */\n              0x00\n                /* \"--CODEGEN--\":67:94   */\n              revert\n                /* \"--CODEGEN--\":5:7   */\n            tag_122:\n                /* \"contracts/StakingRewardsFactory_flattened.sol\":23760:23797  rewardsToken.balanceOf(address(this)) */\n              pop\n              pop\n              pop\n              pop\n              mload(0x40)\n              returndatasize\n                /* \"--CODEGEN--\":13:15   */\n              0x20\n                /* \"--CODEGEN--\":8:11   */\n              dup2\n                /* \"--CODEGEN--\":5:16   */\n              lt\n                /* \"--CODEGEN--\":2:4   */\n              iszero\n              tag_123\n              jumpi\n                /* \"--CODEGEN--\":29:30   */\n              0x00\n                /* \"--CODEGEN--\":26:27   */\n              dup1\n                /* \"--CODEGEN--\":19:31   */\n              revert\n                /* \"--CODEGEN--\":2:4   */\n            tag_123:\n                /* \"contracts/StakingRewardsFactory_flattened.sol\":23760:23797  rewardsToken.balanceOf(address(this)) */\n              dup2\n              add\n              swap1\n              dup1\n              dup1\n              mload\n              swap1\n              0x20\n              add\n              swap1\n              swap3\n              swap2\n              swap1\n              pop\n              pop\n              pop\n                /* \"contracts/StakingRewardsFactory_flattened.sol\":23742:23797  uint256 balance = rewardsToken.balanceOf(address(this)) */\n              swap1\n              pop\n                /* \"contracts/StakingRewardsFactory_flattened.sol\":23842:23870  balance.div(rewardsDuration) */\n              tag_124\n                /* \"contracts/StakingRewardsFactory_flattened.sol\":23854:23869  rewardsDuration */\n              sload(0x06)\n                /* \"contracts/StakingRewardsFactory_flattened.sol\":23842:23849  balance */\n              dup3\n                /* \"contracts/StakingRewardsFactory_flattened.sol\":23842:23853  balance.div */\n              tag_88\n              swap1\n                /* \"contracts/StakingRewardsFactory_flattened.sol\":23842:23870  balance.div(rewardsDuration) */\n              swap2\n              swap1\n              0xffffffff\n              and\n              jump\t// in\n            tag_124:\n                /* \"contracts/StakingRewardsFactory_flattened.sol\":23828:23838  rewardRate */\n              sload(0x05)\n                /* \"contracts/StakingRewardsFactory_flattened.sol\":23828:23870  rewardRate <= balance.div(rewardsDuration) */\n              gt\n              iszero\n                /* \"contracts/StakingRewardsFactory_flattened.sol\":23807:23920  require(... */\n              tag_125\n              jumpi\n              mload(0x40)\n              0x08c379a000000000000000000000000000000000000000000000000000000000\n              dup2\n              mstore\n              0x04\n              add\n              dup1\n              dup1\n              0x20\n              add\n              dup3\n              dup2\n              sub\n              dup3\n              mstore\n              0x18\n              dup2\n              mstore\n              0x20\n              add\n              dup1\n              0x50726f76696465642072657761726420746f6f20686967680000000000000000\n              dup2\n              mstore\n              pop\n              0x20\n              add\n              swap2\n              pop\n              pop\n              mload(0x40)\n              dup1\n              swap2\n              sub\n              swap1\n              revert\n            tag_125:\n                /* \"contracts/StakingRewardsFactory_flattened.sol\":23948:23963  block.timestamp */\n              timestamp\n                /* \"contracts/StakingRewardsFactory_flattened.sol\":23931:23945  lastUpdateTime */\n              0x07\n                /* \"contracts/StakingRewardsFactory_flattened.sol\":23931:23963  lastUpdateTime = block.timestamp */\n              dup2\n              swap1\n              sstore\n              pop\n                /* \"contracts/StakingRewardsFactory_flattened.sol\":23988:24024  block.timestamp.add(rewardsDuration) */\n              tag_126\n                /* \"contracts/StakingRewardsFactory_flattened.sol\":24008:24023  rewardsDuration */\n              sload(0x06)\n                /* \"contracts/StakingRewardsFactory_flattened.sol\":23988:24003  block.timestamp */\n              timestamp\n                /* \"contracts/StakingRewardsFactory_flattened.sol\":23988:24007  block.timestamp.add */\n              tag_89\n              swap1\n                /* \"contracts/StakingRewardsFactory_flattened.sol\":23988:24024  block.timestamp.add(rewardsDuration) */\n              swap2\n              swap1\n              0xffffffff\n              and\n              jump\t// in\n            tag_126:\n                /* \"contracts/StakingRewardsFactory_flattened.sol\":23973:23985  periodFinish */\n              0x04\n                /* \"contracts/StakingRewardsFactory_flattened.sol\":23973:24024  periodFinish = block.timestamp.add(rewardsDuration) */\n              dup2\n              swap1\n              sstore\n              pop\n                /* \"contracts/StakingRewardsFactory_flattened.sol\":24039:24058  RewardAdded(reward) */\n              0xde88a922e0d3b88b24e9623efeb464919c6bf9f66857a65e2bfcf2ce87a9433d\n                /* \"contracts/StakingRewardsFactory_flattened.sol\":24051:24057  reward */\n              dup4\n                /* \"contracts/StakingRewardsFactory_flattened.sol\":24039:24058  RewardAdded(reward) */\n              mload(0x40)\n              dup1\n              dup3\n              dup2\n              mstore\n              0x20\n              add\n              swap2\n              pop\n              pop\n              mload(0x40)\n              dup1\n              swap2\n              sub\n              swap1\n              log1\n                /* \"contracts/StakingRewardsFactory_flattened.sol\":24428:24429  _ */\n              pop\n                /* \"contracts/StakingRewardsFactory_flattened.sol\":400:401  _ */\n              pop\n                /* \"contracts/StakingRewardsFactory_flattened.sol\":22936:24065  function notifyRewardAmount(uint256 reward)... */\n              pop\n              jump\t// out\n                /* \"contracts/StakingRewardsFactory_flattened.sol\":22476:22776  function getReward() public nonReentrant updateReward(msg.sender) {... */\n            tag_47:\n                /* \"contracts/StakingRewardsFactory_flattened.sol\":2504:2505  1 */\n              0x01\n                /* \"contracts/StakingRewardsFactory_flattened.sol\":2487:2500  _guardCounter */\n              dup1\n              0x00\n                /* \"contracts/StakingRewardsFactory_flattened.sol\":2487:2505  _guardCounter += 1 */\n              dup3\n              dup3\n              sload\n              add\n              swap3\n              pop\n              pop\n              dup2\n              swap1\n              sstore\n              pop\n                /* \"contracts/StakingRewardsFactory_flattened.sol\":2515:2535  uint256 localCounter */\n              0x00\n                /* \"contracts/StakingRewardsFactory_flattened.sol\":2538:2551  _guardCounter */\n              sload(0x01)\n                /* \"contracts/StakingRewardsFactory_flattened.sol\":2515:2551  uint256 localCounter = _guardCounter */\n              swap1\n              pop\n                /* \"contracts/StakingRewardsFactory_flattened.sol\":22530:22540  msg.sender */\n              caller\n                /* \"contracts/StakingRewardsFactory_flattened.sol\":24186:24202  rewardPerToken() */\n              tag_129\n                /* \"contracts/StakingRewardsFactory_flattened.sol\":24186:24200  rewardPerToken */\n              tag_68\n                /* \"contracts/StakingRewardsFactory_flattened.sol\":24186:24202  rewardPerToken() */\n              jump\t// in\n            tag_129:\n                /* \"contracts/StakingRewardsFactory_flattened.sol\":24163:24183  rewardPerTokenStored */\n              0x08\n                /* \"contracts/StakingRewardsFactory_flattened.sol\":24163:24202  rewardPerTokenStored = rewardPerToken() */\n              dup2\n              swap1\n              sstore\n              pop\n                /* \"contracts/StakingRewardsFactory_flattened.sol\":24229:24255  lastTimeRewardApplicable() */\n              tag_130\n                /* \"contracts/StakingRewardsFactory_flattened.sol\":24229:24253  lastTimeRewardApplicable */\n              tag_58\n                /* \"contracts/StakingRewardsFactory_flattened.sol\":24229:24255  lastTimeRewardApplicable() */\n              jump\t// in\n            tag_130:\n                /* \"contracts/StakingRewardsFactory_flattened.sol\":24212:24226  lastUpdateTime */\n              0x07\n                /* \"contracts/StakingRewardsFactory_flattened.sol\":24212:24255  lastUpdateTime = lastTimeRewardApplicable() */\n              dup2\n              swap1\n              sstore\n              pop\n                /* \"contracts/StakingRewardsFactory_flattened.sol\":24288:24289  0 */\n              0x00\n                /* \"contracts/StakingRewardsFactory_flattened.sol\":24269:24290  account != address(0) */\n              0xffffffffffffffffffffffffffffffffffffffff\n              and\n                /* \"contracts/StakingRewardsFactory_flattened.sol\":24269:24276  account */\n              dup2\n                /* \"contracts/StakingRewardsFactory_flattened.sol\":24269:24290  account != address(0) */\n              0xffffffffffffffffffffffffffffffffffffffff\n              and\n              eq\n                /* \"contracts/StakingRewardsFactory_flattened.sol\":24265:24419  if (account != address(0)) {... */\n              tag_131\n              jumpi\n                /* \"contracts/StakingRewardsFactory_flattened.sol\":24325:24340  earned(account) */\n              tag_132\n                /* \"contracts/StakingRewardsFactory_flattened.sol\":24332:24339  account */\n              dup2\n                /* \"contracts/StakingRewardsFactory_flattened.sol\":24325:24331  earned */\n              tag_30\n                /* \"contracts/StakingRewardsFactory_flattened.sol\":24325:24340  earned(account) */\n              jump\t// in\n            tag_132:\n                /* \"contracts/StakingRewardsFactory_flattened.sol\":24306:24313  rewards */\n              0x0a\n                /* \"contracts/StakingRewardsFactory_flattened.sol\":24306:24322  rewards[account] */\n              0x00\n                /* \"contracts/StakingRewardsFactory_flattened.sol\":24314:24321  account */\n              dup4\n                /* \"contracts/StakingRewardsFactory_flattened.sol\":24306:24322  rewards[account] */\n              0xffffffffffffffffffffffffffffffffffffffff\n              and\n              0xffffffffffffffffffffffffffffffffffffffff\n              and\n              dup2\n              mstore\n              0x20\n              add\n              swap1\n              dup2\n              mstore\n              0x20\n              add\n              0x00\n              keccak256\n                /* \"contracts/StakingRewardsFactory_flattened.sol\":24306:24340  rewards[account] = earned(account) */\n              dup2\n              swap1\n              sstore\n              pop\n                /* \"contracts/StakingRewardsFactory_flattened.sol\":24388:24408  rewardPerTokenStored */\n              sload(0x08)\n                /* \"contracts/StakingRewardsFactory_flattened.sol\":24354:24376  userRewardPerTokenPaid */\n              0x09\n                /* \"contracts/StakingRewardsFactory_flattened.sol\":24354:24385  userRewardPerTokenPaid[account] */\n              0x00\n                /* \"contracts/StakingRewardsFactory_flattened.sol\":24377:24384  account */\n              dup4\n                /* \"contracts/StakingRewardsFactory_flattened.sol\":24354:24385  userRewardPerTokenPaid[account] */\n              0xffffffffffffffffffffffffffffffffffffffff\n              and\n              0xffffffffffffffffffffffffffffffffffffffff\n              and\n              dup2\n              mstore\n              0x20\n              add\n              swap1\n              dup2\n              mstore\n              0x20\n              add\n              0x00\n              keccak256\n                /* \"contracts/StakingRewardsFactory_flattened.sol\":24354:24408  userRewardPerTokenPaid[account] = rewardPerTokenStored */\n              dup2\n              swap1\n              sstore\n              pop\n                /* \"contracts/StakingRewardsFactory_flattened.sol\":24265:24419  if (account != address(0)) {... */\n            tag_131:\n                /* \"contracts/StakingRewardsFactory_flattened.sol\":22552:22566  uint256 reward */\n              0x00\n                /* \"contracts/StakingRewardsFactory_flattened.sol\":22569:22576  rewards */\n              0x0a\n                /* \"contracts/StakingRewardsFactory_flattened.sol\":22569:22588  rewards[msg.sender] */\n              0x00\n                /* \"contracts/StakingRewardsFactory_flattened.sol\":22577:22587  msg.sender */\n              caller\n                /* \"contracts/StakingRewardsFactory_flattened.sol\":22569:22588  rewards[msg.sender] */\n              0xffffffffffffffffffffffffffffffffffffffff\n              and\n              0xffffffffffffffffffffffffffffffffffffffff\n              and\n              dup2\n              mstore\n              0x20\n              add\n              swap1\n              dup2\n              mstore\n              0x20\n              add\n              0x00\n              keccak256\n              sload\n                /* \"contracts/StakingRewardsFactory_flattened.sol\":22552:22588  uint256 reward = rewards[msg.sender] */\n              swap1\n              pop\n                /* \"contracts/StakingRewardsFactory_flattened.sol\":22611:22612  0 */\n              0x00\n                /* \"contracts/StakingRewardsFactory_flattened.sol\":22602:22608  reward */\n              dup2\n                /* \"contracts/StakingRewardsFactory_flattened.sol\":22602:22612  reward > 0 */\n              gt\n                /* \"contracts/StakingRewardsFactory_flattened.sol\":22598:22770  if (reward > 0) {... */\n              iszero\n              tag_134\n              jumpi\n                /* \"contracts/StakingRewardsFactory_flattened.sol\":22650:22651  0 */\n              0x00\n                /* \"contracts/StakingRewardsFactory_flattened.sol\":22628:22635  rewards */\n              0x0a\n                /* \"contracts/StakingRewardsFactory_flattened.sol\":22628:22647  rewards[msg.sender] */\n              0x00\n                /* \"contracts/StakingRewardsFactory_flattened.sol\":22636:22646  msg.sender */\n              caller\n                /* \"contracts/StakingRewardsFactory_flattened.sol\":22628:22647  rewards[msg.sender] */\n              0xffffffffffffffffffffffffffffffffffffffff\n              and\n              0xffffffffffffffffffffffffffffffffffffffff\n              and\n              dup2\n              mstore\n              0x20\n              add\n              swap1\n              dup2\n              mstore\n              0x20\n              add\n              0x00\n              keccak256\n                /* \"contracts/StakingRewardsFactory_flattened.sol\":22628:22651  rewards[msg.sender] = 0 */\n              dup2\n              swap1\n              sstore\n              pop\n                /* \"contracts/StakingRewardsFactory_flattened.sol\":22665:22710  rewardsToken.safeTransfer(msg.sender, reward) */\n              tag_135\n                /* \"contracts/StakingRewardsFactory_flattened.sol\":22691:22701  msg.sender */\n              caller\n                /* \"contracts/StakingRewardsFactory_flattened.sol\":22703:22709  reward */\n              dup3\n                /* \"contracts/StakingRewardsFactory_flattened.sol\":22665:22677  rewardsToken */\n              0x02\n              0x00\n              swap1\n              sload\n              swap1\n              0x0100\n              exp\n              swap1\n              div\n              0xffffffffffffffffffffffffffffffffffffffff\n              and\n                /* \"contracts/StakingRewardsFactory_flattened.sol\":22665:22690  rewardsToken.safeTransfer */\n              0xffffffffffffffffffffffffffffffffffffffff\n              and\n              tag_104\n              swap1\n                /* \"contracts/StakingRewardsFactory_flattened.sol\":22665:22710  rewardsToken.safeTransfer(msg.sender, reward) */\n              swap3\n              swap2\n              swap1\n              0xffffffff\n              and\n              jump\t// in\n            tag_135:\n                /* \"contracts/StakingRewardsFactory_flattened.sol\":22740:22750  msg.sender */\n              caller\n                /* \"contracts/StakingRewardsFactory_flattened.sol\":22729:22759  RewardPaid(msg.sender, reward) */\n              0xffffffffffffffffffffffffffffffffffffffff\n              and\n              0xe2403640ba68fed3a2f88b7557551d1993f84b99bb10ff833f0cf8db0c5e0486\n                /* \"contracts/StakingRewardsFactory_flattened.sol\":22752:22758  reward */\n              dup3\n                /* \"contracts/StakingRewardsFactory_flattened.sol\":22729:22759  RewardPaid(msg.sender, reward) */\n              mload(0x40)\n              dup1\n              dup3\n              dup2\n              mstore\n              0x20\n              add\n              swap2\n              pop\n              pop\n              mload(0x40)\n              dup1\n              swap2\n              sub\n              swap1\n              log2\n                /* \"contracts/StakingRewardsFactory_flattened.sol\":22598:22770  if (reward > 0) {... */\n            tag_134:\n                /* \"contracts/StakingRewardsFactory_flattened.sol\":24428:24429  _ */\n              pop\n                /* \"contracts/StakingRewardsFactory_flattened.sol\":2561:2562  _ */\n              pop\n                /* \"contracts/StakingRewardsFactory_flattened.sol\":2596:2609  _guardCounter */\n              sload(0x01)\n                /* \"contracts/StakingRewardsFactory_flattened.sol\":2580:2592  localCounter */\n              dup2\n                /* \"contracts/StakingRewardsFactory_flattened.sol\":2580:2609  localCounter == _guardCounter */\n              eq\n                /* \"contracts/StakingRewardsFactory_flattened.sol\":2572:2645  require(localCounter == _guardCounter, \"ReentrancyGuard: reentrant call\") */\n              tag_136\n              jumpi\n              mload(0x40)\n              0x08c379a000000000000000000000000000000000000000000000000000000000\n              dup2\n              mstore\n              0x04\n              add\n              dup1\n              dup1\n              0x20\n              add\n              dup3\n              dup2\n              sub\n              dup3\n              mstore\n              0x1f\n              dup2\n              mstore\n              0x20\n              add\n              dup1\n              0x5265656e7472616e637947756172643a207265656e7472616e742063616c6c00\n              dup2\n              mstore\n              pop\n              0x20\n              add\n              swap2\n              pop\n              pop\n              mload(0x40)\n              dup1\n              swap2\n              sub\n              swap1\n              revert\n            tag_136:\n                /* \"contracts/StakingRewardsFactory_flattened.sol\":22476:22776  function getReward() public nonReentrant updateReward(msg.sender) {... */\n              pop\n              jump\t// out\n                /* \"contracts/StakingRewardsFactory_flattened.sol\":123:157  address public rewardsDistribution */\n            tag_49:\n              0x00\n              dup1\n              swap1\n              sload\n              swap1\n              0x0100\n              exp\n              swap1\n              div\n              0xffffffffffffffffffffffffffffffffffffffff\n              and\n              dup2\n              jump\t// out\n                /* \"contracts/StakingRewardsFactory_flattened.sol\":19892:20002  function balanceOf(address account) external view returns (uint256) {... */\n            tag_52:\n                /* \"contracts/StakingRewardsFactory_flattened.sol\":19951:19958  uint256 */\n              0x00\n                /* \"contracts/StakingRewardsFactory_flattened.sol\":19977:19986  _balances */\n              0x0c\n                /* \"contracts/StakingRewardsFactory_flattened.sol\":19977:19995  _balances[account] */\n              0x00\n                /* \"contracts/StakingRewardsFactory_flattened.sol\":19987:19994  account */\n              dup4\n                /* \"contracts/StakingRewardsFactory_flattened.sol\":19977:19995  _balances[account] */\n              0xffffffffffffffffffffffffffffffffffffffff\n              and\n              0xffffffffffffffffffffffffffffffffffffffff\n              and\n              dup2\n              mstore\n              0x20\n              add\n              swap1\n              dup2\n              mstore\n              0x20\n              add\n              0x00\n              keccak256\n              sload\n                /* \"contracts/StakingRewardsFactory_flattened.sol\":19970:19995  return _balances[account] */\n              swap1\n              pop\n                /* \"contracts/StakingRewardsFactory_flattened.sol\":19892:20002  function balanceOf(address account) external view returns (uint256) {... */\n              swap2\n              swap1\n              pop\n              jump\t// out\n                /* \"contracts/StakingRewardsFactory_flattened.sol\":18872:18898  IERC20 public stakingToken */\n            tag_54:\n              0x03\n              0x00\n              swap1\n              sload\n              swap1\n              0x0100\n              exp\n              swap1\n              div\n              0xffffffffffffffffffffffffffffffffffffffff\n              and\n              dup2\n              jump\t// out\n                /* \"contracts/StakingRewardsFactory_flattened.sol\":18941:18970  uint256 public rewardRate = 0 */\n            tag_56:\n              sload(0x05)\n              dup2\n              jump\t// out\n                /* \"contracts/StakingRewardsFactory_flattened.sol\":20008:20137  function lastTimeRewardApplicable() public view returns (uint256) {... */\n            tag_58:\n                /* \"contracts/StakingRewardsFactory_flattened.sol\":20065:20072  uint256 */\n              0x00\n                /* \"contracts/StakingRewardsFactory_flattened.sol\":20091:20130  Math.min(block.timestamp, periodFinish) */\n              tag_139\n                /* \"contracts/StakingRewardsFactory_flattened.sol\":20100:20115  block.timestamp */\n              timestamp\n                /* \"contracts/StakingRewardsFactory_flattened.sol\":20117:20129  periodFinish */\n              sload(0x04)\n                /* \"contracts/StakingRewardsFactory_flattened.sol\":20091:20099  Math.min */\n              tag_140\n                /* \"contracts/StakingRewardsFactory_flattened.sol\":20091:20130  Math.min(block.timestamp, periodFinish) */\n              jump\t// in\n            tag_139:\n                /* \"contracts/StakingRewardsFactory_flattened.sol\":20084:20130  return Math.min(block.timestamp, periodFinish) */\n              swap1\n              pop\n                /* \"contracts/StakingRewardsFactory_flattened.sol\":20008:20137  function lastTimeRewardApplicable() public view returns (uint256) {... */\n              swap1\n              jump\t// out\n                /* \"contracts/StakingRewardsFactory_flattened.sol\":19098:19155  mapping(address => uint256) public userRewardPerTokenPaid */\n            tag_61:\n              mstore(0x20, 0x09)\n              dup1\n              0x00\n              mstore\n              keccak256(0x00, 0x40)\n              0x00\n              swap2\n              pop\n              swap1\n              pop\n              sload\n              dup2\n              jump\t// out\n                /* \"contracts/StakingRewardsFactory_flattened.sol\":21694:22085  function stake(uint256 amount)... */\n            tag_64:\n                /* \"contracts/StakingRewardsFactory_flattened.sol\":2504:2505  1 */\n              0x01\n                /* \"contracts/StakingRewardsFactory_flattened.sol\":2487:2500  _guardCounter */\n              dup1\n              0x00\n                /* \"contracts/StakingRewardsFactory_flattened.sol\":2487:2505  _guardCounter += 1 */\n              dup3\n              dup3\n              sload\n              add\n              swap3\n              pop\n              pop\n              dup2\n              swap1\n              sstore\n              pop\n                /* \"contracts/StakingRewardsFactory_flattened.sol\":2515:2535  uint256 localCounter */\n              0x00\n                /* \"contracts/StakingRewardsFactory_flattened.sol\":2538:2551  _guardCounter */\n              sload(0x01)\n                /* \"contracts/StakingRewardsFactory_flattened.sol\":2515:2551  uint256 localCounter = _guardCounter */\n              swap1\n              pop\n                /* \"contracts/StakingRewardsFactory_flattened.sol\":21784:21794  msg.sender */\n              caller\n                /* \"contracts/StakingRewardsFactory_flattened.sol\":24186:24202  rewardPerToken() */\n              tag_143\n                /* \"contracts/StakingRewardsFactory_flattened.sol\":24186:24200  rewardPerToken */\n              tag_68\n                /* \"contracts/StakingRewardsFactory_flattened.sol\":24186:24202  rewardPerToken() */\n              jump\t// in\n            tag_143:\n                /* \"contracts/StakingRewardsFactory_flattened.sol\":24163:24183  rewardPerTokenStored */\n              0x08\n                /* \"contracts/StakingRewardsFactory_flattened.sol\":24163:24202  rewardPerTokenStored = rewardPerToken() */\n              dup2\n              swap1\n              sstore\n              pop\n                /* \"contracts/StakingRewardsFactory_flattened.sol\":24229:24255  lastTimeRewardApplicable() */\n              tag_144\n                /* \"contracts/StakingRewardsFactory_flattened.sol\":24229:24253  lastTimeRewardApplicable */\n              tag_58\n                /* \"contracts/StakingRewardsFactory_flattened.sol\":24229:24255  lastTimeRewardApplicable() */\n              jump\t// in\n            tag_144:\n                /* \"contracts/StakingRewardsFactory_flattened.sol\":24212:24226  lastUpdateTime */\n              0x07\n                /* \"contracts/StakingRewardsFactory_flattened.sol\":24212:24255  lastUpdateTime = lastTimeRewardApplicable() */\n              dup2\n              swap1\n              sstore\n              pop\n                /* \"contracts/StakingRewardsFactory_flattened.sol\":24288:24289  0 */\n              0x00\n                /* \"contracts/StakingRewardsFactory_flattened.sol\":24269:24290  account != address(0) */\n              0xffffffffffffffffffffffffffffffffffffffff\n              and\n                /* \"contracts/StakingRewardsFactory_flattened.sol\":24269:24276  account */\n              dup2\n                /* \"contracts/StakingRewardsFactory_flattened.sol\":24269:24290  account != address(0) */\n              0xffffffffffffffffffffffffffffffffffffffff\n              and\n              eq\n                /* \"contracts/StakingRewardsFactory_flattened.sol\":24265:24419  if (account != address(0)) {... */\n              tag_145\n              jumpi\n                /* \"contracts/StakingRewardsFactory_flattened.sol\":24325:24340  earned(account) */\n              tag_146\n                /* \"contracts/StakingRewardsFactory_flattened.sol\":24332:24339  account */\n              dup2\n                /* \"contracts/StakingRewardsFactory_flattened.sol\":24325:24331  earned */\n              tag_30\n                /* \"contracts/StakingRewardsFactory_flattened.sol\":24325:24340  earned(account) */\n              jump\t// in\n            tag_146:\n                /* \"contracts/StakingRewardsFactory_flattened.sol\":24306:24313  rewards */\n              0x0a\n                /* \"contracts/StakingRewardsFactory_flattened.sol\":24306:24322  rewards[account] */\n              0x00\n                /* \"contracts/StakingRewardsFactory_flattened.sol\":24314:24321  account */\n              dup4\n                /* \"contracts/StakingRewardsFactory_flattened.sol\":24306:24322  rewards[account] */\n              0xffffffffffffffffffffffffffffffffffffffff\n              and\n              0xffffffffffffffffffffffffffffffffffffffff\n              and\n              dup2\n              mstore\n              0x20\n              add\n              swap1\n              dup2\n              mstore\n              0x20\n              add\n              0x00\n              keccak256\n                /* \"contracts/StakingRewardsFactory_flattened.sol\":24306:24340  rewards[account] = earned(account) */\n              dup2\n              swap1\n              sstore\n              pop\n                /* \"contracts/StakingRewardsFactory_flattened.sol\":24388:24408  rewardPerTokenStored */\n              sload(0x08)\n                /* \"contracts/StakingRewardsFactory_flattened.sol\":24354:24376  userRewardPerTokenPaid */\n              0x09\n                /* \"contracts/StakingRewardsFactory_flattened.sol\":24354:24385  userRewardPerTokenPaid[account] */\n              0x00\n                /* \"contracts/StakingRewardsFactory_flattened.sol\":24377:24384  account */\n              dup4\n                /* \"contracts/StakingRewardsFactory_flattened.sol\":24354:24385  userRewardPerTokenPaid[account] */\n              0xffffffffffffffffffffffffffffffffffffffff\n              and\n              0xffffffffffffffffffffffffffffffffffffffff\n              and\n              dup2\n              mstore\n              0x20\n              add\n              swap1\n              dup2\n              mstore\n              0x20\n              add\n              0x00\n              keccak256\n                /* \"contracts/StakingRewardsFactory_flattened.sol\":24354:24408  userRewardPerTokenPaid[account] = rewardPerTokenStored */\n              dup2\n              swap1\n              sstore\n              pop\n                /* \"contracts/StakingRewardsFactory_flattened.sol\":24265:24419  if (account != address(0)) {... */\n            tag_145:\n                /* \"contracts/StakingRewardsFactory_flattened.sol\":21827:21828  0 */\n              0x00\n                /* \"contracts/StakingRewardsFactory_flattened.sol\":21818:21824  amount */\n              dup4\n                /* \"contracts/StakingRewardsFactory_flattened.sol\":21818:21828  amount > 0 */\n              gt\n                /* \"contracts/StakingRewardsFactory_flattened.sol\":21810:21847  require(amount > 0, \"Cannot stake 0\") */\n              tag_148\n              jumpi\n              mload(0x40)\n              0x08c379a000000000000000000000000000000000000000000000000000000000\n              dup2\n              mstore\n              0x04\n              add\n              dup1\n              dup1\n              0x20\n              add\n              dup3\n              dup2\n              sub\n              dup3\n              mstore\n              0x0e\n              dup2\n              mstore\n              0x20\n              add\n              dup1\n              0x43616e6e6f74207374616b652030000000000000000000000000000000000000\n              dup2\n              mstore\n              pop\n              0x20\n              add\n              swap2\n              pop\n              pop\n              mload(0x40)\n              dup1\n              swap2\n              sub\n              swap1\n              revert\n            tag_148:\n                /* \"contracts/StakingRewardsFactory_flattened.sol\":21872:21896  _totalSupply.add(amount) */\n              tag_149\n                /* \"contracts/StakingRewardsFactory_flattened.sol\":21889:21895  amount */\n              dup4\n                /* \"contracts/StakingRewardsFactory_flattened.sol\":21872:21884  _totalSupply */\n              sload(0x0b)\n                /* \"contracts/StakingRewardsFactory_flattened.sol\":21872:21888  _totalSupply.add */\n              tag_89\n              swap1\n                /* \"contracts/StakingRewardsFactory_flattened.sol\":21872:21896  _totalSupply.add(amount) */\n              swap2\n              swap1\n              0xffffffff\n              and\n              jump\t// in\n            tag_149:\n                /* \"contracts/StakingRewardsFactory_flattened.sol\":21857:21869  _totalSupply */\n              0x0b\n                /* \"contracts/StakingRewardsFactory_flattened.sol\":21857:21896  _totalSupply = _totalSupply.add(amount) */\n              dup2\n              swap1\n              sstore\n              pop\n                /* \"contracts/StakingRewardsFactory_flattened.sol\":21930:21963  _balances[msg.sender].add(amount) */\n              tag_150\n                /* \"contracts/StakingRewardsFactory_flattened.sol\":21956:21962  amount */\n              dup4\n                /* \"contracts/StakingRewardsFactory_flattened.sol\":21930:21939  _balances */\n              0x0c\n                /* \"contracts/StakingRewardsFactory_flattened.sol\":21930:21951  _balances[msg.sender] */\n              0x00\n                /* \"contracts/StakingRewardsFactory_flattened.sol\":21940:21950  msg.sender */\n              caller\n                /* \"contracts/StakingRewardsFactory_flattened.sol\":21930:21951  _balances[msg.sender] */\n              0xffffffffffffffffffffffffffffffffffffffff\n              and\n              0xffffffffffffffffffffffffffffffffffffffff\n              and\n              dup2\n              mstore\n              0x20\n              add\n              swap1\n              dup2\n              mstore\n              0x20\n              add\n              0x00\n              keccak256\n              sload\n                /* \"contracts/StakingRewardsFactory_flattened.sol\":21930:21955  _balances[msg.sender].add */\n              tag_89\n              swap1\n                /* \"contracts/StakingRewardsFactory_flattened.sol\":21930:21963  _balances[msg.sender].add(amount) */\n              swap2\n              swap1\n              0xffffffff\n              and\n              jump\t// in\n            tag_150:\n                /* \"contracts/StakingRewardsFactory_flattened.sol\":21906:21915  _balances */\n              0x0c\n                /* \"contracts/StakingRewardsFactory_flattened.sol\":21906:21927  _balances[msg.sender] */\n              0x00\n                /* \"contracts/StakingRewardsFactory_flattened.sol\":21916:21926  msg.sender */\n              caller\n                /* \"contracts/StakingRewardsFactory_flattened.sol\":21906:21927  _balances[msg.sender] */\n              0xffffffffffffffffffffffffffffffffffffffff\n              and\n              0xffffffffffffffffffffffffffffffffffffffff\n              and\n              dup2\n              mstore\n              0x20\n              add\n              swap1\n              dup2\n              mstore\n              0x20\n              add\n              0x00\n              keccak256\n                /* \"contracts/StakingRewardsFactory_flattened.sol\":21906:21963  _balances[msg.sender] = _balances[msg.sender].add(amount) */\n              dup2\n              swap1\n              sstore\n              pop\n                /* \"contracts/StakingRewardsFactory_flattened.sol\":21973:22037  stakingToken.safeTransferFrom(msg.sender, address(this), amount) */\n              tag_151\n                /* \"contracts/StakingRewardsFactory_flattened.sol\":22003:22013  msg.sender */\n              caller\n                /* \"contracts/StakingRewardsFactory_flattened.sol\":22023:22027  this */\n              address\n                /* \"contracts/StakingRewardsFactory_flattened.sol\":22030:22036  amount */\n              dup6\n                /* \"contracts/StakingRewardsFactory_flattened.sol\":21973:21985  stakingToken */\n              0x03\n              0x00\n              swap1\n              sload\n              swap1\n              0x0100\n              exp\n              swap1\n              div\n              0xffffffffffffffffffffffffffffffffffffffff\n              and\n                /* \"contracts/StakingRewardsFactory_flattened.sol\":21973:22002  stakingToken.safeTransferFrom */\n              0xffffffffffffffffffffffffffffffffffffffff\n              and\n              tag_152\n              swap1\n                /* \"contracts/StakingRewardsFactory_flattened.sol\":21973:22037  stakingToken.safeTransferFrom(msg.sender, address(this), amount) */\n              swap4\n              swap3\n              swap2\n              swap1\n              0xffffffff\n              and\n              jump\t// in\n            tag_151:\n                /* \"contracts/StakingRewardsFactory_flattened.sol\":22059:22069  msg.sender */\n              caller\n                /* \"contracts/StakingRewardsFactory_flattened.sol\":22052:22078  Staked(msg.sender, amount) */\n              0xffffffffffffffffffffffffffffffffffffffff\n              and\n              0x9e71bc8eea02a63969f509818f2dafb9254532904319f9dbda79b67bd34a5f3d\n                /* \"contracts/StakingRewardsFactory_flattened.sol\":22071:22077  amount */\n              dup5\n                /* \"contracts/StakingRewardsFactory_flattened.sol\":22052:22078  Staked(msg.sender, amount) */\n              mload(0x40)\n              dup1\n              dup3\n              dup2\n              mstore\n              0x20\n              add\n              swap2\n              pop\n              pop\n              mload(0x40)\n              dup1\n              swap2\n              sub\n              swap1\n              log2\n                /* \"contracts/StakingRewardsFactory_flattened.sol\":2561:2562  _ */\n              pop\n                /* \"contracts/StakingRewardsFactory_flattened.sol\":2596:2609  _guardCounter */\n              sload(0x01)\n                /* \"contracts/StakingRewardsFactory_flattened.sol\":2580:2592  localCounter */\n              dup2\n                /* \"contracts/StakingRewardsFactory_flattened.sol\":2580:2609  localCounter == _guardCounter */\n              eq\n                /* \"contracts/StakingRewardsFactory_flattened.sol\":2572:2645  require(localCounter == _guardCounter, \"ReentrancyGuard: reentrant call\") */\n              tag_153\n              jumpi\n              mload(0x40)\n              0x08c379a000000000000000000000000000000000000000000000000000000000\n              dup2\n              mstore\n              0x04\n              add\n              dup1\n              dup1\n              0x20\n              add\n              dup3\n              dup2\n              sub\n              dup3\n              mstore\n              0x1f\n              dup2\n              mstore\n              0x20\n              add\n              dup1\n              0x5265656e7472616e637947756172643a207265656e7472616e742063616c6c00\n              dup2\n              mstore\n              pop\n              0x20\n              add\n              swap2\n              pop\n              pop\n              mload(0x40)\n              dup1\n              swap2\n              sub\n              swap1\n              revert\n            tag_153:\n                /* \"contracts/StakingRewardsFactory_flattened.sol\":21694:22085  function stake(uint256 amount)... */\n              pop\n              pop\n              jump\t// out\n                /* \"contracts/StakingRewardsFactory_flattened.sol\":19021:19050  uint256 public lastUpdateTime */\n            tag_66:\n              sload(0x07)\n              dup2\n              jump\t// out\n                /* \"contracts/StakingRewardsFactory_flattened.sol\":20143:20549  function rewardPerToken() public view returns (uint256) {... */\n            tag_68:\n                /* \"contracts/StakingRewardsFactory_flattened.sol\":20190:20197  uint256 */\n              0x00\n                /* \"contracts/StakingRewardsFactory_flattened.sol\":20229:20230  0 */\n              dup1\n                /* \"contracts/StakingRewardsFactory_flattened.sol\":20213:20225  _totalSupply */\n              sload(0x0b)\n                /* \"contracts/StakingRewardsFactory_flattened.sol\":20213:20230  _totalSupply == 0 */\n              eq\n                /* \"contracts/StakingRewardsFactory_flattened.sol\":20209:20284  if (_totalSupply == 0) {... */\n              iszero\n              tag_155\n              jumpi\n                /* \"contracts/StakingRewardsFactory_flattened.sol\":20253:20273  rewardPerTokenStored */\n              sload(0x08)\n                /* \"contracts/StakingRewardsFactory_flattened.sol\":20246:20273  return rewardPerTokenStored */\n              swap1\n              pop\n              jump(tag_154)\n                /* \"contracts/StakingRewardsFactory_flattened.sol\":20209:20284  if (_totalSupply == 0) {... */\n            tag_155:\n                /* \"contracts/StakingRewardsFactory_flattened.sol\":20312:20542  rewardPerTokenStored.add(... */\n              tag_156\n                /* \"contracts/StakingRewardsFactory_flattened.sol\":20354:20528  lastTimeRewardApplicable()... */\n              tag_157\n                /* \"contracts/StakingRewardsFactory_flattened.sol\":20515:20527  _totalSupply */\n              sload(0x0b)\n                /* \"contracts/StakingRewardsFactory_flattened.sol\":20354:20489  lastTimeRewardApplicable()... */\n              tag_158\n                /* \"contracts/StakingRewardsFactory_flattened.sol\":20484:20488  1e18 */\n              0x0de0b6b3a7640000\n                /* \"contracts/StakingRewardsFactory_flattened.sol\":20354:20458  lastTimeRewardApplicable()... */\n              tag_159\n                /* \"contracts/StakingRewardsFactory_flattened.sol\":20447:20457  rewardRate */\n              sload(0x05)\n                /* \"contracts/StakingRewardsFactory_flattened.sol\":20354:20421  lastTimeRewardApplicable()... */\n              tag_160\n                /* \"contracts/StakingRewardsFactory_flattened.sol\":20406:20420  lastUpdateTime */\n              sload(0x07)\n                /* \"contracts/StakingRewardsFactory_flattened.sol\":20354:20380  lastTimeRewardApplicable() */\n              tag_161\n                /* \"contracts/StakingRewardsFactory_flattened.sol\":20354:20378  lastTimeRewardApplicable */\n              tag_58\n                /* \"contracts/StakingRewardsFactory_flattened.sol\":20354:20380  lastTimeRewardApplicable() */\n              jump\t// in\n            tag_161:\n                /* \"contracts/StakingRewardsFactory_flattened.sol\":20354:20405  lastTimeRewardApplicable()... */\n              tag_86\n              swap1\n                /* \"contracts/StakingRewardsFactory_flattened.sol\":20354:20421  lastTimeRewardApplicable()... */\n              swap2\n              swap1\n              0xffffffff\n              and\n              jump\t// in\n            tag_160:\n                /* \"contracts/StakingRewardsFactory_flattened.sol\":20354:20446  lastTimeRewardApplicable()... */\n              tag_87\n              swap1\n                /* \"contracts/StakingRewardsFactory_flattened.sol\":20354:20458  lastTimeRewardApplicable()... */\n              swap2\n              swap1\n              0xffffffff\n              and\n              jump\t// in\n            tag_159:\n                /* \"contracts/StakingRewardsFactory_flattened.sol\":20354:20483  lastTimeRewardApplicable()... */\n              tag_87\n              swap1\n                /* \"contracts/StakingRewardsFactory_flattened.sol\":20354:20489  lastTimeRewardApplicable()... */\n              swap2\n              swap1\n              0xffffffff\n              and\n              jump\t// in\n            tag_158:\n                /* \"contracts/StakingRewardsFactory_flattened.sol\":20354:20514  lastTimeRewardApplicable()... */\n              tag_88\n              swap1\n                /* \"contracts/StakingRewardsFactory_flattened.sol\":20354:20528  lastTimeRewardApplicable()... */\n              swap2\n              swap1\n              0xffffffff\n              and\n              jump\t// in\n            tag_157:\n                /* \"contracts/StakingRewardsFactory_flattened.sol\":20312:20332  rewardPerTokenStored */\n              sload(0x08)\n                /* \"contracts/StakingRewardsFactory_flattened.sol\":20312:20336  rewardPerTokenStored.add */\n              tag_89\n              swap1\n                /* \"contracts/StakingRewardsFactory_flattened.sol\":20312:20542  rewardPerTokenStored.add(... */\n              swap2\n              swap1\n              0xffffffff\n              and\n              jump\t// in\n            tag_156:\n                /* \"contracts/StakingRewardsFactory_flattened.sol\":20293:20542  return... */\n              swap1\n              pop\n                /* \"contracts/StakingRewardsFactory_flattened.sol\":20143:20549  function rewardPerToken() public view returns (uint256) {... */\n            tag_154:\n              swap1\n              jump\t// out\n                /* \"contracts/StakingRewardsFactory_flattened.sol\":18840:18866  IERC20 public rewardsToken */\n            tag_70:\n              0x02\n              0x00\n              swap1\n              sload\n              swap1\n              0x0100\n              exp\n              swap1\n              div\n              0xffffffffffffffffffffffffffffffffffffffff\n              and\n              dup2\n              jump\t// out\n                /* \"contracts/StakingRewardsFactory_flattened.sol\":19056:19091  uint256 public rewardPerTokenStored */\n            tag_72:\n              sload(0x08)\n              dup2\n              jump\t// out\n                /* \"contracts/StakingRewardsFactory_flattened.sol\":22782:22876  function exit() external {... */\n            tag_74:\n                /* \"contracts/StakingRewardsFactory_flattened.sol\":22817:22848  withdraw(_balances[msg.sender]) */\n              tag_163\n                /* \"contracts/StakingRewardsFactory_flattened.sol\":22826:22835  _balances */\n              0x0c\n                /* \"contracts/StakingRewardsFactory_flattened.sol\":22826:22847  _balances[msg.sender] */\n              0x00\n                /* \"contracts/StakingRewardsFactory_flattened.sol\":22836:22846  msg.sender */\n              caller\n                /* \"contracts/StakingRewardsFactory_flattened.sol\":22826:22847  _balances[msg.sender] */\n              0xffffffffffffffffffffffffffffffffffffffff\n              and\n              0xffffffffffffffffffffffffffffffffffffffff\n              and\n              dup2\n              mstore\n              0x20\n              add\n              swap1\n              dup2\n              mstore\n              0x20\n              add\n              0x00\n              keccak256\n              sload\n                /* \"contracts/StakingRewardsFactory_flattened.sol\":22817:22825  withdraw */\n              tag_40\n                /* \"contracts/StakingRewardsFactory_flattened.sol\":22817:22848  withdraw(_balances[msg.sender]) */\n              jump\t// in\n            tag_163:\n                /* \"contracts/StakingRewardsFactory_flattened.sol\":22858:22869  getReward() */\n              tag_164\n                /* \"contracts/StakingRewardsFactory_flattened.sol\":22858:22867  getReward */\n              tag_47\n                /* \"contracts/StakingRewardsFactory_flattened.sol\":22858:22869  getReward() */\n              jump\t// in\n            tag_164:\n                /* \"contracts/StakingRewardsFactory_flattened.sol\":22782:22876  function exit() external {... */\n              jump\t// out\n                /* \"contracts/StakingRewardsFactory_flattened.sol\":18904:18935  uint256 public periodFinish = 0 */\n            tag_76:\n              sload(0x04)\n              dup2\n              jump\t// out\n                /* \"contracts/StakingRewardsFactory_flattened.sol\":20997:21688  function stakeWithPermit(... */\n            tag_79:\n                /* \"contracts/StakingRewardsFactory_flattened.sol\":2504:2505  1 */\n              0x01\n                /* \"contracts/StakingRewardsFactory_flattened.sol\":2487:2500  _guardCounter */\n              dup1\n              0x00\n                /* \"contracts/StakingRewardsFactory_flattened.sol\":2487:2505  _guardCounter += 1 */\n              dup3\n              dup3\n              sload\n              add\n              swap3\n              pop\n              pop\n              dup2\n              swap1\n              sstore\n              pop\n                /* \"contracts/StakingRewardsFactory_flattened.sol\":2515:2535  uint256 localCounter */\n              0x00\n                /* \"contracts/StakingRewardsFactory_flattened.sol\":2538:2551  _guardCounter */\n              sload(0x01)\n                /* \"contracts/StakingRewardsFactory_flattened.sol\":2515:2551  uint256 localCounter = _guardCounter */\n              swap1\n              pop\n                /* \"contracts/StakingRewardsFactory_flattened.sol\":21168:21178  msg.sender */\n              caller\n                /* \"contracts/StakingRewardsFactory_flattened.sol\":24186:24202  rewardPerToken() */\n              tag_167\n                /* \"contracts/StakingRewardsFactory_flattened.sol\":24186:24200  rewardPerToken */\n              tag_68\n                /* \"contracts/StakingRewardsFactory_flattened.sol\":24186:24202  rewardPerToken() */\n              jump\t// in\n            tag_167:\n                /* \"contracts/StakingRewardsFactory_flattened.sol\":24163:24183  rewardPerTokenStored */\n              0x08\n                /* \"contracts/StakingRewardsFactory_flattened.sol\":24163:24202  rewardPerTokenStored = rewardPerToken() */\n              dup2\n              swap1\n              sstore\n              pop\n                /* \"contracts/StakingRewardsFactory_flattened.sol\":24229:24255  lastTimeRewardApplicable() */\n              tag_168\n                /* \"contracts/StakingRewardsFactory_flattened.sol\":24229:24253  lastTimeRewardApplicable */\n              tag_58\n                /* \"contracts/StakingRewardsFactory_flattened.sol\":24229:24255  lastTimeRewardApplicable() */\n              jump\t// in\n            tag_168:\n                /* \"contracts/StakingRewardsFactory_flattened.sol\":24212:24226  lastUpdateTime */\n              0x07\n                /* \"contracts/StakingRewardsFactory_flattened.sol\":24212:24255  lastUpdateTime = lastTimeRewardApplicable() */\n              dup2\n              swap1\n              sstore\n              pop\n                /* \"contracts/StakingRewardsFactory_flattened.sol\":24288:24289  0 */\n              0x00\n                /* \"contracts/StakingRewardsFactory_flattened.sol\":24269:24290  account != address(0) */\n              0xffffffffffffffffffffffffffffffffffffffff\n              and\n                /* \"contracts/StakingRewardsFactory_flattened.sol\":24269:24276  account */\n              dup2\n                /* \"contracts/StakingRewardsFactory_flattened.sol\":24269:24290  account != address(0) */\n              0xffffffffffffffffffffffffffffffffffffffff\n              and\n              eq\n                /* \"contracts/StakingRewardsFactory_flattened.sol\":24265:24419  if (account != address(0)) {... */\n              tag_169\n              jumpi\n                /* \"contracts/StakingRewardsFactory_flattened.sol\":24325:24340  earned(account) */\n              tag_170\n                /* \"contracts/StakingRewardsFactory_flattened.sol\":24332:24339  account */\n              dup2\n                /* \"contracts/StakingRewardsFactory_flattened.sol\":24325:24331  earned */\n              tag_30\n                /* \"contracts/StakingRewardsFactory_flattened.sol\":24325:24340  earned(account) */\n              jump\t// in\n            tag_170:\n                /* \"contracts/StakingRewardsFactory_flattened.sol\":24306:24313  rewards */\n              0x0a\n                /* \"contracts/StakingRewardsFactory_flattened.sol\":24306:24322  rewards[account] */\n              0x00\n                /* \"contracts/StakingRewardsFactory_flattened.sol\":24314:24321  account */\n              dup4\n                /* \"contracts/StakingRewardsFactory_flattened.sol\":24306:24322  rewards[account] */\n              0xffffffffffffffffffffffffffffffffffffffff\n              and\n              0xffffffffffffffffffffffffffffffffffffffff\n              and\n              dup2\n              mstore\n              0x20\n              add\n              swap1\n              dup2\n              mstore\n              0x20\n              add\n              0x00\n              keccak256\n                /* \"contracts/StakingRewardsFactory_flattened.sol\":24306:24340  rewards[account] = earned(account) */\n              dup2\n              swap1\n              sstore\n              pop\n                /* \"contracts/StakingRewardsFactory_flattened.sol\":24388:24408  rewardPerTokenStored */\n              sload(0x08)\n                /* \"contracts/StakingRewardsFactory_flattened.sol\":24354:24376  userRewardPerTokenPaid */\n              0x09\n                /* \"contracts/StakingRewardsFactory_flattened.sol\":24354:24385  userRewardPerTokenPaid[account] */\n              0x00\n                /* \"contracts/StakingRewardsFactory_flattened.sol\":24377:24384  account */\n              dup4\n                /* \"contracts/StakingRewardsFactory_flattened.sol\":24354:24385  userRewardPerTokenPaid[account] */\n              0xffffffffffffffffffffffffffffffffffffffff\n              and\n              0xffffffffffffffffffffffffffffffffffffffff\n              and\n              dup2\n              mstore\n              0x20\n              add\n              swap1\n              dup2\n              mstore\n              0x20\n              add\n              0x00\n              keccak256\n                /* \"contracts/StakingRewardsFactory_flattened.sol\":24354:24408  userRewardPerTokenPaid[account] = rewardPerTokenStored */\n              dup2\n              swap1\n              sstore\n              pop\n                /* \"contracts/StakingRewardsFactory_flattened.sol\":24265:24419  if (account != address(0)) {... */\n            tag_169:\n                /* \"contracts/StakingRewardsFactory_flattened.sol\":21207:21208  0 */\n              0x00\n                /* \"contracts/StakingRewardsFactory_flattened.sol\":21198:21204  amount */\n              dup8\n                /* \"contracts/StakingRewardsFactory_flattened.sol\":21198:21208  amount > 0 */\n              gt\n                /* \"contracts/StakingRewardsFactory_flattened.sol\":21190:21227  require(amount > 0, \"Cannot stake 0\") */\n              tag_172\n              jumpi\n              mload(0x40)\n              0x08c379a000000000000000000000000000000000000000000000000000000000\n              dup2\n              mstore\n              0x04\n              add\n              dup1\n              dup1\n              0x20\n              add\n              dup3\n              dup2\n              sub\n              dup3\n              mstore\n              0x0e\n              dup2\n              mstore\n              0x20\n              add\n              dup1\n              0x43616e6e6f74207374616b652030000000000000000000000000000000000000\n              dup2\n              mstore\n              pop\n              0x20\n              add\n              swap2\n              pop\n              pop\n              mload(0x40)\n              dup1\n              swap2\n              sub\n              swap1\n              revert\n            tag_172:\n                /* \"contracts/StakingRewardsFactory_flattened.sol\":21252:21276  _totalSupply.add(amount) */\n              tag_173\n                /* \"contracts/StakingRewardsFactory_flattened.sol\":21269:21275  amount */\n              dup8\n                /* \"contracts/StakingRewardsFactory_flattened.sol\":21252:21264  _totalSupply */\n              sload(0x0b)\n                /* \"contracts/StakingRewardsFactory_flattened.sol\":21252:21268  _totalSupply.add */\n              tag_89\n              swap1\n                /* \"contracts/StakingRewardsFactory_flattened.sol\":21252:21276  _totalSupply.add(amount) */\n              swap2\n              swap1\n              0xffffffff\n              and\n              jump\t// in\n            tag_173:\n                /* \"contracts/StakingRewardsFactory_flattened.sol\":21237:21249  _totalSupply */\n              0x0b\n                /* \"contracts/StakingRewardsFactory_flattened.sol\":21237:21276  _totalSupply = _totalSupply.add(amount) */\n              dup2\n              swap1\n              sstore\n              pop\n                /* \"contracts/StakingRewardsFactory_flattened.sol\":21310:21343  _balances[msg.sender].add(amount) */\n              tag_174\n                /* \"contracts/StakingRewardsFactory_flattened.sol\":21336:21342  amount */\n              dup8\n                /* \"contracts/StakingRewardsFactory_flattened.sol\":21310:21319  _balances */\n              0x0c\n                /* \"contracts/StakingRewardsFactory_flattened.sol\":21310:21331  _balances[msg.sender] */\n              0x00\n                /* \"contracts/StakingRewardsFactory_flattened.sol\":21320:21330  msg.sender */\n              caller\n                /* \"contracts/StakingRewardsFactory_flattened.sol\":21310:21331  _balances[msg.sender] */\n              0xffffffffffffffffffffffffffffffffffffffff\n              and\n              0xffffffffffffffffffffffffffffffffffffffff\n              and\n              dup2\n              mstore\n              0x20\n              add\n              swap1\n              dup2\n              mstore\n              0x20\n              add\n              0x00\n              keccak256\n              sload\n                /* \"contracts/StakingRewardsFactory_flattened.sol\":21310:21335  _balances[msg.sender].add */\n              tag_89\n              swap1\n                /* \"contracts/StakingRewardsFactory_flattened.sol\":21310:21343  _balances[msg.sender].add(amount) */\n              swap2\n              swap1\n              0xffffffff\n              and\n              jump\t// in\n            tag_174:\n                /* \"contracts/StakingRewardsFactory_flattened.sol\":21286:21295  _balances */\n              0x0c\n                /* \"contracts/StakingRewardsFactory_flattened.sol\":21286:21307  _balances[msg.sender] */\n              0x00\n                /* \"contracts/StakingRewardsFactory_flattened.sol\":21296:21306  msg.sender */\n              caller\n                /* \"contracts/StakingRewardsFactory_flattened.sol\":21286:21307  _balances[msg.sender] */\n              0xffffffffffffffffffffffffffffffffffffffff\n              and\n              0xffffffffffffffffffffffffffffffffffffffff\n              and\n              dup2\n              mstore\n              0x20\n              add\n              swap1\n              dup2\n              mstore\n              0x20\n              add\n              0x00\n              keccak256\n                /* \"contracts/StakingRewardsFactory_flattened.sol\":21286:21343  _balances[msg.sender] = _balances[msg.sender].add(amount) */\n              dup2\n              swap1\n              sstore\n              pop\n                /* \"contracts/StakingRewardsFactory_flattened.sol\":21396:21408  stakingToken */\n              0x03\n              0x00\n              swap1\n              sload\n              swap1\n              0x0100\n              exp\n              swap1\n              div\n              0xffffffffffffffffffffffffffffffffffffffff\n              and\n                /* \"contracts/StakingRewardsFactory_flattened.sol\":21372:21417  IUniswapV2ERC20(address(stakingToken)).permit */\n              0xffffffffffffffffffffffffffffffffffffffff\n              and\n              0xd505accf\n                /* \"contracts/StakingRewardsFactory_flattened.sol\":21431:21441  msg.sender */\n              caller\n                /* \"contracts/StakingRewardsFactory_flattened.sol\":21463:21467  this */\n              address\n                /* \"contracts/StakingRewardsFactory_flattened.sol\":21482:21488  amount */\n              dup11\n                /* \"contracts/StakingRewardsFactory_flattened.sol\":21502:21510  deadline */\n              dup11\n                /* \"contracts/StakingRewardsFactory_flattened.sol\":21524:21525  v */\n              dup11\n                /* \"contracts/StakingRewardsFactory_flattened.sol\":21539:21540  r */\n              dup11\n                /* \"contracts/StakingRewardsFactory_flattened.sol\":21554:21555  s */\n              dup11\n                /* \"contracts/StakingRewardsFactory_flattened.sol\":21372:21565  IUniswapV2ERC20(address(stakingToken)).permit(... */\n              mload(0x40)\n              dup9\n              0xffffffff\n              and\n              0xe0\n              shl\n              dup2\n              mstore\n              0x04\n              add\n              dup1\n              dup9\n              0xffffffffffffffffffffffffffffffffffffffff\n              and\n              0xffffffffffffffffffffffffffffffffffffffff\n              and\n              dup2\n              mstore\n              0x20\n              add\n              dup8\n              0xffffffffffffffffffffffffffffffffffffffff\n              and\n              0xffffffffffffffffffffffffffffffffffffffff\n              and\n              dup2\n              mstore\n              0x20\n              add\n              dup7\n              dup2\n              mstore\n              0x20\n              add\n              dup6\n              dup2\n              mstore\n              0x20\n              add\n              dup5\n              0xff\n              and\n              0xff\n              and\n              dup2\n              mstore\n              0x20\n              add\n              dup4\n              dup2\n              mstore\n              0x20\n              add\n              dup3\n              dup2\n              mstore\n              0x20\n              add\n              swap8\n              pop\n              pop\n              pop\n              pop\n              pop\n              pop\n              pop\n              pop\n              0x00\n              mload(0x40)\n              dup1\n              dup4\n              sub\n              dup2\n              0x00\n              dup8\n              dup1\n              extcodesize\n              iszero\n                /* \"--CODEGEN--\":8:17   */\n              dup1\n                /* \"--CODEGEN--\":5:7   */\n              iszero\n              tag_175\n              jumpi\n                /* \"--CODEGEN--\":30:31   */\n              0x00\n                /* \"--CODEGEN--\":27:28   */\n              dup1\n                /* \"--CODEGEN--\":20:32   */\n              revert\n                /* \"--CODEGEN--\":5:7   */\n            tag_175:\n                /* \"contracts/StakingRewardsFactory_flattened.sol\":21372:21565  IUniswapV2ERC20(address(stakingToken)).permit(... */\n              pop\n              gas\n              call\n              iszero\n                /* \"--CODEGEN--\":8:17   */\n              dup1\n                /* \"--CODEGEN--\":5:7   */\n              iszero\n              tag_176\n              jumpi\n                /* \"--CODEGEN--\":45:61   */\n              returndatasize\n                /* \"--CODEGEN--\":42:43   */\n              0x00\n                /* \"--CODEGEN--\":39:40   */\n              dup1\n                /* \"--CODEGEN--\":24:62   */\n              returndatacopy\n                /* \"--CODEGEN--\":77:93   */\n              returndatasize\n                /* \"--CODEGEN--\":74:75   */\n              0x00\n                /* \"--CODEGEN--\":67:94   */\n              revert\n                /* \"--CODEGEN--\":5:7   */\n            tag_176:\n                /* \"contracts/StakingRewardsFactory_flattened.sol\":21372:21565  IUniswapV2ERC20(address(stakingToken)).permit(... */\n              pop\n              pop\n              pop\n              pop\n                /* \"contracts/StakingRewardsFactory_flattened.sol\":21576:21640  stakingToken.safeTransferFrom(msg.sender, address(this), amount) */\n              tag_177\n                /* \"contracts/StakingRewardsFactory_flattened.sol\":21606:21616  msg.sender */\n              caller\n                /* \"contracts/StakingRewardsFactory_flattened.sol\":21626:21630  this */\n              address\n                /* \"contracts/StakingRewardsFactory_flattened.sol\":21633:21639  amount */\n              dup10\n                /* \"contracts/StakingRewardsFactory_flattened.sol\":21576:21588  stakingToken */\n              0x03\n              0x00\n              swap1\n              sload\n              swap1\n              0x0100\n              exp\n              swap1\n              div\n              0xffffffffffffffffffffffffffffffffffffffff\n              and\n                /* \"contracts/StakingRewardsFactory_flattened.sol\":21576:21605  stakingToken.safeTransferFrom */\n              0xffffffffffffffffffffffffffffffffffffffff\n              and\n              tag_152\n              swap1\n                /* \"contracts/StakingRewardsFactory_flattened.sol\":21576:21640  stakingToken.safeTransferFrom(msg.sender, address(this), amount) */\n              swap4\n              swap3\n              swap2\n              swap1\n              0xffffffff\n              and\n              jump\t// in\n            tag_177:\n                /* \"contracts/StakingRewardsFactory_flattened.sol\":21662:21672  msg.sender */\n              caller\n                /* \"contracts/StakingRewardsFactory_flattened.sol\":21655:21681  Staked(msg.sender, amount) */\n              0xffffffffffffffffffffffffffffffffffffffff\n              and\n              0x9e71bc8eea02a63969f509818f2dafb9254532904319f9dbda79b67bd34a5f3d\n                /* \"contracts/StakingRewardsFactory_flattened.sol\":21674:21680  amount */\n              dup9\n                /* \"contracts/StakingRewardsFactory_flattened.sol\":21655:21681  Staked(msg.sender, amount) */\n              mload(0x40)\n              dup1\n              dup3\n              dup2\n              mstore\n              0x20\n              add\n              swap2\n              pop\n              pop\n              mload(0x40)\n              dup1\n              swap2\n              sub\n              swap1\n              log2\n                /* \"contracts/StakingRewardsFactory_flattened.sol\":2561:2562  _ */\n              pop\n                /* \"contracts/StakingRewardsFactory_flattened.sol\":2596:2609  _guardCounter */\n              sload(0x01)\n                /* \"contracts/StakingRewardsFactory_flattened.sol\":2580:2592  localCounter */\n              dup2\n                /* \"contracts/StakingRewardsFactory_flattened.sol\":2580:2609  localCounter == _guardCounter */\n              eq\n                /* \"contracts/StakingRewardsFactory_flattened.sol\":2572:2645  require(localCounter == _guardCounter, \"ReentrancyGuard: reentrant call\") */\n              tag_178\n              jumpi\n              mload(0x40)\n              0x08c379a000000000000000000000000000000000000000000000000000000000\n              dup2\n              mstore\n              0x04\n              add\n              dup1\n              dup1\n              0x20\n              add\n              dup3\n              dup2\n              sub\n              dup3\n              mstore\n              0x1f\n              dup2\n              mstore\n              0x20\n              add\n              dup1\n              0x5265656e7472616e637947756172643a207265656e7472616e742063616c6c00\n              dup2\n              mstore\n              pop\n              0x20\n              add\n              swap2\n              pop\n              pop\n              mload(0x40)\n              dup1\n              swap2\n              sub\n              swap1\n              revert\n            tag_178:\n                /* \"contracts/StakingRewardsFactory_flattened.sol\":20997:21688  function stakeWithPermit(... */\n              pop\n              pop\n              pop\n              pop\n              pop\n              pop\n              jump\t// out\n                /* \"contracts/StakingRewardsFactory_flattened.sol\":4993:5172  function sub(uint256 a, uint256 b) internal pure returns (uint256) {... */\n            tag_86:\n                /* \"contracts/StakingRewardsFactory_flattened.sol\":5051:5058  uint256 */\n              0x00\n                /* \"contracts/StakingRewardsFactory_flattened.sol\":5083:5084  a */\n              dup3\n                /* \"contracts/StakingRewardsFactory_flattened.sol\":5078:5079  b */\n              dup3\n                /* \"contracts/StakingRewardsFactory_flattened.sol\":5078:5084  b <= a */\n              gt\n              iszero\n                /* \"contracts/StakingRewardsFactory_flattened.sol\":5070:5119  require(b <= a, \"SafeMath: subtraction overflow\") */\n              tag_180\n              jumpi\n              mload(0x40)\n              0x08c379a000000000000000000000000000000000000000000000000000000000\n              dup2\n              mstore\n              0x04\n              add\n              dup1\n              dup1\n              0x20\n              add\n              dup3\n              dup2\n              sub\n              dup3\n              mstore\n              0x1e\n              dup2\n              mstore\n              0x20\n              add\n              dup1\n              0x536166654d6174683a207375627472616374696f6e206f766572666c6f770000\n              dup2\n              mstore\n              pop\n              0x20\n              add\n              swap2\n              pop\n              pop\n              mload(0x40)\n              dup1\n              swap2\n              sub\n              swap1\n              revert\n            tag_180:\n                /* \"contracts/StakingRewardsFactory_flattened.sol\":5129:5138  uint256 c */\n              0x00\n                /* \"contracts/StakingRewardsFactory_flattened.sol\":5145:5146  b */\n              dup3\n                /* \"contracts/StakingRewardsFactory_flattened.sol\":5141:5142  a */\n              dup5\n                /* \"contracts/StakingRewardsFactory_flattened.sol\":5141:5146  a - b */\n              sub\n                /* \"contracts/StakingRewardsFactory_flattened.sol\":5129:5146  uint256 c = a - b */\n              swap1\n              pop\n                /* \"contracts/StakingRewardsFactory_flattened.sol\":5164:5165  c */\n              dup1\n                /* \"contracts/StakingRewardsFactory_flattened.sol\":5157:5165  return c */\n              swap2\n              pop\n              pop\n                /* \"contracts/StakingRewardsFactory_flattened.sol\":4993:5172  function sub(uint256 a, uint256 b) internal pure returns (uint256) {... */\n              swap3\n              swap2\n              pop\n              pop\n              jump\t// out\n                /* \"contracts/StakingRewardsFactory_flattened.sol\":5412:5871  function mul(uint256 a, uint256 b) internal pure returns (uint256) {... */\n            tag_87:\n                /* \"contracts/StakingRewardsFactory_flattened.sol\":5470:5477  uint256 */\n              0x00\n                /* \"contracts/StakingRewardsFactory_flattened.sol\":5716:5717  0 */\n              dup1\n                /* \"contracts/StakingRewardsFactory_flattened.sol\":5711:5712  a */\n              dup4\n                /* \"contracts/StakingRewardsFactory_flattened.sol\":5711:5717  a == 0 */\n              eq\n                /* \"contracts/StakingRewardsFactory_flattened.sol\":5707:5752  if (a == 0) {... */\n              iszero\n              tag_182\n              jumpi\n                /* \"contracts/StakingRewardsFactory_flattened.sol\":5740:5741  0 */\n              0x00\n                /* \"contracts/StakingRewardsFactory_flattened.sol\":5733:5741  return 0 */\n              swap1\n              pop\n              jump(tag_181)\n                /* \"contracts/StakingRewardsFactory_flattened.sol\":5707:5752  if (a == 0) {... */\n            tag_182:\n                /* \"contracts/StakingRewardsFactory_flattened.sol\":5762:5771  uint256 c */\n              0x00\n                /* \"contracts/StakingRewardsFactory_flattened.sol\":5778:5779  b */\n              dup3\n                /* \"contracts/StakingRewardsFactory_flattened.sol\":5774:5775  a */\n              dup5\n                /* \"contracts/StakingRewardsFactory_flattened.sol\":5774:5779  a * b */\n              mul\n                /* \"contracts/StakingRewardsFactory_flattened.sol\":5762:5779  uint256 c = a * b */\n              swap1\n              pop\n                /* \"contracts/StakingRewardsFactory_flattened.sol\":5806:5807  b */\n              dup3\n                /* \"contracts/StakingRewardsFactory_flattened.sol\":5801:5802  a */\n              dup5\n                /* \"contracts/StakingRewardsFactory_flattened.sol\":5797:5798  c */\n              dup3\n                /* \"contracts/StakingRewardsFactory_flattened.sol\":5797:5802  c / a */\n              dup2\n              tag_183\n              jumpi\n              invalid\n            tag_183:\n              div\n                /* \"contracts/StakingRewardsFactory_flattened.sol\":5797:5807  c / a == b */\n              eq\n                /* \"contracts/StakingRewardsFactory_flattened.sol\":5789:5845  require(c / a == b, \"SafeMath: multiplication overflow\") */\n              tag_184\n              jumpi\n              mload(0x40)\n              0x08c379a000000000000000000000000000000000000000000000000000000000\n              dup2\n              mstore\n              0x04\n              add\n              dup1\n              dup1\n              0x20\n              add\n              dup3\n              dup2\n              sub\n              dup3\n              mstore\n              0x21\n              dup2\n              mstore\n              0x20\n              add\n              dup1\n              data_9113bb53c2876a3805b2c9242029423fc540a728243ce887ab24c82cf119fba3\n              0x21\n              swap2\n              codecopy\n              0x40\n              add\n              swap2\n              pop\n              pop\n              mload(0x40)\n              dup1\n              swap2\n              sub\n              swap1\n              revert\n            tag_184:\n                /* \"contracts/StakingRewardsFactory_flattened.sol\":5863:5864  c */\n              dup1\n                /* \"contracts/StakingRewardsFactory_flattened.sol\":5856:5864  return c */\n              swap2\n              pop\n              pop\n                /* \"contracts/StakingRewardsFactory_flattened.sol\":5412:5871  function mul(uint256 a, uint256 b) internal pure returns (uint256) {... */\n            tag_181:\n              swap3\n              swap2\n              pop\n              pop\n              jump\t// out\n                /* \"contracts/StakingRewardsFactory_flattened.sol\":6326:6652  function div(uint256 a, uint256 b) internal pure returns (uint256) {... */\n            tag_88:\n                /* \"contracts/StakingRewardsFactory_flattened.sol\":6384:6391  uint256 */\n              0x00\n                /* \"contracts/StakingRewardsFactory_flattened.sol\":6481:6482  0 */\n              dup1\n                /* \"contracts/StakingRewardsFactory_flattened.sol\":6477:6478  b */\n              dup3\n                /* \"contracts/StakingRewardsFactory_flattened.sol\":6477:6482  b > 0 */\n              gt\n                /* \"contracts/StakingRewardsFactory_flattened.sol\":6469:6513  require(b > 0, \"SafeMath: division by zero\") */\n              tag_186\n              jumpi\n              mload(0x40)\n              0x08c379a000000000000000000000000000000000000000000000000000000000\n              dup2\n              mstore\n              0x04\n              add\n              dup1\n              dup1\n              0x20\n              add\n              dup3\n              dup2\n              sub\n              dup3\n              mstore\n              0x1a\n              dup2\n              mstore\n              0x20\n              add\n              dup1\n              0x536166654d6174683a206469766973696f6e206279207a65726f000000000000\n              dup2\n              mstore\n              pop\n              0x20\n              add\n              swap2\n              pop\n              pop\n              mload(0x40)\n              dup1\n              swap2\n              sub\n              swap1\n              revert\n            tag_186:\n                /* \"contracts/StakingRewardsFactory_flattened.sol\":6523:6532  uint256 c */\n              0x00\n                /* \"contracts/StakingRewardsFactory_flattened.sol\":6539:6540  b */\n              dup3\n                /* \"contracts/StakingRewardsFactory_flattened.sol\":6535:6536  a */\n              dup5\n                /* \"contracts/StakingRewardsFactory_flattened.sol\":6535:6540  a / b */\n              dup2\n              tag_187\n              jumpi\n              invalid\n            tag_187:\n              div\n                /* \"contracts/StakingRewardsFactory_flattened.sol\":6523:6540  uint256 c = a / b */\n              swap1\n              pop\n                /* \"contracts/StakingRewardsFactory_flattened.sol\":6644:6645  c */\n              dup1\n                /* \"contracts/StakingRewardsFactory_flattened.sol\":6637:6645  return c */\n              swap2\n              pop\n              pop\n                /* \"contracts/StakingRewardsFactory_flattened.sol\":6326:6652  function div(uint256 a, uint256 b) internal pure returns (uint256) {... */\n              swap3\n              swap2\n              pop\n              pop\n              jump\t// out\n                /* \"contracts/StakingRewardsFactory_flattened.sol\":4553:4729  function add(uint256 a, uint256 b) internal pure returns (uint256) {... */\n            tag_89:\n                /* \"contracts/StakingRewardsFactory_flattened.sol\":4611:4618  uint256 */\n              0x00\n                /* \"contracts/StakingRewardsFactory_flattened.sol\":4630:4639  uint256 c */\n              dup1\n                /* \"contracts/StakingRewardsFactory_flattened.sol\":4646:4647  b */\n              dup3\n                /* \"contracts/StakingRewardsFactory_flattened.sol\":4642:4643  a */\n              dup5\n                /* \"contracts/StakingRewardsFactory_flattened.sol\":4642:4647  a + b */\n              add\n                /* \"contracts/StakingRewardsFactory_flattened.sol\":4630:4647  uint256 c = a + b */\n              swap1\n              pop\n                /* \"contracts/StakingRewardsFactory_flattened.sol\":4670:4671  a */\n              dup4\n                /* \"contracts/StakingRewardsFactory_flattened.sol\":4665:4666  c */\n              dup2\n                /* \"contracts/StakingRewardsFactory_flattened.sol\":4665:4671  c >= a */\n              lt\n              iszero\n                /* \"contracts/StakingRewardsFactory_flattened.sol\":4657:4703  require(c >= a, \"SafeMath: addition overflow\") */\n              tag_189\n              jumpi\n              mload(0x40)\n              0x08c379a000000000000000000000000000000000000000000000000000000000\n              dup2\n              mstore\n              0x04\n              add\n              dup1\n              dup1\n              0x20\n              add\n              dup3\n              dup2\n              sub\n              dup3\n              mstore\n              0x1b\n              dup2\n              mstore\n              0x20\n              add\n              dup1\n              0x536166654d6174683a206164646974696f6e206f766572666c6f770000000000\n              dup2\n              mstore\n              pop\n              0x20\n              add\n              swap2\n              pop\n              pop\n              mload(0x40)\n              dup1\n              swap2\n              sub\n              swap1\n              revert\n            tag_189:\n                /* \"contracts/StakingRewardsFactory_flattened.sol\":4721:4722  c */\n              dup1\n                /* \"contracts/StakingRewardsFactory_flattened.sol\":4714:4722  return c */\n              swap2\n              pop\n              pop\n                /* \"contracts/StakingRewardsFactory_flattened.sol\":4553:4729  function add(uint256 a, uint256 b) internal pure returns (uint256) {... */\n              swap3\n              swap2\n              pop\n              pop\n              jump\t// out\n                /* \"contracts/StakingRewardsFactory_flattened.sol\":13869:14043  function safeTransfer(IERC20 token, address to, uint256 value) internal {... */\n            tag_104:\n                /* \"contracts/StakingRewardsFactory_flattened.sol\":13951:14036  callOptionalReturn(token, abi.encodeWithSelector(token.transfer.selector, to, value)) */\n              tag_191\n                /* \"contracts/StakingRewardsFactory_flattened.sol\":13970:13975  token */\n              dup4\n                /* \"contracts/StakingRewardsFactory_flattened.sol\":14000:14005  token */\n              dup5\n                /* \"contracts/StakingRewardsFactory_flattened.sol\":14000:14014  token.transfer */\n              0xffffffffffffffffffffffffffffffffffffffff\n              and\n              0xa9059cbb\n                /* \"contracts/StakingRewardsFactory_flattened.sol\":14000:14023  token.transfer.selector */\n              swap1\n              pop\n              0xe0\n              shl\n                /* \"contracts/StakingRewardsFactory_flattened.sol\":14025:14027  to */\n              dup5\n                /* \"contracts/StakingRewardsFactory_flattened.sol\":14029:14034  value */\n              dup5\n                /* \"contracts/StakingRewardsFactory_flattened.sol\":13977:14035  abi.encodeWithSelector(token.transfer.selector, to, value) */\n              add(0x24, mload(0x40))\n              dup1\n              dup4\n              0xffffffffffffffffffffffffffffffffffffffff\n              and\n              0xffffffffffffffffffffffffffffffffffffffff\n              and\n              dup2\n              mstore\n              0x20\n              add\n              dup3\n              dup2\n              mstore\n              0x20\n              add\n              swap3\n              pop\n              pop\n              pop\n              mload(0x40)\n                /* \"--CODEGEN--\":49:53   */\n              0x20\n                /* \"--CODEGEN--\":39:46   */\n              dup2\n                /* \"--CODEGEN--\":30:37   */\n              dup4\n                /* \"--CODEGEN--\":26:47   */\n              sub\n                /* \"--CODEGEN--\":22:54   */\n              sub\n                /* \"--CODEGEN--\":13:20   */\n              dup2\n                /* \"--CODEGEN--\":6:55   */\n              mstore\n                /* \"contracts/StakingRewardsFactory_flattened.sol\":13977:14035  abi.encodeWithSelector(token.transfer.selector, to, value) */\n              swap1\n              0x40\n              mstore\n              swap1\n              not(0xffffffffffffffffffffffffffffffffffffffffffffffffffffffff)\n              and\n                /* \"--CODEGEN--\":38:42   */\n              0x20\n                /* \"--CODEGEN--\":29:36   */\n              dup3\n                /* \"--CODEGEN--\":25:43   */\n              add\n                /* \"--CODEGEN--\":67:77   */\n              dup1\n                /* \"--CODEGEN--\":61:78   */\n              mload\n                /* \"--CODEGEN--\":96:154   */\n              0xffffffffffffffffffffffffffffffffffffffffffffffffffffffff\n                /* \"--CODEGEN--\":199:207   */\n              dup4\n                /* \"--CODEGEN--\":192:196   */\n              dup2\n                /* \"--CODEGEN--\":186:190   */\n              dup4\n                /* \"--CODEGEN--\":182:197   */\n              and\n                /* \"--CODEGEN--\":179:208   */\n              or\n                /* \"--CODEGEN--\":167:177   */\n              dup4\n                /* \"--CODEGEN--\":160:209   */\n              mstore\n                /* \"--CODEGEN--\":0:215   */\n              pop\n              pop\n              pop\n                /* \"contracts/StakingRewardsFactory_flattened.sol\":13977:14035  abi.encodeWithSelector(token.transfer.selector, to, value) */\n              pop\n                /* \"contracts/StakingRewardsFactory_flattened.sol\":13951:13969  callOptionalReturn */\n              tag_192\n                /* \"contracts/StakingRewardsFactory_flattened.sol\":13951:14036  callOptionalReturn(token, abi.encodeWithSelector(token.transfer.selector, to, value)) */\n              jump\t// in\n            tag_191:\n                /* \"contracts/StakingRewardsFactory_flattened.sol\":13869:14043  function safeTransfer(IERC20 token, address to, uint256 value) internal {... */\n              pop\n              pop\n              pop\n              jump\t// out\n                /* \"contracts/StakingRewardsFactory_flattened.sol\":7655:7759  function min(uint256 a, uint256 b) internal pure returns (uint256) {... */\n            tag_140:\n                /* \"contracts/StakingRewardsFactory_flattened.sol\":7713:7720  uint256 */\n              0x00\n                /* \"contracts/StakingRewardsFactory_flattened.sol\":7743:7744  b */\n              dup2\n                /* \"contracts/StakingRewardsFactory_flattened.sol\":7739:7740  a */\n              dup4\n                /* \"contracts/StakingRewardsFactory_flattened.sol\":7739:7744  a < b */\n              lt\n                /* \"contracts/StakingRewardsFactory_flattened.sol\":7739:7752  a < b ? a : b */\n              tag_194\n              jumpi\n                /* \"contracts/StakingRewardsFactory_flattened.sol\":7751:7752  b */\n              dup2\n                /* \"contracts/StakingRewardsFactory_flattened.sol\":7739:7752  a < b ? a : b */\n              jump(tag_195)\n            tag_194:\n                /* \"contracts/StakingRewardsFactory_flattened.sol\":7747:7748  a */\n              dup3\n                /* \"contracts/StakingRewardsFactory_flattened.sol\":7739:7752  a < b ? a : b */\n            tag_195:\n                /* \"contracts/StakingRewardsFactory_flattened.sol\":7732:7752  return a < b ? a : b */\n              swap1\n              pop\n                /* \"contracts/StakingRewardsFactory_flattened.sol\":7655:7759  function min(uint256 a, uint256 b) internal pure returns (uint256) {... */\n              swap3\n              swap2\n              pop\n              pop\n              jump\t// out\n                /* \"contracts/StakingRewardsFactory_flattened.sol\":14049:14251  function safeTransferFrom(IERC20 token, address from, address to, uint256 value) internal {... */\n            tag_152:\n                /* \"contracts/StakingRewardsFactory_flattened.sol\":14149:14244  callOptionalReturn(token, abi.encodeWithSelector(token.transferFrom.selector, from, to, value)) */\n              tag_197\n                /* \"contracts/StakingRewardsFactory_flattened.sol\":14168:14173  token */\n              dup5\n                /* \"contracts/StakingRewardsFactory_flattened.sol\":14198:14203  token */\n              dup6\n                /* \"contracts/StakingRewardsFactory_flattened.sol\":14198:14216  token.transferFrom */\n              0xffffffffffffffffffffffffffffffffffffffff\n              and\n              0x23b872dd\n                /* \"contracts/StakingRewardsFactory_flattened.sol\":14198:14225  token.transferFrom.selector */\n              swap1\n              pop\n              0xe0\n              shl\n                /* \"contracts/StakingRewardsFactory_flattened.sol\":14227:14231  from */\n              dup6\n                /* \"contracts/StakingRewardsFactory_flattened.sol\":14233:14235  to */\n              dup6\n                /* \"contracts/StakingRewardsFactory_flattened.sol\":14237:14242  value */\n              dup6\n                /* \"contracts/StakingRewardsFactory_flattened.sol\":14175:14243  abi.encodeWithSelector(token.transferFrom.selector, from, to, value) */\n              add(0x24, mload(0x40))\n              dup1\n              dup5\n              0xffffffffffffffffffffffffffffffffffffffff\n              and\n              0xffffffffffffffffffffffffffffffffffffffff\n              and\n              dup2\n              mstore\n              0x20\n              add\n              dup4\n              0xffffffffffffffffffffffffffffffffffffffff\n              and\n              0xffffffffffffffffffffffffffffffffffffffff\n              and\n              dup2\n              mstore\n              0x20\n              add\n              dup3\n              dup2\n              mstore\n              0x20\n              add\n              swap4\n              pop\n              pop\n              pop\n              pop\n              mload(0x40)\n                /* \"--CODEGEN--\":49:53   */\n              0x20\n                /* \"--CODEGEN--\":39:46   */\n              dup2\n                /* \"--CODEGEN--\":30:37   */\n              dup4\n                /* \"--CODEGEN--\":26:47   */\n              sub\n                /* \"--CODEGEN--\":22:54   */\n              sub\n                /* \"--CODEGEN--\":13:20   */\n              dup2\n                /* \"--CODEGEN--\":6:55   */\n              mstore\n                /* \"contracts/StakingRewardsFactory_flattened.sol\":14175:14243  abi.encodeWithSelector(token.transferFrom.selector, from, to, value) */\n              swap1\n              0x40\n              mstore\n              swap1\n              not(0xffffffffffffffffffffffffffffffffffffffffffffffffffffffff)\n              and\n                /* \"--CODEGEN--\":38:42   */\n              0x20\n                /* \"--CODEGEN--\":29:36   */\n              dup3\n                /* \"--CODEGEN--\":25:43   */\n              add\n                /* \"--CODEGEN--\":67:77   */\n              dup1\n                /* \"--CODEGEN--\":61:78   */\n              mload\n                /* \"--CODEGEN--\":96:154   */\n              0xffffffffffffffffffffffffffffffffffffffffffffffffffffffff\n                /* \"--CODEGEN--\":199:207   */\n              dup4\n                /* \"--CODEGEN--\":192:196   */\n              dup2\n                /* \"--CODEGEN--\":186:190   */\n              dup4\n                /* \"--CODEGEN--\":182:197   */\n              and\n                /* \"--CODEGEN--\":179:208   */\n              or\n                /* \"--CODEGEN--\":167:177   */\n              dup4\n                /* \"--CODEGEN--\":160:209   */\n              mstore\n                /* \"--CODEGEN--\":0:215   */\n              pop\n              pop\n              pop\n                /* \"contracts/StakingRewardsFactory_flattened.sol\":14175:14243  abi.encodeWithSelector(token.transferFrom.selector, from, to, value) */\n              pop\n                /* \"contracts/StakingRewardsFactory_flattened.sol\":14149:14167  callOptionalReturn */\n              tag_192\n                /* \"contracts/StakingRewardsFactory_flattened.sol\":14149:14244  callOptionalReturn(token, abi.encodeWithSelector(token.transferFrom.selector, from, to, value)) */\n              jump\t// in\n            tag_197:\n                /* \"contracts/StakingRewardsFactory_flattened.sol\":14049:14251  function safeTransferFrom(IERC20 token, address from, address to, uint256 value) internal {... */\n              pop\n              pop\n              pop\n              pop\n              jump\t// out\n                /* \"contracts/StakingRewardsFactory_flattened.sol\":15828:16923  function callOptionalReturn(IERC20 token, bytes memory data) private {... */\n            tag_192:\n                /* \"contracts/StakingRewardsFactory_flattened.sol\":16423:16450  address(token).isContract() */\n              tag_199\n                /* \"contracts/StakingRewardsFactory_flattened.sol\":16431:16436  token */\n              dup3\n                /* \"contracts/StakingRewardsFactory_flattened.sol\":16423:16448  address(token).isContract */\n              0xffffffffffffffffffffffffffffffffffffffff\n              and\n              tag_200\n                /* \"contracts/StakingRewardsFactory_flattened.sol\":16423:16450  address(token).isContract() */\n              jump\t// in\n            tag_199:\n                /* \"contracts/StakingRewardsFactory_flattened.sol\":16415:16486  require(address(token).isContract(), \"SafeERC20: call to non-contract\") */\n              tag_201\n              jumpi\n              mload(0x40)\n              0x08c379a000000000000000000000000000000000000000000000000000000000\n              dup2\n              mstore\n              0x04\n              add\n              dup1\n              dup1\n              0x20\n              add\n              dup3\n              dup2\n              sub\n              dup3\n              mstore\n              0x1f\n              dup2\n              mstore\n              0x20\n              add\n              dup1\n              0x5361666545524332303a2063616c6c20746f206e6f6e2d636f6e747261637400\n              dup2\n              mstore\n              pop\n              0x20\n              add\n              swap2\n              pop\n              pop\n              mload(0x40)\n              dup1\n              swap2\n              sub\n              swap1\n              revert\n            tag_201:\n                /* \"contracts/StakingRewardsFactory_flattened.sol\":16557:16569  bool success */\n              0x00\n                /* \"contracts/StakingRewardsFactory_flattened.sol\":16571:16594  bytes memory returndata */\n              0x60\n                /* \"contracts/StakingRewardsFactory_flattened.sol\":16606:16611  token */\n              dup4\n                /* \"contracts/StakingRewardsFactory_flattened.sol\":16598:16617  address(token).call */\n              0xffffffffffffffffffffffffffffffffffffffff\n              and\n                /* \"contracts/StakingRewardsFactory_flattened.sol\":16618:16622  data */\n              dup4\n                /* \"contracts/StakingRewardsFactory_flattened.sol\":16598:16623  address(token).call(data) */\n              mload(0x40)\n              dup1\n              dup3\n              dup1\n              mload\n              swap1\n              0x20\n              add\n              swap1\n              dup1\n              dup4\n              dup4\n                /* \"--CODEGEN--\":36:189   */\n            tag_202:\n                /* \"--CODEGEN--\":66:68   */\n              0x20\n                /* \"--CODEGEN--\":61:64   */\n              dup4\n                /* \"--CODEGEN--\":58:69   */\n              lt\n                /* \"--CODEGEN--\":36:189   */\n              tag_204\n              jumpi\n                /* \"--CODEGEN--\":182:185   */\n              dup1\n                /* \"--CODEGEN--\":176:186   */\n              mload\n                /* \"--CODEGEN--\":171:174   */\n              dup3\n                /* \"--CODEGEN--\":164:187   */\n              mstore\n                /* \"--CODEGEN--\":98:100   */\n              0x20\n                /* \"--CODEGEN--\":93:96   */\n              dup3\n                /* \"--CODEGEN--\":89:101   */\n              add\n                /* \"--CODEGEN--\":82:101   */\n              swap2\n              pop\n                /* \"--CODEGEN--\":123:125   */\n              0x20\n                /* \"--CODEGEN--\":118:121   */\n              dup2\n                /* \"--CODEGEN--\":114:126   */\n              add\n                /* \"--CODEGEN--\":107:126   */\n              swap1\n              pop\n                /* \"--CODEGEN--\":148:150   */\n              0x20\n                /* \"--CODEGEN--\":143:146   */\n              dup4\n                /* \"--CODEGEN--\":139:151   */\n              sub\n                /* \"--CODEGEN--\":132:151   */\n              swap3\n              pop\n                /* \"--CODEGEN--\":36:189   */\n              jump(tag_202)\n            tag_204:\n                /* \"--CODEGEN--\":274:275   */\n              0x01\n                /* \"--CODEGEN--\":267:270   */\n              dup4\n                /* \"--CODEGEN--\":263:265   */\n              0x20\n                /* \"--CODEGEN--\":259:271   */\n              sub\n                /* \"--CODEGEN--\":254:257   */\n              0x0100\n                /* \"--CODEGEN--\":250:272   */\n              exp\n                /* \"--CODEGEN--\":246:276   */\n              sub\n                /* \"--CODEGEN--\":315:319   */\n              dup1\n                /* \"--CODEGEN--\":311:320   */\n              not\n                /* \"--CODEGEN--\":305:308   */\n              dup3\n                /* \"--CODEGEN--\":299:309   */\n              mload\n                /* \"--CODEGEN--\":295:321   */\n              and\n                /* \"--CODEGEN--\":356:360   */\n              dup2\n                /* \"--CODEGEN--\":350:353   */\n              dup5\n                /* \"--CODEGEN--\":344:354   */\n              mload\n                /* \"--CODEGEN--\":340:361   */\n              and\n                /* \"--CODEGEN--\":389:396   */\n              dup1\n                /* \"--CODEGEN--\":380:387   */\n              dup3\n                /* \"--CODEGEN--\":377:397   */\n              or\n                /* \"--CODEGEN--\":372:375   */\n              dup6\n                /* \"--CODEGEN--\":365:398   */\n              mstore\n                /* \"--CODEGEN--\":3:402   */\n              pop\n              pop\n              pop\n                /* \"contracts/StakingRewardsFactory_flattened.sol\":16598:16623  address(token).call(data) */\n              pop\n              pop\n              pop\n              swap1\n              pop\n              add\n              swap2\n              pop\n              pop\n              0x00\n              mload(0x40)\n              dup1\n              dup4\n              sub\n              dup2\n              0x00\n              dup7\n              gas\n              call\n              swap2\n              pop\n              pop\n              returndatasize\n                /* \"--CODEGEN--\":14:15   */\n              dup1\n                /* \"--CODEGEN--\":21:22   */\n              0x00\n                /* \"--CODEGEN--\":16:47   */\n              dup2\n              eq\n              tag_206\n              jumpi\n                /* \"--CODEGEN--\":75:79   */\n              0x40\n                /* \"--CODEGEN--\":69:80   */\n              mload\n                /* \"--CODEGEN--\":64:80   */\n              swap2\n              pop\n                /* \"--CODEGEN--\":144:148   */\n              0x1f\n                /* \"--CODEGEN--\":140:149   */\n              not\n                /* \"--CODEGEN--\":133:137   */\n              0x3f\n                /* \"--CODEGEN--\":115:131   */\n              returndatasize\n                /* \"--CODEGEN--\":111:138   */\n              add\n                /* \"--CODEGEN--\":107:150   */\n              and\n                /* \"--CODEGEN--\":104:105   */\n              dup3\n                /* \"--CODEGEN--\":100:151   */\n              add\n                /* \"--CODEGEN--\":94:98   */\n              0x40\n                /* \"--CODEGEN--\":87:152   */\n              mstore\n                /* \"--CODEGEN--\":169:185   */\n              returndatasize\n                /* \"--CODEGEN--\":166:167   */\n              dup3\n                /* \"--CODEGEN--\":159:186   */\n              mstore\n                /* \"--CODEGEN--\":225:241   */\n              returndatasize\n                /* \"--CODEGEN--\":222:223   */\n              0x00\n                /* \"--CODEGEN--\":215:219   */\n              0x20\n                /* \"--CODEGEN--\":212:213   */\n              dup5\n                /* \"--CODEGEN--\":208:220   */\n              add\n                /* \"--CODEGEN--\":193:242   */\n              returndatacopy\n                /* \"--CODEGEN--\":7:249   */\n              jump(tag_205)\n                /* \"--CODEGEN--\":16:47   */\n            tag_206:\n                /* \"--CODEGEN--\":36:40   */\n              0x60\n                /* \"--CODEGEN--\":31:40   */\n              swap2\n              pop\n                /* \"--CODEGEN--\":7:249   */\n            tag_205:\n              pop\n                /* \"contracts/StakingRewardsFactory_flattened.sol\":16556:16623  (bool success, bytes memory returndata) = address(token).call(data) */\n              swap2\n              pop\n              swap2\n              pop\n                /* \"contracts/StakingRewardsFactory_flattened.sol\":16641:16648  success */\n              dup2\n                /* \"contracts/StakingRewardsFactory_flattened.sol\":16633:16685  require(success, \"SafeERC20: low-level call failed\") */\n              tag_207\n              jumpi\n              mload(0x40)\n              0x08c379a000000000000000000000000000000000000000000000000000000000\n              dup2\n              mstore\n              0x04\n              add\n              dup1\n              dup1\n              0x20\n              add\n              dup3\n              dup2\n              sub\n              dup3\n              mstore\n              0x20\n              dup2\n              mstore\n              0x20\n              add\n              dup1\n              0x5361666545524332303a206c6f772d6c6576656c2063616c6c206661696c6564\n              dup2\n              mstore\n              pop\n              0x20\n              add\n              swap2\n              pop\n              pop\n              mload(0x40)\n              dup1\n              swap2\n              sub\n              swap1\n              revert\n            tag_207:\n                /* \"contracts/StakingRewardsFactory_flattened.sol\":16720:16721  0 */\n              0x00\n                /* \"contracts/StakingRewardsFactory_flattened.sol\":16700:16710  returndata */\n              dup2\n                /* \"contracts/StakingRewardsFactory_flattened.sol\":16700:16717  returndata.length */\n              mload\n                /* \"contracts/StakingRewardsFactory_flattened.sol\":16700:16721  returndata.length > 0 */\n              gt\n                /* \"contracts/StakingRewardsFactory_flattened.sol\":16696:16917  if (returndata.length > 0) { // Return data is optional... */\n              iszero\n              tag_208\n              jumpi\n                /* \"contracts/StakingRewardsFactory_flattened.sol\":16840:16850  returndata */\n              dup1\n                /* \"contracts/StakingRewardsFactory_flattened.sol\":16829:16859  abi.decode(returndata, (bool)) */\n              dup1\n              0x20\n              add\n              swap1\n              mload\n                /* \"--CODEGEN--\":13:15   */\n              0x20\n                /* \"--CODEGEN--\":8:11   */\n              dup2\n                /* \"--CODEGEN--\":5:16   */\n              lt\n                /* \"--CODEGEN--\":2:4   */\n              iszero\n              tag_209\n              jumpi\n                /* \"--CODEGEN--\":29:30   */\n              0x00\n                /* \"--CODEGEN--\":26:27   */\n              dup1\n                /* \"--CODEGEN--\":19:31   */\n              revert\n                /* \"--CODEGEN--\":2:4   */\n            tag_209:\n                /* \"contracts/StakingRewardsFactory_flattened.sol\":16829:16859  abi.decode(returndata, (bool)) */\n              dup2\n              add\n              swap1\n              dup1\n              dup1\n              mload\n              swap1\n              0x20\n              add\n              swap1\n              swap3\n              swap2\n              swap1\n              pop\n              pop\n              pop\n                /* \"contracts/StakingRewardsFactory_flattened.sol\":16821:16906  require(abi.decode(returndata, (bool)), \"SafeERC20: ERC20 operation did not succeed\") */\n              tag_210\n              jumpi\n              mload(0x40)\n              0x08c379a000000000000000000000000000000000000000000000000000000000\n              dup2\n              mstore\n              0x04\n              add\n              dup1\n              dup1\n              0x20\n              add\n              dup3\n              dup2\n              sub\n              dup3\n              mstore\n              0x2a\n              dup2\n              mstore\n              0x20\n              add\n              dup1\n              data_e11ad79d1e4a7f2e5f376964cb99e8e8f7904e3fc16a109f7a7ecb9aa7956dcd\n              0x2a\n              swap2\n              codecopy\n              0x40\n              add\n              swap2\n              pop\n              pop\n              mload(0x40)\n              dup1\n              swap2\n              sub\n              swap1\n              revert\n            tag_210:\n                /* \"contracts/StakingRewardsFactory_flattened.sol\":16696:16917  if (returndata.length > 0) { // Return data is optional... */\n            tag_208:\n                /* \"contracts/StakingRewardsFactory_flattened.sol\":15828:16923  function callOptionalReturn(IERC20 token, bytes memory data) private {... */\n              pop\n              pop\n              pop\n              pop\n              jump\t// out\n                /* \"contracts/StakingRewardsFactory_flattened.sol\":3250:3663  function isContract(address account) internal view returns (bool) {... */\n            tag_200:\n                /* \"contracts/StakingRewardsFactory_flattened.sol\":3310:3314  bool */\n              0x00\n                /* \"contracts/StakingRewardsFactory_flattened.sol\":3513:3525  uint256 size */\n              dup1\n                /* \"contracts/StakingRewardsFactory_flattened.sol\":3622:3629  account */\n              dup3\n                /* \"contracts/StakingRewardsFactory_flattened.sol\":3610:3630  extcodesize(account) */\n              extcodesize\n                /* \"contracts/StakingRewardsFactory_flattened.sol\":3602:3630  size := extcodesize(account) */\n              swap1\n              pop\n                /* \"contracts/StakingRewardsFactory_flattened.sol\":3655:3656  0 */\n              0x00\n                /* \"contracts/StakingRewardsFactory_flattened.sol\":3648:3652  size */\n              dup2\n                /* \"contracts/StakingRewardsFactory_flattened.sol\":3648:3656  size > 0 */\n              gt\n                /* \"contracts/StakingRewardsFactory_flattened.sol\":3641:3656  return size > 0 */\n              swap2\n              pop\n              pop\n                /* \"contracts/StakingRewardsFactory_flattened.sol\":3250:3663  function isContract(address account) internal view returns (bool) {... */\n              swap2\n              swap1\n              pop\n              jump\t// out\n            stop\n            data_9113bb53c2876a3805b2c9242029423fc540a728243ce887ab24c82cf119fba3 536166654d6174683a206d756c7469706c69636174696f6e206f766572666c6f77\n            data_d50b095422f4cbfcb4c90fbd4d55aaf0967bf1d90e94bb6a1ae9fc4ee7e733de 43616c6c6572206973206e6f742052657761726473446973747269627574696f6e20636f6e7472616374\n            data_e11ad79d1e4a7f2e5f376964cb99e8e8f7904e3fc16a109f7a7ecb9aa7956dcd 5361666545524332303a204552433230206f7065726174696f6e20646964206e6f742073756363656564\n\n            auxdata: 0xa265627a7a72315820cf4e1e466009cf6749cbd9120dbda62d178ca26a10ec918c8e7df88d0b60cb3564736f6c63430005100032\n        }\n    }\n\n    auxdata: 0xa265627a7a7231582071f6ef73c0a8f6d7153e607e0edeb798237a8cd086f41c461ec1250c6f25c86364736f6c63430005100032\n}\n",
				"bytecode": {
					"linkReferences": {},
					"object": "608060405234801561001057600080fd5b5060405161355f38038061355f8339818101604052604081101561003357600080fd5b810190808051906020019092919080519060200190929190505050336000806101000a81548173ffffffffffffffffffffffffffffffffffffffff021916908373ffffffffffffffffffffffffffffffffffffffff1602179055506000809054906101000a900473ffffffffffffffffffffffffffffffffffffffff1673ffffffffffffffffffffffffffffffffffffffff16600073ffffffffffffffffffffffffffffffffffffffff167f8be0079c531659141344cd1fd0a4f28419497f9722a3daafe3b4186f6b6457e060405160405180910390a342811015610163576040517f08c379a000000000000000000000000000000000000000000000000000000000815260040180806020018281038252603481526020018061352b6034913960400191505060405180910390fd5b81600160006101000a81548173ffffffffffffffffffffffffffffffffffffffff021916908373ffffffffffffffffffffffffffffffffffffffff16021790555080600281905550505061336f806101bc6000396000f3fe608060405234801561001057600080fd5b50600436106100a95760003560e01c80638f32d59b116100715780638f32d59b1461023f578063a0928c1114610261578063ae741d8d1461027f578063cfda547814610289578063d1af0c7d146102e1578063f2fde38b1461032b576100a9565b8063344e5e34146100ae5780636cf8caf81461011c578063715018a6146101a757806381e16298146101b15780638da5cb5b146101f5575b600080fd5b6100da600480360360208110156100c457600080fd5b810190808035906020019092919050505061036f565b604051808273ffffffffffffffffffffffffffffffffffffffff1673ffffffffffffffffffffffffffffffffffffffff16815260200191505060405180910390f35b61015e6004803603602081101561013257600080fd5b81019080803573ffffffffffffffffffffffffffffffffffffffff1690602001909291905050506103ab565b604051808373ffffffffffffffffffffffffffffffffffffffff1673ffffffffffffffffffffffffffffffffffffffff1681526020018281526020019250505060405180910390f35b6101af6103ef565b005b6101f3600480360360208110156101c757600080fd5b81019080803573ffffffffffffffffffffffffffffffffffffffff169060200190929190505050610528565b005b6101fd610882565b604051808273ffffffffffffffffffffffffffffffffffffffff1673ffffffffffffffffffffffffffffffffffffffff16815260200191505060405180910390f35b6102476108ab565b604051808215151515815260200191505060405180910390f35b610269610902565b6040518082815260200191505060405180910390f35b610287610908565b005b6102df6004803603606081101561029f57600080fd5b81019080803573ffffffffffffffffffffffffffffffffffffffff16906020019092919080359060200190929190803590602001909291905050506109c9565b005b6102e9610d32565b604051808273ffffffffffffffffffffffffffffffffffffffff1673ffffffffffffffffffffffffffffffffffffffff16815260200191505060405180910390f35b61036d6004803603602081101561034157600080fd5b81019080803573ffffffffffffffffffffffffffffffffffffffff169060200190929190505050610d58565b005b6003818154811061037c57fe5b906000526020600020016000915054906101000a900473ffffffffffffffffffffffffffffffffffffffff1681565b60046020528060005260406000206000915090508060000160009054906101000a900473ffffffffffffffffffffffffffffffffffffffff16908060010154905082565b6103f76108ab565b610469576040517f08c379a00000000000000000000000000000000000000000000000000000000081526004018080602001828103825260208152602001807f4f776e61626c653a2063616c6c6572206973206e6f7420746865206f776e657281525060200191505060405180910390fd5b600073ffffffffffffffffffffffffffffffffffffffff166000809054906101000a900473ffffffffffffffffffffffffffffffffffffffff1673ffffffffffffffffffffffffffffffffffffffff167f8be0079c531659141344cd1fd0a4f28419497f9722a3daafe3b4186f6b6457e060405160405180910390a360008060006101000a81548173ffffffffffffffffffffffffffffffffffffffff021916908373ffffffffffffffffffffffffffffffffffffffff160217905550565b600254421015610583576040517f08c379a00000000000000000000000000000000000000000000000000000000081526004018080602001828103825260348152602001806132d06034913960400191505060405180910390fd5b6000600460008373ffffffffffffffffffffffffffffffffffffffff1673ffffffffffffffffffffffffffffffffffffffff1681526020019081526020016000209050600073ffffffffffffffffffffffffffffffffffffffff168160000160009054906101000a900473ffffffffffffffffffffffffffffffffffffffff1673ffffffffffffffffffffffffffffffffffffffff161415610670576040517f08c379a00000000000000000000000000000000000000000000000000000000081526004018080602001828103825260378152602001806133046037913960400191505060405180910390fd5b60008160010154111561087e5760008160010154905060008260010181905550600160009054906101000a900473ffffffffffffffffffffffffffffffffffffffff1673ffffffffffffffffffffffffffffffffffffffff1663a9059cbb8360000160009054906101000a900473ffffffffffffffffffffffffffffffffffffffff16836040518363ffffffff1660e01b8152600401808373ffffffffffffffffffffffffffffffffffffffff1673ffffffffffffffffffffffffffffffffffffffff16815260200182815260200192505050602060405180830381600087803b15801561075d57600080fd5b505af1158015610771573d6000803e3d6000fd5b505050506040513d602081101561078757600080fd5b81019080805190602001909291905050506107ed576040517f08c379a000000000000000000000000000000000000000000000000000000000815260040180806020018281038252603a815260200180613258603a913960400191505060405180910390fd5b8160000160009054906101000a900473ffffffffffffffffffffffffffffffffffffffff1673ffffffffffffffffffffffffffffffffffffffff16633c6b16ab826040518263ffffffff1660e01b815260040180828152602001915050600060405180830381600087803b15801561086457600080fd5b505af1158015610878573d6000803e3d6000fd5b50505050505b5050565b60008060009054906101000a900473ffffffffffffffffffffffffffffffffffffffff16905090565b60008060009054906101000a900473ffffffffffffffffffffffffffffffffffffffff1673ffffffffffffffffffffffffffffffffffffffff163373ffffffffffffffffffffffffffffffffffffffff1614905090565b60025481565b600060038054905011610966576040517f08c379a00000000000000000000000000000000000000000000000000000000081526004018080602001828103825260458152602001806132136045913960600191505060405180910390fd5b60008090505b6003805490508110156109c6576109b96003828154811061098957fe5b9060005260206000200160009054906101000a900473ffffffffffffffffffffffffffffffffffffffff16610528565b808060010191505061096c565b50565b6109d16108ab565b610a43576040517f08c379a00000000000000000000000000000000000000000000000000000000081526004018080602001828103825260208152602001807f4f776e61626c653a2063616c6c6572206973206e6f7420746865206f776e657281525060200191505060405180910390fd5b6000600460008573ffffffffffffffffffffffffffffffffffffffff1673ffffffffffffffffffffffffffffffffffffffff16815260200190815260200160002090506000821015610ae0576040517f08c379a000000000000000000000000000000000000000000000000000000000815260040180806020018281038252603e815260200180613292603e913960400191505060405180910390fd5b600073ffffffffffffffffffffffffffffffffffffffff168160000160009054906101000a900473ffffffffffffffffffffffffffffffffffffffff1673ffffffffffffffffffffffffffffffffffffffff1614610b89576040517f08c379a000000000000000000000000000000000000000000000000000000000815260040180806020018281038252602f8152602001806131e4602f913960400191505060405180910390fd5b30600160009054906101000a900473ffffffffffffffffffffffffffffffffffffffff168386604051610bbb90610f22565b808573ffffffffffffffffffffffffffffffffffffffff1673ffffffffffffffffffffffffffffffffffffffff1681526020018473ffffffffffffffffffffffffffffffffffffffff1673ffffffffffffffffffffffffffffffffffffffff1681526020018381526020018273ffffffffffffffffffffffffffffffffffffffff1673ffffffffffffffffffffffffffffffffffffffff168152602001945050505050604051809103906000f080158015610c7a573d6000803e3d6000fd5b508160000160006101000a81548173ffffffffffffffffffffffffffffffffffffffff021916908373ffffffffffffffffffffffffffffffffffffffff16021790555082816001018190555060038490806001815401808255809150509060018203906000526020600020016000909192909190916101000a81548173ffffffffffffffffffffffffffffffffffffffff021916908373ffffffffffffffffffffffffffffffffffffffff1602179055505050505050565b600160009054906101000a900473ffffffffffffffffffffffffffffffffffffffff1681565b610d606108ab565b610dd2576040517f08c379a00000000000000000000000000000000000000000000000000000000081526004018080602001828103825260208152602001807f4f776e61626c653a2063616c6c6572206973206e6f7420746865206f776e657281525060200191505060405180910390fd5b610ddb81610dde565b50565b600073ffffffffffffffffffffffffffffffffffffffff168173ffffffffffffffffffffffffffffffffffffffff161415610e64576040517f08c379a00000000000000000000000000000000000000000000000000000000081526004018080602001828103825260268152602001806131be6026913960400191505060405180910390fd5b8073ffffffffffffffffffffffffffffffffffffffff166000809054906101000a900473ffffffffffffffffffffffffffffffffffffffff1673ffffffffffffffffffffffffffffffffffffffff167f8be0079c531659141344cd1fd0a4f28419497f9722a3daafe3b4186f6b6457e060405160405180910390a3806000806101000a81548173ffffffffffffffffffffffffffffffffffffffff021916908373ffffffffffffffffffffffffffffffffffffffff16021790555050565b61228e80610f308339019056fe608060405260006004556000600555600060065534801561001f57600080fd5b5060405161228e38038061228e8339818101604052608081101561004257600080fd5b81019080805190602001909291908051906020019092919080519060200190929190805190602001909291905050506001808190555082600260006101000a81548173ffffffffffffffffffffffffffffffffffffffff021916908373ffffffffffffffffffffffffffffffffffffffff16021790555080600360006101000a81548173ffffffffffffffffffffffffffffffffffffffff021916908373ffffffffffffffffffffffffffffffffffffffff160217905550620151808202600681905550836000806101000a81548173ffffffffffffffffffffffffffffffffffffffff021916908373ffffffffffffffffffffffffffffffffffffffff16021790555050505050612135806101596000396000f3fe608060405234801561001057600080fd5b50600436106101415760003560e01c80637b0a47ee116100b8578063cd3daf9d1161007c578063cd3daf9d14610482578063d1af0c7d146104a0578063df136d65146104ea578063e9fad8ee14610508578063ebe2b12b14610512578063ecd9ba821461053057610141565b80637b0a47ee146103a257806380faa57d146103c05780638b876347146103de578063a694fc3a14610436578063c8f33c911461046457610141565b8063386a95251161010a578063386a9525146102605780633c6b16ab1461027e5780633d18b912146102ac5780633fc6df6e146102b657806370a082311461030057806372f702f31461035857610141565b80628cc262146101465780630700037d1461019e57806318160ddd146101f65780631c1f78eb146102145780632e1a7d4d14610232575b600080fd5b6101886004803603602081101561015c57600080fd5b81019080803573ffffffffffffffffffffffffffffffffffffffff169060200190929190505050610589565b6040518082815260200191505060405180910390f35b6101e0600480360360208110156101b457600080fd5b81019080803573ffffffffffffffffffffffffffffffffffffffff1690602001909291905050506106a7565b6040518082815260200191505060405180910390f35b6101fe6106bf565b6040518082815260200191505060405180910390f35b61021c6106c9565b6040518082815260200191505060405180910390f35b61025e6004803603602081101561024857600080fd5b81019080803590602001909291905050506106e7565b005b610268610a1f565b6040518082815260200191505060405180910390f35b6102aa6004803603602081101561029457600080fd5b8101908080359060200190929190505050610a25565b005b6102b4610e02565b005b6102be6110a7565b604051808273ffffffffffffffffffffffffffffffffffffffff1673ffffffffffffffffffffffffffffffffffffffff16815260200191505060405180910390f35b6103426004803603602081101561031657600080fd5b81019080803573ffffffffffffffffffffffffffffffffffffffff1690602001909291905050506110cc565b6040518082815260200191505060405180910390f35b610360611115565b604051808273ffffffffffffffffffffffffffffffffffffffff1673ffffffffffffffffffffffffffffffffffffffff16815260200191505060405180910390f35b6103aa61113b565b6040518082815260200191505060405180910390f35b6103c8611141565b6040518082815260200191505060405180910390f35b610420600480360360208110156103f457600080fd5b81019080803573ffffffffffffffffffffffffffffffffffffffff169060200190929190505050611154565b6040518082815260200191505060405180910390f35b6104626004803603602081101561044c57600080fd5b810190808035906020019092919050505061116c565b005b61046c6114a6565b6040518082815260200191505060405180910390f35b61048a6114ac565b6040518082815260200191505060405180910390f35b6104a861153a565b604051808273ffffffffffffffffffffffffffffffffffffffff1673ffffffffffffffffffffffffffffffffffffffff16815260200191505060405180910390f35b6104f2611560565b6040518082815260200191505060405180910390f35b610510611566565b005b61051a6115b8565b6040518082815260200191505060405180910390f35b610587600480360360a081101561054657600080fd5b810190808035906020019092919080359060200190929190803560ff16906020019092919080359060200190929190803590602001909291905050506115be565b005b60006106a0600a60008473ffffffffffffffffffffffffffffffffffffffff1673ffffffffffffffffffffffffffffffffffffffff16815260200190815260200160002054610692670de0b6b3a7640000610684610636600960008973ffffffffffffffffffffffffffffffffffffffff1673ffffffffffffffffffffffffffffffffffffffff168152602001908152602001600020546106286114ac565b611a1790919063ffffffff16565b600c60008973ffffffffffffffffffffffffffffffffffffffff1673ffffffffffffffffffffffffffffffffffffffff16815260200190815260200160002054611aa090919063ffffffff16565b611b2690919063ffffffff16565b611bb590919063ffffffff16565b9050919050565b600a6020528060005260406000206000915090505481565b6000600b54905090565b60006106e2600654600554611aa090919063ffffffff16565b905090565b6001806000828254019250508190555060006001549050336107076114ac565b600881905550610715611141565b600781905550600073ffffffffffffffffffffffffffffffffffffffff168173ffffffffffffffffffffffffffffffffffffffff16146107e25761075881610589565b600a60008373ffffffffffffffffffffffffffffffffffffffff1673ffffffffffffffffffffffffffffffffffffffff16815260200190815260200160002081905550600854600960008373ffffffffffffffffffffffffffffffffffffffff1673ffffffffffffffffffffffffffffffffffffffff168152602001908152602001600020819055505b60008311610858576040517f08c379a00000000000000000000000000000000000000000000000000000000081526004018080602001828103825260118152602001807f43616e6e6f74207769746864726177203000000000000000000000000000000081525060200191505060405180910390fd5b61086d83600b54611a1790919063ffffffff16565b600b819055506108c583600c60003373ffffffffffffffffffffffffffffffffffffffff1673ffffffffffffffffffffffffffffffffffffffff16815260200190815260200160002054611a1790919063ffffffff16565b600c60003373ffffffffffffffffffffffffffffffffffffffff1673ffffffffffffffffffffffffffffffffffffffff168152602001908152602001600020819055506109553384600360009054906101000a900473ffffffffffffffffffffffffffffffffffffffff1673ffffffffffffffffffffffffffffffffffffffff16611c3d9092919063ffffffff16565b3373ffffffffffffffffffffffffffffffffffffffff167f7084f5476618d8e60b11ef0d7d3f06914655adb8793e28ff7f018d4c76d505d5846040518082815260200191505060405180910390a2506001548114610a1b576040517f08c379a000000000000000000000000000000000000000000000000000000000815260040180806020018281038252601f8152602001807f5265656e7472616e637947756172643a207265656e7472616e742063616c6c0081525060200191505060405180910390fd5b5050565b60065481565b6000809054906101000a900473ffffffffffffffffffffffffffffffffffffffff1673ffffffffffffffffffffffffffffffffffffffff163373ffffffffffffffffffffffffffffffffffffffff1614610aca576040517f08c379a000000000000000000000000000000000000000000000000000000000815260040180806020018281038252602a8152602001806120ad602a913960400191505060405180910390fd5b6000610ad46114ac565b600881905550610ae2611141565b600781905550600073ffffffffffffffffffffffffffffffffffffffff168173ffffffffffffffffffffffffffffffffffffffff1614610baf57610b2581610589565b600a60008373ffffffffffffffffffffffffffffffffffffffff1673ffffffffffffffffffffffffffffffffffffffff16815260200190815260200160002081905550600854600960008373ffffffffffffffffffffffffffffffffffffffff1673ffffffffffffffffffffffffffffffffffffffff168152602001908152602001600020819055505b6004544210610bd857610bcd60065483611b2690919063ffffffff16565b600581905550610c3a565b6000610bef42600454611a1790919063ffffffff16565b90506000610c0860055483611aa090919063ffffffff16565b9050610c31600654610c238387611bb590919063ffffffff16565b611b2690919063ffffffff16565b60058190555050505b6000600260009054906101000a900473ffffffffffffffffffffffffffffffffffffffff1673ffffffffffffffffffffffffffffffffffffffff166370a08231306040518263ffffffff1660e01b8152600401808273ffffffffffffffffffffffffffffffffffffffff1673ffffffffffffffffffffffffffffffffffffffff16815260200191505060206040518083038186803b158015610cdb57600080fd5b505afa158015610cef573d6000803e3d6000fd5b505050506040513d6020811015610d0557600080fd5b81019080805190602001909291905050509050610d2d60065482611b2690919063ffffffff16565b6005541115610da4576040517f08c379a00000000000000000000000000000000000000000000000000000000081526004018080602001828103825260188152602001807f50726f76696465642072657761726420746f6f2068696768000000000000000081525060200191505060405180910390fd5b42600781905550610dc060065442611bb590919063ffffffff16565b6004819055507fde88a922e0d3b88b24e9623efeb464919c6bf9f66857a65e2bfcf2ce87a9433d836040518082815260200191505060405180910390a1505050565b600180600082825401925050819055506000600154905033610e226114ac565b600881905550610e30611141565b600781905550600073ffffffffffffffffffffffffffffffffffffffff168173ffffffffffffffffffffffffffffffffffffffff1614610efd57610e7381610589565b600a60008373ffffffffffffffffffffffffffffffffffffffff1673ffffffffffffffffffffffffffffffffffffffff16815260200190815260200160002081905550600854600960008373ffffffffffffffffffffffffffffffffffffffff1673ffffffffffffffffffffffffffffffffffffffff168152602001908152602001600020819055505b6000600a60003373ffffffffffffffffffffffffffffffffffffffff1673ffffffffffffffffffffffffffffffffffffffff168152602001908152602001600020549050600081111561102b576000600a60003373ffffffffffffffffffffffffffffffffffffffff1673ffffffffffffffffffffffffffffffffffffffff16815260200190815260200160002081905550610fdc3382600260009054906101000a900473ffffffffffffffffffffffffffffffffffffffff1673ffffffffffffffffffffffffffffffffffffffff16611c3d9092919063ffffffff16565b3373ffffffffffffffffffffffffffffffffffffffff167fe2403640ba68fed3a2f88b7557551d1993f84b99bb10ff833f0cf8db0c5e0486826040518082815260200191505060405180910390a25b505060015481146110a4576040517f08c379a000000000000000000000000000000000000000000000000000000000815260040180806020018281038252601f8152602001807f5265656e7472616e637947756172643a207265656e7472616e742063616c6c0081525060200191505060405180910390fd5b50565b6000809054906101000a900473ffffffffffffffffffffffffffffffffffffffff1681565b6000600c60008373ffffffffffffffffffffffffffffffffffffffff1673ffffffffffffffffffffffffffffffffffffffff168152602001908152602001600020549050919050565b600360009054906101000a900473ffffffffffffffffffffffffffffffffffffffff1681565b60055481565b600061114f42600454611d0e565b905090565b60096020528060005260406000206000915090505481565b60018060008282540192505081905550600060015490503361118c6114ac565b60088190555061119a611141565b600781905550600073ffffffffffffffffffffffffffffffffffffffff168173ffffffffffffffffffffffffffffffffffffffff1614611267576111dd81610589565b600a60008373ffffffffffffffffffffffffffffffffffffffff1673ffffffffffffffffffffffffffffffffffffffff16815260200190815260200160002081905550600854600960008373ffffffffffffffffffffffffffffffffffffffff1673ffffffffffffffffffffffffffffffffffffffff168152602001908152602001600020819055505b600083116112dd576040517f08c379a000000000000000000000000000000000000000000000000000000000815260040180806020018281038252600e8152602001807f43616e6e6f74207374616b65203000000000000000000000000000000000000081525060200191505060405180910390fd5b6112f283600b54611bb590919063ffffffff16565b600b8190555061134a83600c60003373ffffffffffffffffffffffffffffffffffffffff1673ffffffffffffffffffffffffffffffffffffffff16815260200190815260200160002054611bb590919063ffffffff16565b600c60003373ffffffffffffffffffffffffffffffffffffffff1673ffffffffffffffffffffffffffffffffffffffff168152602001908152602001600020819055506113dc333085600360009054906101000a900473ffffffffffffffffffffffffffffffffffffffff1673ffffffffffffffffffffffffffffffffffffffff16611d27909392919063ffffffff16565b3373ffffffffffffffffffffffffffffffffffffffff167f9e71bc8eea02a63969f509818f2dafb9254532904319f9dbda79b67bd34a5f3d846040518082815260200191505060405180910390a25060015481146114a2576040517f08c379a000000000000000000000000000000000000000000000000000000000815260040180806020018281038252601f8152602001807f5265656e7472616e637947756172643a207265656e7472616e742063616c6c0081525060200191505060405180910390fd5b5050565b60075481565b600080600b5414156114c2576008549050611537565b611534611523600b54611515670de0b6b3a76400006115076005546114f96007546114eb611141565b611a1790919063ffffffff16565b611aa090919063ffffffff16565b611aa090919063ffffffff16565b611b2690919063ffffffff16565b600854611bb590919063ffffffff16565b90505b90565b600260009054906101000a900473ffffffffffffffffffffffffffffffffffffffff1681565b60085481565b6115ae600c60003373ffffffffffffffffffffffffffffffffffffffff1673ffffffffffffffffffffffffffffffffffffffff168152602001908152602001600020546106e7565b6115b6610e02565b565b60045481565b6001806000828254019250508190555060006001549050336115de6114ac565b6008819055506115ec611141565b600781905550600073ffffffffffffffffffffffffffffffffffffffff168173ffffffffffffffffffffffffffffffffffffffff16146116b95761162f81610589565b600a60008373ffffffffffffffffffffffffffffffffffffffff1673ffffffffffffffffffffffffffffffffffffffff16815260200190815260200160002081905550600854600960008373ffffffffffffffffffffffffffffffffffffffff1673ffffffffffffffffffffffffffffffffffffffff168152602001908152602001600020819055505b6000871161172f576040517f08c379a000000000000000000000000000000000000000000000000000000000815260040180806020018281038252600e8152602001807f43616e6e6f74207374616b65203000000000000000000000000000000000000081525060200191505060405180910390fd5b61174487600b54611bb590919063ffffffff16565b600b8190555061179c87600c60003373ffffffffffffffffffffffffffffffffffffffff1673ffffffffffffffffffffffffffffffffffffffff16815260200190815260200160002054611bb590919063ffffffff16565b600c60003373ffffffffffffffffffffffffffffffffffffffff1673ffffffffffffffffffffffffffffffffffffffff16815260200190815260200160002081905550600360009054906101000a900473ffffffffffffffffffffffffffffffffffffffff1673ffffffffffffffffffffffffffffffffffffffff1663d505accf33308a8a8a8a8a6040518863ffffffff1660e01b8152600401808873ffffffffffffffffffffffffffffffffffffffff1673ffffffffffffffffffffffffffffffffffffffff1681526020018773ffffffffffffffffffffffffffffffffffffffff1673ffffffffffffffffffffffffffffffffffffffff1681526020018681526020018581526020018460ff1660ff168152602001838152602001828152602001975050505050505050600060405180830381600087803b1580156118e257600080fd5b505af11580156118f6573d6000803e3d6000fd5b50505050611949333089600360009054906101000a900473ffffffffffffffffffffffffffffffffffffffff1673ffffffffffffffffffffffffffffffffffffffff16611d27909392919063ffffffff16565b3373ffffffffffffffffffffffffffffffffffffffff167f9e71bc8eea02a63969f509818f2dafb9254532904319f9dbda79b67bd34a5f3d886040518082815260200191505060405180910390a2506001548114611a0f576040517f08c379a000000000000000000000000000000000000000000000000000000000815260040180806020018281038252601f8152602001807f5265656e7472616e637947756172643a207265656e7472616e742063616c6c0081525060200191505060405180910390fd5b505050505050565b600082821115611a8f576040517f08c379a000000000000000000000000000000000000000000000000000000000815260040180806020018281038252601e8152602001807f536166654d6174683a207375627472616374696f6e206f766572666c6f77000081525060200191505060405180910390fd5b600082840390508091505092915050565b600080831415611ab35760009050611b20565b6000828402905082848281611ac457fe5b0414611b1b576040517f08c379a000000000000000000000000000000000000000000000000000000000815260040180806020018281038252602181526020018061208c6021913960400191505060405180910390fd5b809150505b92915050565b6000808211611b9d576040517f08c379a000000000000000000000000000000000000000000000000000000000815260040180806020018281038252601a8152602001807f536166654d6174683a206469766973696f6e206279207a65726f00000000000081525060200191505060405180910390fd5b6000828481611ba857fe5b0490508091505092915050565b600080828401905083811015611c33576040517f08c379a000000000000000000000000000000000000000000000000000000000815260040180806020018281038252601b8152602001807f536166654d6174683a206164646974696f6e206f766572666c6f77000000000081525060200191505060405180910390fd5b8091505092915050565b611d09838473ffffffffffffffffffffffffffffffffffffffff1663a9059cbb905060e01b8484604051602401808373ffffffffffffffffffffffffffffffffffffffff1673ffffffffffffffffffffffffffffffffffffffff16815260200182815260200192505050604051602081830303815290604052907bffffffffffffffffffffffffffffffffffffffffffffffffffffffff19166020820180517bffffffffffffffffffffffffffffffffffffffffffffffffffffffff8381831617835250505050611e2d565b505050565b6000818310611d1d5781611d1f565b825b905092915050565b611e27848573ffffffffffffffffffffffffffffffffffffffff166323b872dd905060e01b858585604051602401808473ffffffffffffffffffffffffffffffffffffffff1673ffffffffffffffffffffffffffffffffffffffff1681526020018373ffffffffffffffffffffffffffffffffffffffff1673ffffffffffffffffffffffffffffffffffffffff1681526020018281526020019350505050604051602081830303815290604052907bffffffffffffffffffffffffffffffffffffffffffffffffffffffff19166020820180517bffffffffffffffffffffffffffffffffffffffffffffffffffffffff8381831617835250505050611e2d565b50505050565b611e4c8273ffffffffffffffffffffffffffffffffffffffff16612078565b611ebe576040517f08c379a000000000000000000000000000000000000000000000000000000000815260040180806020018281038252601f8152602001807f5361666545524332303a2063616c6c20746f206e6f6e2d636f6e74726163740081525060200191505060405180910390fd5b600060608373ffffffffffffffffffffffffffffffffffffffff16836040518082805190602001908083835b60208310611f0d5780518252602082019150602081019050602083039250611eea565b6001836020036101000a0380198251168184511680821785525050505050509050019150506000604051808303816000865af19150503d8060008114611f6f576040519150601f19603f3d011682016040523d82523d6000602084013e611f74565b606091505b509150915081611fec576040517f08c379a00000000000000000000000000000000000000000000000000000000081526004018080602001828103825260208152602001807f5361666545524332303a206c6f772d6c6576656c2063616c6c206661696c656481525060200191505060405180910390fd5b6000815111156120725780806020019051602081101561200b57600080fd5b8101908080519060200190929190505050612071576040517f08c379a000000000000000000000000000000000000000000000000000000000815260040180806020018281038252602a8152602001806120d7602a913960400191505060405180910390fd5b5b50505050565b600080823b90506000811191505091905056fe536166654d6174683a206d756c7469706c69636174696f6e206f766572666c6f7743616c6c6572206973206e6f742052657761726473446973747269627574696f6e20636f6e74726163745361666545524332303a204552433230206f7065726174696f6e20646964206e6f742073756363656564a265627a7a72315820cf4e1e466009cf6749cbd9120dbda62d178ca26a10ec918c8e7df88d0b60cb3564736f6c634300051000324f776e61626c653a206e6577206f776e657220697320746865207a65726f20616464726573735374616b696e6752657761726473466163746f72793a3a6465706c6f793a20616c7265616479206465706c6f7965645374616b696e6752657761726473466163746f72793a3a6e6f74696679526577617264416d6f756e74733a2063616c6c6564206265666f726520616e79206465706c6f79735374616b696e6752657761726473466163746f72793a3a6e6f74696679526577617264416d6f756e743a207472616e73666572206661696c65645374616b696e6752657761726473466163746f72793a3a6465706c6f793a20726577617264734475726174696f6e2063616e206e6f74206265207a65726f5374616b696e6752657761726473466163746f72793a3a6e6f74696679526577617264416d6f756e743a206e6f742072656164795374616b696e6752657761726473466163746f72793a3a6e6f74696679526577617264416d6f756e743a206e6f74206465706c6f796564a265627a7a7231582071f6ef73c0a8f6d7153e607e0edeb798237a8cd086f41c461ec1250c6f25c86364736f6c634300051000325374616b696e6752657761726473466163746f72793a3a636f6e7374727563746f723a2067656e6573697320746f6f20736f6f6e",
					"opcodes": "PUSH1 0x80 PUSH1 0x40 MSTORE CALLVALUE DUP1 ISZERO PUSH2 0x10 JUMPI PUSH1 0x0 DUP1 REVERT JUMPDEST POP PUSH1 0x40 MLOAD PUSH2 0x355F CODESIZE SUB DUP1 PUSH2 0x355F DUP4 CODECOPY DUP2 DUP2 ADD PUSH1 0x40 MSTORE PUSH1 0x40 DUP2 LT ISZERO PUSH2 0x33 JUMPI PUSH1 0x0 DUP1 REVERT JUMPDEST DUP2 ADD SWAP1 DUP1 DUP1 MLOAD SWAP1 PUSH1 0x20 ADD SWAP1 SWAP3 SWAP2 SWAP1 DUP1 MLOAD SWAP1 PUSH1 0x20 ADD SWAP1 SWAP3 SWAP2 SWAP1 POP POP POP CALLER PUSH1 0x0 DUP1 PUSH2 0x100 EXP DUP2 SLOAD DUP2 PUSH20 0xFFFFFFFFFFFFFFFFFFFFFFFFFFFFFFFFFFFFFFFF MUL NOT AND SWAP1 DUP4 PUSH20 0xFFFFFFFFFFFFFFFFFFFFFFFFFFFFFFFFFFFFFFFF AND MUL OR SWAP1 SSTORE POP PUSH1 0x0 DUP1 SWAP1 SLOAD SWAP1 PUSH2 0x100 EXP SWAP1 DIV PUSH20 0xFFFFFFFFFFFFFFFFFFFFFFFFFFFFFFFFFFFFFFFF AND PUSH20 0xFFFFFFFFFFFFFFFFFFFFFFFFFFFFFFFFFFFFFFFF AND PUSH1 0x0 PUSH20 0xFFFFFFFFFFFFFFFFFFFFFFFFFFFFFFFFFFFFFFFF AND PUSH32 0x8BE0079C531659141344CD1FD0A4F28419497F9722A3DAAFE3B4186F6B6457E0 PUSH1 0x40 MLOAD PUSH1 0x40 MLOAD DUP1 SWAP2 SUB SWAP1 LOG3 TIMESTAMP DUP2 LT ISZERO PUSH2 0x163 JUMPI PUSH1 0x40 MLOAD PUSH32 0x8C379A000000000000000000000000000000000000000000000000000000000 DUP2 MSTORE PUSH1 0x4 ADD DUP1 DUP1 PUSH1 0x20 ADD DUP3 DUP2 SUB DUP3 MSTORE PUSH1 0x34 DUP2 MSTORE PUSH1 0x20 ADD DUP1 PUSH2 0x352B PUSH1 0x34 SWAP2 CODECOPY PUSH1 0x40 ADD SWAP2 POP POP PUSH1 0x40 MLOAD DUP1 SWAP2 SUB SWAP1 REVERT JUMPDEST DUP2 PUSH1 0x1 PUSH1 0x0 PUSH2 0x100 EXP DUP2 SLOAD DUP2 PUSH20 0xFFFFFFFFFFFFFFFFFFFFFFFFFFFFFFFFFFFFFFFF MUL NOT AND SWAP1 DUP4 PUSH20 0xFFFFFFFFFFFFFFFFFFFFFFFFFFFFFFFFFFFFFFFF AND MUL OR SWAP1 SSTORE POP DUP1 PUSH1 0x2 DUP2 SWAP1 SSTORE POP POP POP PUSH2 0x336F DUP1 PUSH2 0x1BC PUSH1 0x0 CODECOPY PUSH1 0x0 RETURN INVALID PUSH1 0x80 PUSH1 0x40 MSTORE CALLVALUE DUP1 ISZERO PUSH2 0x10 JUMPI PUSH1 0x0 DUP1 REVERT JUMPDEST POP PUSH1 0x4 CALLDATASIZE LT PUSH2 0xA9 JUMPI PUSH1 0x0 CALLDATALOAD PUSH1 0xE0 SHR DUP1 PUSH4 0x8F32D59B GT PUSH2 0x71 JUMPI DUP1 PUSH4 0x8F32D59B EQ PUSH2 0x23F JUMPI DUP1 PUSH4 0xA0928C11 EQ PUSH2 0x261 JUMPI DUP1 PUSH4 0xAE741D8D EQ PUSH2 0x27F JUMPI DUP1 PUSH4 0xCFDA5478 EQ PUSH2 0x289 JUMPI DUP1 PUSH4 0xD1AF0C7D EQ PUSH2 0x2E1 JUMPI DUP1 PUSH4 0xF2FDE38B EQ PUSH2 0x32B JUMPI PUSH2 0xA9 JUMP JUMPDEST DUP1 PUSH4 0x344E5E34 EQ PUSH2 0xAE JUMPI DUP1 PUSH4 0x6CF8CAF8 EQ PUSH2 0x11C JUMPI DUP1 PUSH4 0x715018A6 EQ PUSH2 0x1A7 JUMPI DUP1 PUSH4 0x81E16298 EQ PUSH2 0x1B1 JUMPI DUP1 PUSH4 0x8DA5CB5B EQ PUSH2 0x1F5 JUMPI JUMPDEST PUSH1 0x0 DUP1 REVERT JUMPDEST PUSH2 0xDA PUSH1 0x4 DUP1 CALLDATASIZE SUB PUSH1 0x20 DUP2 LT ISZERO PUSH2 0xC4 JUMPI PUSH1 0x0 DUP1 REVERT JUMPDEST DUP2 ADD SWAP1 DUP1 DUP1 CALLDATALOAD SWAP1 PUSH1 0x20 ADD SWAP1 SWAP3 SWAP2 SWAP1 POP POP POP PUSH2 0x36F JUMP JUMPDEST PUSH1 0x40 MLOAD DUP1 DUP3 PUSH20 0xFFFFFFFFFFFFFFFFFFFFFFFFFFFFFFFFFFFFFFFF AND PUSH20 0xFFFFFFFFFFFFFFFFFFFFFFFFFFFFFFFFFFFFFFFF AND DUP2 MSTORE PUSH1 0x20 ADD SWAP2 POP POP PUSH1 0x40 MLOAD DUP1 SWAP2 SUB SWAP1 RETURN JUMPDEST PUSH2 0x15E PUSH1 0x4 DUP1 CALLDATASIZE SUB PUSH1 0x20 DUP2 LT ISZERO PUSH2 0x132 JUMPI PUSH1 0x0 DUP1 REVERT JUMPDEST DUP2 ADD SWAP1 DUP1 DUP1 CALLDATALOAD PUSH20 0xFFFFFFFFFFFFFFFFFFFFFFFFFFFFFFFFFFFFFFFF AND SWAP1 PUSH1 0x20 ADD SWAP1 SWAP3 SWAP2 SWAP1 POP POP POP PUSH2 0x3AB JUMP JUMPDEST PUSH1 0x40 MLOAD DUP1 DUP4 PUSH20 0xFFFFFFFFFFFFFFFFFFFFFFFFFFFFFFFFFFFFFFFF AND PUSH20 0xFFFFFFFFFFFFFFFFFFFFFFFFFFFFFFFFFFFFFFFF AND DUP2 MSTORE PUSH1 0x20 ADD DUP3 DUP2 MSTORE PUSH1 0x20 ADD SWAP3 POP POP POP PUSH1 0x40 MLOAD DUP1 SWAP2 SUB SWAP1 RETURN JUMPDEST PUSH2 0x1AF PUSH2 0x3EF JUMP JUMPDEST STOP JUMPDEST PUSH2 0x1F3 PUSH1 0x4 DUP1 CALLDATASIZE SUB PUSH1 0x20 DUP2 LT ISZERO PUSH2 0x1C7 JUMPI PUSH1 0x0 DUP1 REVERT JUMPDEST DUP2 ADD SWAP1 DUP1 DUP1 CALLDATALOAD PUSH20 0xFFFFFFFFFFFFFFFFFFFFFFFFFFFFFFFFFFFFFFFF AND SWAP1 PUSH1 0x20 ADD SWAP1 SWAP3 SWAP2 SWAP1 POP POP POP PUSH2 0x528 JUMP JUMPDEST STOP JUMPDEST PUSH2 0x1FD PUSH2 0x882 JUMP JUMPDEST PUSH1 0x40 MLOAD DUP1 DUP3 PUSH20 0xFFFFFFFFFFFFFFFFFFFFFFFFFFFFFFFFFFFFFFFF AND PUSH20 0xFFFFFFFFFFFFFFFFFFFFFFFFFFFFFFFFFFFFFFFF AND DUP2 MSTORE PUSH1 0x20 ADD SWAP2 POP POP PUSH1 0x40 MLOAD DUP1 SWAP2 SUB SWAP1 RETURN JUMPDEST PUSH2 0x247 PUSH2 0x8AB JUMP JUMPDEST PUSH1 0x40 MLOAD DUP1 DUP3 ISZERO ISZERO ISZERO ISZERO DUP2 MSTORE PUSH1 0x20 ADD SWAP2 POP POP PUSH1 0x40 MLOAD DUP1 SWAP2 SUB SWAP1 RETURN JUMPDEST PUSH2 0x269 PUSH2 0x902 JUMP JUMPDEST PUSH1 0x40 MLOAD DUP1 DUP3 DUP2 MSTORE PUSH1 0x20 ADD SWAP2 POP POP PUSH1 0x40 MLOAD DUP1 SWAP2 SUB SWAP1 RETURN JUMPDEST PUSH2 0x287 PUSH2 0x908 JUMP JUMPDEST STOP JUMPDEST PUSH2 0x2DF PUSH1 0x4 DUP1 CALLDATASIZE SUB PUSH1 0x60 DUP2 LT ISZERO PUSH2 0x29F JUMPI PUSH1 0x0 DUP1 REVERT JUMPDEST DUP2 ADD SWAP1 DUP1 DUP1 CALLDATALOAD PUSH20 0xFFFFFFFFFFFFFFFFFFFFFFFFFFFFFFFFFFFFFFFF AND SWAP1 PUSH1 0x20 ADD SWAP1 SWAP3 SWAP2 SWAP1 DUP1 CALLDATALOAD SWAP1 PUSH1 0x20 ADD SWAP1 SWAP3 SWAP2 SWAP1 DUP1 CALLDATALOAD SWAP1 PUSH1 0x20 ADD SWAP1 SWAP3 SWAP2 SWAP1 POP POP POP PUSH2 0x9C9 JUMP JUMPDEST STOP JUMPDEST PUSH2 0x2E9 PUSH2 0xD32 JUMP JUMPDEST PUSH1 0x40 MLOAD DUP1 DUP3 PUSH20 0xFFFFFFFFFFFFFFFFFFFFFFFFFFFFFFFFFFFFFFFF AND PUSH20 0xFFFFFFFFFFFFFFFFFFFFFFFFFFFFFFFFFFFFFFFF AND DUP2 MSTORE PUSH1 0x20 ADD SWAP2 POP POP PUSH1 0x40 MLOAD DUP1 SWAP2 SUB SWAP1 RETURN JUMPDEST PUSH2 0x36D PUSH1 0x4 DUP1 CALLDATASIZE SUB PUSH1 0x20 DUP2 LT ISZERO PUSH2 0x341 JUMPI PUSH1 0x0 DUP1 REVERT JUMPDEST DUP2 ADD SWAP1 DUP1 DUP1 CALLDATALOAD PUSH20 0xFFFFFFFFFFFFFFFFFFFFFFFFFFFFFFFFFFFFFFFF AND SWAP1 PUSH1 0x20 ADD SWAP1 SWAP3 SWAP2 SWAP1 POP POP POP PUSH2 0xD58 JUMP JUMPDEST STOP JUMPDEST PUSH1 0x3 DUP2 DUP2 SLOAD DUP2 LT PUSH2 0x37C JUMPI INVALID JUMPDEST SWAP1 PUSH1 0x0 MSTORE PUSH1 0x20 PUSH1 0x0 KECCAK256 ADD PUSH1 0x0 SWAP2 POP SLOAD SWAP1 PUSH2 0x100 EXP SWAP1 DIV PUSH20 0xFFFFFFFFFFFFFFFFFFFFFFFFFFFFFFFFFFFFFFFF AND DUP2 JUMP JUMPDEST PUSH1 0x4 PUSH1 0x20 MSTORE DUP1 PUSH1 0x0 MSTORE PUSH1 0x40 PUSH1 0x0 KECCAK256 PUSH1 0x0 SWAP2 POP SWAP1 POP DUP1 PUSH1 0x0 ADD PUSH1 0x0 SWAP1 SLOAD SWAP1 PUSH2 0x100 EXP SWAP1 DIV PUSH20 0xFFFFFFFFFFFFFFFFFFFFFFFFFFFFFFFFFFFFFFFF AND SWAP1 DUP1 PUSH1 0x1 ADD SLOAD SWAP1 POP DUP3 JUMP JUMPDEST PUSH2 0x3F7 PUSH2 0x8AB JUMP JUMPDEST PUSH2 0x469 JUMPI PUSH1 0x40 MLOAD PUSH32 0x8C379A000000000000000000000000000000000000000000000000000000000 DUP2 MSTORE PUSH1 0x4 ADD DUP1 DUP1 PUSH1 0x20 ADD DUP3 DUP2 SUB DUP3 MSTORE PUSH1 0x20 DUP2 MSTORE PUSH1 0x20 ADD DUP1 PUSH32 0x4F776E61626C653A2063616C6C6572206973206E6F7420746865206F776E6572 DUP2 MSTORE POP PUSH1 0x20 ADD SWAP2 POP POP PUSH1 0x40 MLOAD DUP1 SWAP2 SUB SWAP1 REVERT JUMPDEST PUSH1 0x0 PUSH20 0xFFFFFFFFFFFFFFFFFFFFFFFFFFFFFFFFFFFFFFFF AND PUSH1 0x0 DUP1 SWAP1 SLOAD SWAP1 PUSH2 0x100 EXP SWAP1 DIV PUSH20 0xFFFFFFFFFFFFFFFFFFFFFFFFFFFFFFFFFFFFFFFF AND PUSH20 0xFFFFFFFFFFFFFFFFFFFFFFFFFFFFFFFFFFFFFFFF AND PUSH32 0x8BE0079C531659141344CD1FD0A4F28419497F9722A3DAAFE3B4186F6B6457E0 PUSH1 0x40 MLOAD PUSH1 0x40 MLOAD DUP1 SWAP2 SUB SWAP1 LOG3 PUSH1 0x0 DUP1 PUSH1 0x0 PUSH2 0x100 EXP DUP2 SLOAD DUP2 PUSH20 0xFFFFFFFFFFFFFFFFFFFFFFFFFFFFFFFFFFFFFFFF MUL NOT AND SWAP1 DUP4 PUSH20 0xFFFFFFFFFFFFFFFFFFFFFFFFFFFFFFFFFFFFFFFF AND MUL OR SWAP1 SSTORE POP JUMP JUMPDEST PUSH1 0x2 SLOAD TIMESTAMP LT ISZERO PUSH2 0x583 JUMPI PUSH1 0x40 MLOAD PUSH32 0x8C379A000000000000000000000000000000000000000000000000000000000 DUP2 MSTORE PUSH1 0x4 ADD DUP1 DUP1 PUSH1 0x20 ADD DUP3 DUP2 SUB DUP3 MSTORE PUSH1 0x34 DUP2 MSTORE PUSH1 0x20 ADD DUP1 PUSH2 0x32D0 PUSH1 0x34 SWAP2 CODECOPY PUSH1 0x40 ADD SWAP2 POP POP PUSH1 0x40 MLOAD DUP1 SWAP2 SUB SWAP1 REVERT JUMPDEST PUSH1 0x0 PUSH1 0x4 PUSH1 0x0 DUP4 PUSH20 0xFFFFFFFFFFFFFFFFFFFFFFFFFFFFFFFFFFFFFFFF AND PUSH20 0xFFFFFFFFFFFFFFFFFFFFFFFFFFFFFFFFFFFFFFFF AND DUP2 MSTORE PUSH1 0x20 ADD SWAP1 DUP2 MSTORE PUSH1 0x20 ADD PUSH1 0x0 KECCAK256 SWAP1 POP PUSH1 0x0 PUSH20 0xFFFFFFFFFFFFFFFFFFFFFFFFFFFFFFFFFFFFFFFF AND DUP2 PUSH1 0x0 ADD PUSH1 0x0 SWAP1 SLOAD SWAP1 PUSH2 0x100 EXP SWAP1 DIV PUSH20 0xFFFFFFFFFFFFFFFFFFFFFFFFFFFFFFFFFFFFFFFF AND PUSH20 0xFFFFFFFFFFFFFFFFFFFFFFFFFFFFFFFFFFFFFFFF AND EQ ISZERO PUSH2 0x670 JUMPI PUSH1 0x40 MLOAD PUSH32 0x8C379A000000000000000000000000000000000000000000000000000000000 DUP2 MSTORE PUSH1 0x4 ADD DUP1 DUP1 PUSH1 0x20 ADD DUP3 DUP2 SUB DUP3 MSTORE PUSH1 0x37 DUP2 MSTORE PUSH1 0x20 ADD DUP1 PUSH2 0x3304 PUSH1 0x37 SWAP2 CODECOPY PUSH1 0x40 ADD SWAP2 POP POP PUSH1 0x40 MLOAD DUP1 SWAP2 SUB SWAP1 REVERT JUMPDEST PUSH1 0x0 DUP2 PUSH1 0x1 ADD SLOAD GT ISZERO PUSH2 0x87E JUMPI PUSH1 0x0 DUP2 PUSH1 0x1 ADD SLOAD SWAP1 POP PUSH1 0x0 DUP3 PUSH1 0x1 ADD DUP2 SWAP1 SSTORE POP PUSH1 0x1 PUSH1 0x0 SWAP1 SLOAD SWAP1 PUSH2 0x100 EXP SWAP1 DIV PUSH20 0xFFFFFFFFFFFFFFFFFFFFFFFFFFFFFFFFFFFFFFFF AND PUSH20 0xFFFFFFFFFFFFFFFFFFFFFFFFFFFFFFFFFFFFFFFF AND PUSH4 0xA9059CBB DUP4 PUSH1 0x0 ADD PUSH1 0x0 SWAP1 SLOAD SWAP1 PUSH2 0x100 EXP SWAP1 DIV PUSH20 0xFFFFFFFFFFFFFFFFFFFFFFFFFFFFFFFFFFFFFFFF AND DUP4 PUSH1 0x40 MLOAD DUP4 PUSH4 0xFFFFFFFF AND PUSH1 0xE0 SHL DUP2 MSTORE PUSH1 0x4 ADD DUP1 DUP4 PUSH20 0xFFFFFFFFFFFFFFFFFFFFFFFFFFFFFFFFFFFFFFFF AND PUSH20 0xFFFFFFFFFFFFFFFFFFFFFFFFFFFFFFFFFFFFFFFF AND DUP2 MSTORE PUSH1 0x20 ADD DUP3 DUP2 MSTORE PUSH1 0x20 ADD SWAP3 POP POP POP PUSH1 0x20 PUSH1 0x40 MLOAD DUP1 DUP4 SUB DUP2 PUSH1 0x0 DUP8 DUP1 EXTCODESIZE ISZERO DUP1 ISZERO PUSH2 0x75D JUMPI PUSH1 0x0 DUP1 REVERT JUMPDEST POP GAS CALL ISZERO DUP1 ISZERO PUSH2 0x771 JUMPI RETURNDATASIZE PUSH1 0x0 DUP1 RETURNDATACOPY RETURNDATASIZE PUSH1 0x0 REVERT JUMPDEST POP POP POP POP PUSH1 0x40 MLOAD RETURNDATASIZE PUSH1 0x20 DUP2 LT ISZERO PUSH2 0x787 JUMPI PUSH1 0x0 DUP1 REVERT JUMPDEST DUP2 ADD SWAP1 DUP1 DUP1 MLOAD SWAP1 PUSH1 0x20 ADD SWAP1 SWAP3 SWAP2 SWAP1 POP POP POP PUSH2 0x7ED JUMPI PUSH1 0x40 MLOAD PUSH32 0x8C379A000000000000000000000000000000000000000000000000000000000 DUP2 MSTORE PUSH1 0x4 ADD DUP1 DUP1 PUSH1 0x20 ADD DUP3 DUP2 SUB DUP3 MSTORE PUSH1 0x3A DUP2 MSTORE PUSH1 0x20 ADD DUP1 PUSH2 0x3258 PUSH1 0x3A SWAP2 CODECOPY PUSH1 0x40 ADD SWAP2 POP POP PUSH1 0x40 MLOAD DUP1 SWAP2 SUB SWAP1 REVERT JUMPDEST DUP2 PUSH1 0x0 ADD PUSH1 0x0 SWAP1 SLOAD SWAP1 PUSH2 0x100 EXP SWAP1 DIV PUSH20 0xFFFFFFFFFFFFFFFFFFFFFFFFFFFFFFFFFFFFFFFF AND PUSH20 0xFFFFFFFFFFFFFFFFFFFFFFFFFFFFFFFFFFFFFFFF AND PUSH4 0x3C6B16AB DUP3 PUSH1 0x40 MLOAD DUP3 PUSH4 0xFFFFFFFF AND PUSH1 0xE0 SHL DUP2 MSTORE PUSH1 0x4 ADD DUP1 DUP3 DUP2 MSTORE PUSH1 0x20 ADD SWAP2 POP POP PUSH1 0x0 PUSH1 0x40 MLOAD DUP1 DUP4 SUB DUP2 PUSH1 0x0 DUP8 DUP1 EXTCODESIZE ISZERO DUP1 ISZERO PUSH2 0x864 JUMPI PUSH1 0x0 DUP1 REVERT JUMPDEST POP GAS CALL ISZERO DUP1 ISZERO PUSH2 0x878 JUMPI RETURNDATASIZE PUSH1 0x0 DUP1 RETURNDATACOPY RETURNDATASIZE PUSH1 0x0 REVERT JUMPDEST POP POP POP POP POP JUMPDEST POP POP JUMP JUMPDEST PUSH1 0x0 DUP1 PUSH1 0x0 SWAP1 SLOAD SWAP1 PUSH2 0x100 EXP SWAP1 DIV PUSH20 0xFFFFFFFFFFFFFFFFFFFFFFFFFFFFFFFFFFFFFFFF AND SWAP1 POP SWAP1 JUMP JUMPDEST PUSH1 0x0 DUP1 PUSH1 0x0 SWAP1 SLOAD SWAP1 PUSH2 0x100 EXP SWAP1 DIV PUSH20 0xFFFFFFFFFFFFFFFFFFFFFFFFFFFFFFFFFFFFFFFF AND PUSH20 0xFFFFFFFFFFFFFFFFFFFFFFFFFFFFFFFFFFFFFFFF AND CALLER PUSH20 0xFFFFFFFFFFFFFFFFFFFFFFFFFFFFFFFFFFFFFFFF AND EQ SWAP1 POP SWAP1 JUMP JUMPDEST PUSH1 0x2 SLOAD DUP2 JUMP JUMPDEST PUSH1 0x0 PUSH1 0x3 DUP1 SLOAD SWAP1 POP GT PUSH2 0x966 JUMPI PUSH1 0x40 MLOAD PUSH32 0x8C379A000000000000000000000000000000000000000000000000000000000 DUP2 MSTORE PUSH1 0x4 ADD DUP1 DUP1 PUSH1 0x20 ADD DUP3 DUP2 SUB DUP3 MSTORE PUSH1 0x45 DUP2 MSTORE PUSH1 0x20 ADD DUP1 PUSH2 0x3213 PUSH1 0x45 SWAP2 CODECOPY PUSH1 0x60 ADD SWAP2 POP POP PUSH1 0x40 MLOAD DUP1 SWAP2 SUB SWAP1 REVERT JUMPDEST PUSH1 0x0 DUP1 SWAP1 POP JUMPDEST PUSH1 0x3 DUP1 SLOAD SWAP1 POP DUP2 LT ISZERO PUSH2 0x9C6 JUMPI PUSH2 0x9B9 PUSH1 0x3 DUP3 DUP2 SLOAD DUP2 LT PUSH2 0x989 JUMPI INVALID JUMPDEST SWAP1 PUSH1 0x0 MSTORE PUSH1 0x20 PUSH1 0x0 KECCAK256 ADD PUSH1 0x0 SWAP1 SLOAD SWAP1 PUSH2 0x100 EXP SWAP1 DIV PUSH20 0xFFFFFFFFFFFFFFFFFFFFFFFFFFFFFFFFFFFFFFFF AND PUSH2 0x528 JUMP JUMPDEST DUP1 DUP1 PUSH1 0x1 ADD SWAP2 POP POP PUSH2 0x96C JUMP JUMPDEST POP JUMP JUMPDEST PUSH2 0x9D1 PUSH2 0x8AB JUMP JUMPDEST PUSH2 0xA43 JUMPI PUSH1 0x40 MLOAD PUSH32 0x8C379A000000000000000000000000000000000000000000000000000000000 DUP2 MSTORE PUSH1 0x4 ADD DUP1 DUP1 PUSH1 0x20 ADD DUP3 DUP2 SUB DUP3 MSTORE PUSH1 0x20 DUP2 MSTORE PUSH1 0x20 ADD DUP1 PUSH32 0x4F776E61626C653A2063616C6C6572206973206E6F7420746865206F776E6572 DUP2 MSTORE POP PUSH1 0x20 ADD SWAP2 POP POP PUSH1 0x40 MLOAD DUP1 SWAP2 SUB SWAP1 REVERT JUMPDEST PUSH1 0x0 PUSH1 0x4 PUSH1 0x0 DUP6 PUSH20 0xFFFFFFFFFFFFFFFFFFFFFFFFFFFFFFFFFFFFFFFF AND PUSH20 0xFFFFFFFFFFFFFFFFFFFFFFFFFFFFFFFFFFFFFFFF AND DUP2 MSTORE PUSH1 0x20 ADD SWAP1 DUP2 MSTORE PUSH1 0x20 ADD PUSH1 0x0 KECCAK256 SWAP1 POP PUSH1 0x0 DUP3 LT ISZERO PUSH2 0xAE0 JUMPI PUSH1 0x40 MLOAD PUSH32 0x8C379A000000000000000000000000000000000000000000000000000000000 DUP2 MSTORE PUSH1 0x4 ADD DUP1 DUP1 PUSH1 0x20 ADD DUP3 DUP2 SUB DUP3 MSTORE PUSH1 0x3E DUP2 MSTORE PUSH1 0x20 ADD DUP1 PUSH2 0x3292 PUSH1 0x3E SWAP2 CODECOPY PUSH1 0x40 ADD SWAP2 POP POP PUSH1 0x40 MLOAD DUP1 SWAP2 SUB SWAP1 REVERT JUMPDEST PUSH1 0x0 PUSH20 0xFFFFFFFFFFFFFFFFFFFFFFFFFFFFFFFFFFFFFFFF AND DUP2 PUSH1 0x0 ADD PUSH1 0x0 SWAP1 SLOAD SWAP1 PUSH2 0x100 EXP SWAP1 DIV PUSH20 0xFFFFFFFFFFFFFFFFFFFFFFFFFFFFFFFFFFFFFFFF AND PUSH20 0xFFFFFFFFFFFFFFFFFFFFFFFFFFFFFFFFFFFFFFFF AND EQ PUSH2 0xB89 JUMPI PUSH1 0x40 MLOAD PUSH32 0x8C379A000000000000000000000000000000000000000000000000000000000 DUP2 MSTORE PUSH1 0x4 ADD DUP1 DUP1 PUSH1 0x20 ADD DUP3 DUP2 SUB DUP3 MSTORE PUSH1 0x2F DUP2 MSTORE PUSH1 0x20 ADD DUP1 PUSH2 0x31E4 PUSH1 0x2F SWAP2 CODECOPY PUSH1 0x40 ADD SWAP2 POP POP PUSH1 0x40 MLOAD DUP1 SWAP2 SUB SWAP1 REVERT JUMPDEST ADDRESS PUSH1 0x1 PUSH1 0x0 SWAP1 SLOAD SWAP1 PUSH2 0x100 EXP SWAP1 DIV PUSH20 0xFFFFFFFFFFFFFFFFFFFFFFFFFFFFFFFFFFFFFFFF AND DUP4 DUP7 PUSH1 0x40 MLOAD PUSH2 0xBBB SWAP1 PUSH2 0xF22 JUMP JUMPDEST DUP1 DUP6 PUSH20 0xFFFFFFFFFFFFFFFFFFFFFFFFFFFFFFFFFFFFFFFF AND PUSH20 0xFFFFFFFFFFFFFFFFFFFFFFFFFFFFFFFFFFFFFFFF AND DUP2 MSTORE PUSH1 0x20 ADD DUP5 PUSH20 0xFFFFFFFFFFFFFFFFFFFFFFFFFFFFFFFFFFFFFFFF AND PUSH20 0xFFFFFFFFFFFFFFFFFFFFFFFFFFFFFFFFFFFFFFFF AND DUP2 MSTORE PUSH1 0x20 ADD DUP4 DUP2 MSTORE PUSH1 0x20 ADD DUP3 PUSH20 0xFFFFFFFFFFFFFFFFFFFFFFFFFFFFFFFFFFFFFFFF AND PUSH20 0xFFFFFFFFFFFFFFFFFFFFFFFFFFFFFFFFFFFFFFFF AND DUP2 MSTORE PUSH1 0x20 ADD SWAP5 POP POP POP POP POP PUSH1 0x40 MLOAD DUP1 SWAP2 SUB SWAP1 PUSH1 0x0 CREATE DUP1 ISZERO DUP1 ISZERO PUSH2 0xC7A JUMPI RETURNDATASIZE PUSH1 0x0 DUP1 RETURNDATACOPY RETURNDATASIZE PUSH1 0x0 REVERT JUMPDEST POP DUP2 PUSH1 0x0 ADD PUSH1 0x0 PUSH2 0x100 EXP DUP2 SLOAD DUP2 PUSH20 0xFFFFFFFFFFFFFFFFFFFFFFFFFFFFFFFFFFFFFFFF MUL NOT AND SWAP1 DUP4 PUSH20 0xFFFFFFFFFFFFFFFFFFFFFFFFFFFFFFFFFFFFFFFF AND MUL OR SWAP1 SSTORE POP DUP3 DUP2 PUSH1 0x1 ADD DUP2 SWAP1 SSTORE POP PUSH1 0x3 DUP5 SWAP1 DUP1 PUSH1 0x1 DUP2 SLOAD ADD DUP1 DUP3 SSTORE DUP1 SWAP2 POP POP SWAP1 PUSH1 0x1 DUP3 SUB SWAP1 PUSH1 0x0 MSTORE PUSH1 0x20 PUSH1 0x0 KECCAK256 ADD PUSH1 0x0 SWAP1 SWAP2 SWAP3 SWAP1 SWAP2 SWAP1 SWAP2 PUSH2 0x100 EXP DUP2 SLOAD DUP2 PUSH20 0xFFFFFFFFFFFFFFFFFFFFFFFFFFFFFFFFFFFFFFFF MUL NOT AND SWAP1 DUP4 PUSH20 0xFFFFFFFFFFFFFFFFFFFFFFFFFFFFFFFFFFFFFFFF AND MUL OR SWAP1 SSTORE POP POP POP POP POP POP JUMP JUMPDEST PUSH1 0x1 PUSH1 0x0 SWAP1 SLOAD SWAP1 PUSH2 0x100 EXP SWAP1 DIV PUSH20 0xFFFFFFFFFFFFFFFFFFFFFFFFFFFFFFFFFFFFFFFF AND DUP2 JUMP JUMPDEST PUSH2 0xD60 PUSH2 0x8AB JUMP JUMPDEST PUSH2 0xDD2 JUMPI PUSH1 0x40 MLOAD PUSH32 0x8C379A000000000000000000000000000000000000000000000000000000000 DUP2 MSTORE PUSH1 0x4 ADD DUP1 DUP1 PUSH1 0x20 ADD DUP3 DUP2 SUB DUP3 MSTORE PUSH1 0x20 DUP2 MSTORE PUSH1 0x20 ADD DUP1 PUSH32 0x4F776E61626C653A2063616C6C6572206973206E6F7420746865206F776E6572 DUP2 MSTORE POP PUSH1 0x20 ADD SWAP2 POP POP PUSH1 0x40 MLOAD DUP1 SWAP2 SUB SWAP1 REVERT JUMPDEST PUSH2 0xDDB DUP2 PUSH2 0xDDE JUMP JUMPDEST POP JUMP JUMPDEST PUSH1 0x0 PUSH20 0xFFFFFFFFFFFFFFFFFFFFFFFFFFFFFFFFFFFFFFFF AND DUP2 PUSH20 0xFFFFFFFFFFFFFFFFFFFFFFFFFFFFFFFFFFFFFFFF AND EQ ISZERO PUSH2 0xE64 JUMPI PUSH1 0x40 MLOAD PUSH32 0x8C379A000000000000000000000000000000000000000000000000000000000 DUP2 MSTORE PUSH1 0x4 ADD DUP1 DUP1 PUSH1 0x20 ADD DUP3 DUP2 SUB DUP3 MSTORE PUSH1 0x26 DUP2 MSTORE PUSH1 0x20 ADD DUP1 PUSH2 0x31BE PUSH1 0x26 SWAP2 CODECOPY PUSH1 0x40 ADD SWAP2 POP POP PUSH1 0x40 MLOAD DUP1 SWAP2 SUB SWAP1 REVERT JUMPDEST DUP1 PUSH20 0xFFFFFFFFFFFFFFFFFFFFFFFFFFFFFFFFFFFFFFFF AND PUSH1 0x0 DUP1 SWAP1 SLOAD SWAP1 PUSH2 0x100 EXP SWAP1 DIV PUSH20 0xFFFFFFFFFFFFFFFFFFFFFFFFFFFFFFFFFFFFFFFF AND PUSH20 0xFFFFFFFFFFFFFFFFFFFFFFFFFFFFFFFFFFFFFFFF AND PUSH32 0x8BE0079C531659141344CD1FD0A4F28419497F9722A3DAAFE3B4186F6B6457E0 PUSH1 0x40 MLOAD PUSH1 0x40 MLOAD DUP1 SWAP2 SUB SWAP1 LOG3 DUP1 PUSH1 0x0 DUP1 PUSH2 0x100 EXP DUP2 SLOAD DUP2 PUSH20 0xFFFFFFFFFFFFFFFFFFFFFFFFFFFFFFFFFFFFFFFF MUL NOT AND SWAP1 DUP4 PUSH20 0xFFFFFFFFFFFFFFFFFFFFFFFFFFFFFFFFFFFFFFFF AND MUL OR SWAP1 SSTORE POP POP JUMP JUMPDEST PUSH2 0x228E DUP1 PUSH2 0xF30 DUP4 CODECOPY ADD SWAP1 JUMP INVALID PUSH1 0x80 PUSH1 0x40 MSTORE PUSH1 0x0 PUSH1 0x4 SSTORE PUSH1 0x0 PUSH1 0x5 SSTORE PUSH1 0x0 PUSH1 0x6 SSTORE CALLVALUE DUP1 ISZERO PUSH2 0x1F JUMPI PUSH1 0x0 DUP1 REVERT JUMPDEST POP PUSH1 0x40 MLOAD PUSH2 0x228E CODESIZE SUB DUP1 PUSH2 0x228E DUP4 CODECOPY DUP2 DUP2 ADD PUSH1 0x40 MSTORE PUSH1 0x80 DUP2 LT ISZERO PUSH2 0x42 JUMPI PUSH1 0x0 DUP1 REVERT JUMPDEST DUP2 ADD SWAP1 DUP1 DUP1 MLOAD SWAP1 PUSH1 0x20 ADD SWAP1 SWAP3 SWAP2 SWAP1 DUP1 MLOAD SWAP1 PUSH1 0x20 ADD SWAP1 SWAP3 SWAP2 SWAP1 DUP1 MLOAD SWAP1 PUSH1 0x20 ADD SWAP1 SWAP3 SWAP2 SWAP1 DUP1 MLOAD SWAP1 PUSH1 0x20 ADD SWAP1 SWAP3 SWAP2 SWAP1 POP POP POP PUSH1 0x1 DUP1 DUP2 SWAP1 SSTORE POP DUP3 PUSH1 0x2 PUSH1 0x0 PUSH2 0x100 EXP DUP2 SLOAD DUP2 PUSH20 0xFFFFFFFFFFFFFFFFFFFFFFFFFFFFFFFFFFFFFFFF MUL NOT AND SWAP1 DUP4 PUSH20 0xFFFFFFFFFFFFFFFFFFFFFFFFFFFFFFFFFFFFFFFF AND MUL OR SWAP1 SSTORE POP DUP1 PUSH1 0x3 PUSH1 0x0 PUSH2 0x100 EXP DUP2 SLOAD DUP2 PUSH20 0xFFFFFFFFFFFFFFFFFFFFFFFFFFFFFFFFFFFFFFFF MUL NOT AND SWAP1 DUP4 PUSH20 0xFFFFFFFFFFFFFFFFFFFFFFFFFFFFFFFFFFFFFFFF AND MUL OR SWAP1 SSTORE POP PUSH3 0x15180 DUP3 MUL PUSH1 0x6 DUP2 SWAP1 SSTORE POP DUP4 PUSH1 0x0 DUP1 PUSH2 0x100 EXP DUP2 SLOAD DUP2 PUSH20 0xFFFFFFFFFFFFFFFFFFFFFFFFFFFFFFFFFFFFFFFF MUL NOT AND SWAP1 DUP4 PUSH20 0xFFFFFFFFFFFFFFFFFFFFFFFFFFFFFFFFFFFFFFFF AND MUL OR SWAP1 SSTORE POP POP POP POP POP PUSH2 0x2135 DUP1 PUSH2 0x159 PUSH1 0x0 CODECOPY PUSH1 0x0 RETURN INVALID PUSH1 0x80 PUSH1 0x40 MSTORE CALLVALUE DUP1 ISZERO PUSH2 0x10 JUMPI PUSH1 0x0 DUP1 REVERT JUMPDEST POP PUSH1 0x4 CALLDATASIZE LT PUSH2 0x141 JUMPI PUSH1 0x0 CALLDATALOAD PUSH1 0xE0 SHR DUP1 PUSH4 0x7B0A47EE GT PUSH2 0xB8 JUMPI DUP1 PUSH4 0xCD3DAF9D GT PUSH2 0x7C JUMPI DUP1 PUSH4 0xCD3DAF9D EQ PUSH2 0x482 JUMPI DUP1 PUSH4 0xD1AF0C7D EQ PUSH2 0x4A0 JUMPI DUP1 PUSH4 0xDF136D65 EQ PUSH2 0x4EA JUMPI DUP1 PUSH4 0xE9FAD8EE EQ PUSH2 0x508 JUMPI DUP1 PUSH4 0xEBE2B12B EQ PUSH2 0x512 JUMPI DUP1 PUSH4 0xECD9BA82 EQ PUSH2 0x530 JUMPI PUSH2 0x141 JUMP JUMPDEST DUP1 PUSH4 0x7B0A47EE EQ PUSH2 0x3A2 JUMPI DUP1 PUSH4 0x80FAA57D EQ PUSH2 0x3C0 JUMPI DUP1 PUSH4 0x8B876347 EQ PUSH2 0x3DE JUMPI DUP1 PUSH4 0xA694FC3A EQ PUSH2 0x436 JUMPI DUP1 PUSH4 0xC8F33C91 EQ PUSH2 0x464 JUMPI PUSH2 0x141 JUMP JUMPDEST DUP1 PUSH4 0x386A9525 GT PUSH2 0x10A JUMPI DUP1 PUSH4 0x386A9525 EQ PUSH2 0x260 JUMPI DUP1 PUSH4 0x3C6B16AB EQ PUSH2 0x27E JUMPI DUP1 PUSH4 0x3D18B912 EQ PUSH2 0x2AC JUMPI DUP1 PUSH4 0x3FC6DF6E EQ PUSH2 0x2B6 JUMPI DUP1 PUSH4 0x70A08231 EQ PUSH2 0x300 JUMPI DUP1 PUSH4 0x72F702F3 EQ PUSH2 0x358 JUMPI PUSH2 0x141 JUMP JUMPDEST DUP1 PUSH3 0x8CC262 EQ PUSH2 0x146 JUMPI DUP1 PUSH4 0x700037D EQ PUSH2 0x19E JUMPI DUP1 PUSH4 0x18160DDD EQ PUSH2 0x1F6 JUMPI DUP1 PUSH4 0x1C1F78EB EQ PUSH2 0x214 JUMPI DUP1 PUSH4 0x2E1A7D4D EQ PUSH2 0x232 JUMPI JUMPDEST PUSH1 0x0 DUP1 REVERT JUMPDEST PUSH2 0x188 PUSH1 0x4 DUP1 CALLDATASIZE SUB PUSH1 0x20 DUP2 LT ISZERO PUSH2 0x15C JUMPI PUSH1 0x0 DUP1 REVERT JUMPDEST DUP2 ADD SWAP1 DUP1 DUP1 CALLDATALOAD PUSH20 0xFFFFFFFFFFFFFFFFFFFFFFFFFFFFFFFFFFFFFFFF AND SWAP1 PUSH1 0x20 ADD SWAP1 SWAP3 SWAP2 SWAP1 POP POP POP PUSH2 0x589 JUMP JUMPDEST PUSH1 0x40 MLOAD DUP1 DUP3 DUP2 MSTORE PUSH1 0x20 ADD SWAP2 POP POP PUSH1 0x40 MLOAD DUP1 SWAP2 SUB SWAP1 RETURN JUMPDEST PUSH2 0x1E0 PUSH1 0x4 DUP1 CALLDATASIZE SUB PUSH1 0x20 DUP2 LT ISZERO PUSH2 0x1B4 JUMPI PUSH1 0x0 DUP1 REVERT JUMPDEST DUP2 ADD SWAP1 DUP1 DUP1 CALLDATALOAD PUSH20 0xFFFFFFFFFFFFFFFFFFFFFFFFFFFFFFFFFFFFFFFF AND SWAP1 PUSH1 0x20 ADD SWAP1 SWAP3 SWAP2 SWAP1 POP POP POP PUSH2 0x6A7 JUMP JUMPDEST PUSH1 0x40 MLOAD DUP1 DUP3 DUP2 MSTORE PUSH1 0x20 ADD SWAP2 POP POP PUSH1 0x40 MLOAD DUP1 SWAP2 SUB SWAP1 RETURN JUMPDEST PUSH2 0x1FE PUSH2 0x6BF JUMP JUMPDEST PUSH1 0x40 MLOAD DUP1 DUP3 DUP2 MSTORE PUSH1 0x20 ADD SWAP2 POP POP PUSH1 0x40 MLOAD DUP1 SWAP2 SUB SWAP1 RETURN JUMPDEST PUSH2 0x21C PUSH2 0x6C9 JUMP JUMPDEST PUSH1 0x40 MLOAD DUP1 DUP3 DUP2 MSTORE PUSH1 0x20 ADD SWAP2 POP POP PUSH1 0x40 MLOAD DUP1 SWAP2 SUB SWAP1 RETURN JUMPDEST PUSH2 0x25E PUSH1 0x4 DUP1 CALLDATASIZE SUB PUSH1 0x20 DUP2 LT ISZERO PUSH2 0x248 JUMPI PUSH1 0x0 DUP1 REVERT JUMPDEST DUP2 ADD SWAP1 DUP1 DUP1 CALLDATALOAD SWAP1 PUSH1 0x20 ADD SWAP1 SWAP3 SWAP2 SWAP1 POP POP POP PUSH2 0x6E7 JUMP JUMPDEST STOP JUMPDEST PUSH2 0x268 PUSH2 0xA1F JUMP JUMPDEST PUSH1 0x40 MLOAD DUP1 DUP3 DUP2 MSTORE PUSH1 0x20 ADD SWAP2 POP POP PUSH1 0x40 MLOAD DUP1 SWAP2 SUB SWAP1 RETURN JUMPDEST PUSH2 0x2AA PUSH1 0x4 DUP1 CALLDATASIZE SUB PUSH1 0x20 DUP2 LT ISZERO PUSH2 0x294 JUMPI PUSH1 0x0 DUP1 REVERT JUMPDEST DUP2 ADD SWAP1 DUP1 DUP1 CALLDATALOAD SWAP1 PUSH1 0x20 ADD SWAP1 SWAP3 SWAP2 SWAP1 POP POP POP PUSH2 0xA25 JUMP JUMPDEST STOP JUMPDEST PUSH2 0x2B4 PUSH2 0xE02 JUMP JUMPDEST STOP JUMPDEST PUSH2 0x2BE PUSH2 0x10A7 JUMP JUMPDEST PUSH1 0x40 MLOAD DUP1 DUP3 PUSH20 0xFFFFFFFFFFFFFFFFFFFFFFFFFFFFFFFFFFFFFFFF AND PUSH20 0xFFFFFFFFFFFFFFFFFFFFFFFFFFFFFFFFFFFFFFFF AND DUP2 MSTORE PUSH1 0x20 ADD SWAP2 POP POP PUSH1 0x40 MLOAD DUP1 SWAP2 SUB SWAP1 RETURN JUMPDEST PUSH2 0x342 PUSH1 0x4 DUP1 CALLDATASIZE SUB PUSH1 0x20 DUP2 LT ISZERO PUSH2 0x316 JUMPI PUSH1 0x0 DUP1 REVERT JUMPDEST DUP2 ADD SWAP1 DUP1 DUP1 CALLDATALOAD PUSH20 0xFFFFFFFFFFFFFFFFFFFFFFFFFFFFFFFFFFFFFFFF AND SWAP1 PUSH1 0x20 ADD SWAP1 SWAP3 SWAP2 SWAP1 POP POP POP PUSH2 0x10CC JUMP JUMPDEST PUSH1 0x40 MLOAD DUP1 DUP3 DUP2 MSTORE PUSH1 0x20 ADD SWAP2 POP POP PUSH1 0x40 MLOAD DUP1 SWAP2 SUB SWAP1 RETURN JUMPDEST PUSH2 0x360 PUSH2 0x1115 JUMP JUMPDEST PUSH1 0x40 MLOAD DUP1 DUP3 PUSH20 0xFFFFFFFFFFFFFFFFFFFFFFFFFFFFFFFFFFFFFFFF AND PUSH20 0xFFFFFFFFFFFFFFFFFFFFFFFFFFFFFFFFFFFFFFFF AND DUP2 MSTORE PUSH1 0x20 ADD SWAP2 POP POP PUSH1 0x40 MLOAD DUP1 SWAP2 SUB SWAP1 RETURN JUMPDEST PUSH2 0x3AA PUSH2 0x113B JUMP JUMPDEST PUSH1 0x40 MLOAD DUP1 DUP3 DUP2 MSTORE PUSH1 0x20 ADD SWAP2 POP POP PUSH1 0x40 MLOAD DUP1 SWAP2 SUB SWAP1 RETURN JUMPDEST PUSH2 0x3C8 PUSH2 0x1141 JUMP JUMPDEST PUSH1 0x40 MLOAD DUP1 DUP3 DUP2 MSTORE PUSH1 0x20 ADD SWAP2 POP POP PUSH1 0x40 MLOAD DUP1 SWAP2 SUB SWAP1 RETURN JUMPDEST PUSH2 0x420 PUSH1 0x4 DUP1 CALLDATASIZE SUB PUSH1 0x20 DUP2 LT ISZERO PUSH2 0x3F4 JUMPI PUSH1 0x0 DUP1 REVERT JUMPDEST DUP2 ADD SWAP1 DUP1 DUP1 CALLDATALOAD PUSH20 0xFFFFFFFFFFFFFFFFFFFFFFFFFFFFFFFFFFFFFFFF AND SWAP1 PUSH1 0x20 ADD SWAP1 SWAP3 SWAP2 SWAP1 POP POP POP PUSH2 0x1154 JUMP JUMPDEST PUSH1 0x40 MLOAD DUP1 DUP3 DUP2 MSTORE PUSH1 0x20 ADD SWAP2 POP POP PUSH1 0x40 MLOAD DUP1 SWAP2 SUB SWAP1 RETURN JUMPDEST PUSH2 0x462 PUSH1 0x4 DUP1 CALLDATASIZE SUB PUSH1 0x20 DUP2 LT ISZERO PUSH2 0x44C JUMPI PUSH1 0x0 DUP1 REVERT JUMPDEST DUP2 ADD SWAP1 DUP1 DUP1 CALLDATALOAD SWAP1 PUSH1 0x20 ADD SWAP1 SWAP3 SWAP2 SWAP1 POP POP POP PUSH2 0x116C JUMP JUMPDEST STOP JUMPDEST PUSH2 0x46C PUSH2 0x14A6 JUMP JUMPDEST PUSH1 0x40 MLOAD DUP1 DUP3 DUP2 MSTORE PUSH1 0x20 ADD SWAP2 POP POP PUSH1 0x40 MLOAD DUP1 SWAP2 SUB SWAP1 RETURN JUMPDEST PUSH2 0x48A PUSH2 0x14AC JUMP JUMPDEST PUSH1 0x40 MLOAD DUP1 DUP3 DUP2 MSTORE PUSH1 0x20 ADD SWAP2 POP POP PUSH1 0x40 MLOAD DUP1 SWAP2 SUB SWAP1 RETURN JUMPDEST PUSH2 0x4A8 PUSH2 0x153A JUMP JUMPDEST PUSH1 0x40 MLOAD DUP1 DUP3 PUSH20 0xFFFFFFFFFFFFFFFFFFFFFFFFFFFFFFFFFFFFFFFF AND PUSH20 0xFFFFFFFFFFFFFFFFFFFFFFFFFFFFFFFFFFFFFFFF AND DUP2 MSTORE PUSH1 0x20 ADD SWAP2 POP POP PUSH1 0x40 MLOAD DUP1 SWAP2 SUB SWAP1 RETURN JUMPDEST PUSH2 0x4F2 PUSH2 0x1560 JUMP JUMPDEST PUSH1 0x40 MLOAD DUP1 DUP3 DUP2 MSTORE PUSH1 0x20 ADD SWAP2 POP POP PUSH1 0x40 MLOAD DUP1 SWAP2 SUB SWAP1 RETURN JUMPDEST PUSH2 0x510 PUSH2 0x1566 JUMP JUMPDEST STOP JUMPDEST PUSH2 0x51A PUSH2 0x15B8 JUMP JUMPDEST PUSH1 0x40 MLOAD DUP1 DUP3 DUP2 MSTORE PUSH1 0x20 ADD SWAP2 POP POP PUSH1 0x40 MLOAD DUP1 SWAP2 SUB SWAP1 RETURN JUMPDEST PUSH2 0x587 PUSH1 0x4 DUP1 CALLDATASIZE SUB PUSH1 0xA0 DUP2 LT ISZERO PUSH2 0x546 JUMPI PUSH1 0x0 DUP1 REVERT JUMPDEST DUP2 ADD SWAP1 DUP1 DUP1 CALLDATALOAD SWAP1 PUSH1 0x20 ADD SWAP1 SWAP3 SWAP2 SWAP1 DUP1 CALLDATALOAD SWAP1 PUSH1 0x20 ADD SWAP1 SWAP3 SWAP2 SWAP1 DUP1 CALLDATALOAD PUSH1 0xFF AND SWAP1 PUSH1 0x20 ADD SWAP1 SWAP3 SWAP2 SWAP1 DUP1 CALLDATALOAD SWAP1 PUSH1 0x20 ADD SWAP1 SWAP3 SWAP2 SWAP1 DUP1 CALLDATALOAD SWAP1 PUSH1 0x20 ADD SWAP1 SWAP3 SWAP2 SWAP1 POP POP POP PUSH2 0x15BE JUMP JUMPDEST STOP JUMPDEST PUSH1 0x0 PUSH2 0x6A0 PUSH1 0xA PUSH1 0x0 DUP5 PUSH20 0xFFFFFFFFFFFFFFFFFFFFFFFFFFFFFFFFFFFFFFFF AND PUSH20 0xFFFFFFFFFFFFFFFFFFFFFFFFFFFFFFFFFFFFFFFF AND DUP2 MSTORE PUSH1 0x20 ADD SWAP1 DUP2 MSTORE PUSH1 0x20 ADD PUSH1 0x0 KECCAK256 SLOAD PUSH2 0x692 PUSH8 0xDE0B6B3A7640000 PUSH2 0x684 PUSH2 0x636 PUSH1 0x9 PUSH1 0x0 DUP10 PUSH20 0xFFFFFFFFFFFFFFFFFFFFFFFFFFFFFFFFFFFFFFFF AND PUSH20 0xFFFFFFFFFFFFFFFFFFFFFFFFFFFFFFFFFFFFFFFF AND DUP2 MSTORE PUSH1 0x20 ADD SWAP1 DUP2 MSTORE PUSH1 0x20 ADD PUSH1 0x0 KECCAK256 SLOAD PUSH2 0x628 PUSH2 0x14AC JUMP JUMPDEST PUSH2 0x1A17 SWAP1 SWAP2 SWAP1 PUSH4 0xFFFFFFFF AND JUMP JUMPDEST PUSH1 0xC PUSH1 0x0 DUP10 PUSH20 0xFFFFFFFFFFFFFFFFFFFFFFFFFFFFFFFFFFFFFFFF AND PUSH20 0xFFFFFFFFFFFFFFFFFFFFFFFFFFFFFFFFFFFFFFFF AND DUP2 MSTORE PUSH1 0x20 ADD SWAP1 DUP2 MSTORE PUSH1 0x20 ADD PUSH1 0x0 KECCAK256 SLOAD PUSH2 0x1AA0 SWAP1 SWAP2 SWAP1 PUSH4 0xFFFFFFFF AND JUMP JUMPDEST PUSH2 0x1B26 SWAP1 SWAP2 SWAP1 PUSH4 0xFFFFFFFF AND JUMP JUMPDEST PUSH2 0x1BB5 SWAP1 SWAP2 SWAP1 PUSH4 0xFFFFFFFF AND JUMP JUMPDEST SWAP1 POP SWAP2 SWAP1 POP JUMP JUMPDEST PUSH1 0xA PUSH1 0x20 MSTORE DUP1 PUSH1 0x0 MSTORE PUSH1 0x40 PUSH1 0x0 KECCAK256 PUSH1 0x0 SWAP2 POP SWAP1 POP SLOAD DUP2 JUMP JUMPDEST PUSH1 0x0 PUSH1 0xB SLOAD SWAP1 POP SWAP1 JUMP JUMPDEST PUSH1 0x0 PUSH2 0x6E2 PUSH1 0x6 SLOAD PUSH1 0x5 SLOAD PUSH2 0x1AA0 SWAP1 SWAP2 SWAP1 PUSH4 0xFFFFFFFF AND JUMP JUMPDEST SWAP1 POP SWAP1 JUMP JUMPDEST PUSH1 0x1 DUP1 PUSH1 0x0 DUP3 DUP3 SLOAD ADD SWAP3 POP POP DUP2 SWAP1 SSTORE POP PUSH1 0x0 PUSH1 0x1 SLOAD SWAP1 POP CALLER PUSH2 0x707 PUSH2 0x14AC JUMP JUMPDEST PUSH1 0x8 DUP2 SWAP1 SSTORE POP PUSH2 0x715 PUSH2 0x1141 JUMP JUMPDEST PUSH1 0x7 DUP2 SWAP1 SSTORE POP PUSH1 0x0 PUSH20 0xFFFFFFFFFFFFFFFFFFFFFFFFFFFFFFFFFFFFFFFF AND DUP2 PUSH20 0xFFFFFFFFFFFFFFFFFFFFFFFFFFFFFFFFFFFFFFFF AND EQ PUSH2 0x7E2 JUMPI PUSH2 0x758 DUP2 PUSH2 0x589 JUMP JUMPDEST PUSH1 0xA PUSH1 0x0 DUP4 PUSH20 0xFFFFFFFFFFFFFFFFFFFFFFFFFFFFFFFFFFFFFFFF AND PUSH20 0xFFFFFFFFFFFFFFFFFFFFFFFFFFFFFFFFFFFFFFFF AND DUP2 MSTORE PUSH1 0x20 ADD SWAP1 DUP2 MSTORE PUSH1 0x20 ADD PUSH1 0x0 KECCAK256 DUP2 SWAP1 SSTORE POP PUSH1 0x8 SLOAD PUSH1 0x9 PUSH1 0x0 DUP4 PUSH20 0xFFFFFFFFFFFFFFFFFFFFFFFFFFFFFFFFFFFFFFFF AND PUSH20 0xFFFFFFFFFFFFFFFFFFFFFFFFFFFFFFFFFFFFFFFF AND DUP2 MSTORE PUSH1 0x20 ADD SWAP1 DUP2 MSTORE PUSH1 0x20 ADD PUSH1 0x0 KECCAK256 DUP2 SWAP1 SSTORE POP JUMPDEST PUSH1 0x0 DUP4 GT PUSH2 0x858 JUMPI PUSH1 0x40 MLOAD PUSH32 0x8C379A000000000000000000000000000000000000000000000000000000000 DUP2 MSTORE PUSH1 0x4 ADD DUP1 DUP1 PUSH1 0x20 ADD DUP3 DUP2 SUB DUP3 MSTORE PUSH1 0x11 DUP2 MSTORE PUSH1 0x20 ADD DUP1 PUSH32 0x43616E6E6F742077697468647261772030000000000000000000000000000000 DUP2 MSTORE POP PUSH1 0x20 ADD SWAP2 POP POP PUSH1 0x40 MLOAD DUP1 SWAP2 SUB SWAP1 REVERT JUMPDEST PUSH2 0x86D DUP4 PUSH1 0xB SLOAD PUSH2 0x1A17 SWAP1 SWAP2 SWAP1 PUSH4 0xFFFFFFFF AND JUMP JUMPDEST PUSH1 0xB DUP2 SWAP1 SSTORE POP PUSH2 0x8C5 DUP4 PUSH1 0xC PUSH1 0x0 CALLER PUSH20 0xFFFFFFFFFFFFFFFFFFFFFFFFFFFFFFFFFFFFFFFF AND PUSH20 0xFFFFFFFFFFFFFFFFFFFFFFFFFFFFFFFFFFFFFFFF AND DUP2 MSTORE PUSH1 0x20 ADD SWAP1 DUP2 MSTORE PUSH1 0x20 ADD PUSH1 0x0 KECCAK256 SLOAD PUSH2 0x1A17 SWAP1 SWAP2 SWAP1 PUSH4 0xFFFFFFFF AND JUMP JUMPDEST PUSH1 0xC PUSH1 0x0 CALLER PUSH20 0xFFFFFFFFFFFFFFFFFFFFFFFFFFFFFFFFFFFFFFFF AND PUSH20 0xFFFFFFFFFFFFFFFFFFFFFFFFFFFFFFFFFFFFFFFF AND DUP2 MSTORE PUSH1 0x20 ADD SWAP1 DUP2 MSTORE PUSH1 0x20 ADD PUSH1 0x0 KECCAK256 DUP2 SWAP1 SSTORE POP PUSH2 0x955 CALLER DUP5 PUSH1 0x3 PUSH1 0x0 SWAP1 SLOAD SWAP1 PUSH2 0x100 EXP SWAP1 DIV PUSH20 0xFFFFFFFFFFFFFFFFFFFFFFFFFFFFFFFFFFFFFFFF AND PUSH20 0xFFFFFFFFFFFFFFFFFFFFFFFFFFFFFFFFFFFFFFFF AND PUSH2 0x1C3D SWAP1 SWAP3 SWAP2 SWAP1 PUSH4 0xFFFFFFFF AND JUMP JUMPDEST CALLER PUSH20 0xFFFFFFFFFFFFFFFFFFFFFFFFFFFFFFFFFFFFFFFF AND PUSH32 0x7084F5476618D8E60B11EF0D7D3F06914655ADB8793E28FF7F018D4C76D505D5 DUP5 PUSH1 0x40 MLOAD DUP1 DUP3 DUP2 MSTORE PUSH1 0x20 ADD SWAP2 POP POP PUSH1 0x40 MLOAD DUP1 SWAP2 SUB SWAP1 LOG2 POP PUSH1 0x1 SLOAD DUP2 EQ PUSH2 0xA1B JUMPI PUSH1 0x40 MLOAD PUSH32 0x8C379A000000000000000000000000000000000000000000000000000000000 DUP2 MSTORE PUSH1 0x4 ADD DUP1 DUP1 PUSH1 0x20 ADD DUP3 DUP2 SUB DUP3 MSTORE PUSH1 0x1F DUP2 MSTORE PUSH1 0x20 ADD DUP1 PUSH32 0x5265656E7472616E637947756172643A207265656E7472616E742063616C6C00 DUP2 MSTORE POP PUSH1 0x20 ADD SWAP2 POP POP PUSH1 0x40 MLOAD DUP1 SWAP2 SUB SWAP1 REVERT JUMPDEST POP POP JUMP JUMPDEST PUSH1 0x6 SLOAD DUP2 JUMP JUMPDEST PUSH1 0x0 DUP1 SWAP1 SLOAD SWAP1 PUSH2 0x100 EXP SWAP1 DIV PUSH20 0xFFFFFFFFFFFFFFFFFFFFFFFFFFFFFFFFFFFFFFFF AND PUSH20 0xFFFFFFFFFFFFFFFFFFFFFFFFFFFFFFFFFFFFFFFF AND CALLER PUSH20 0xFFFFFFFFFFFFFFFFFFFFFFFFFFFFFFFFFFFFFFFF AND EQ PUSH2 0xACA JUMPI PUSH1 0x40 MLOAD PUSH32 0x8C379A000000000000000000000000000000000000000000000000000000000 DUP2 MSTORE PUSH1 0x4 ADD DUP1 DUP1 PUSH1 0x20 ADD DUP3 DUP2 SUB DUP3 MSTORE PUSH1 0x2A DUP2 MSTORE PUSH1 0x20 ADD DUP1 PUSH2 0x20AD PUSH1 0x2A SWAP2 CODECOPY PUSH1 0x40 ADD SWAP2 POP POP PUSH1 0x40 MLOAD DUP1 SWAP2 SUB SWAP1 REVERT JUMPDEST PUSH1 0x0 PUSH2 0xAD4 PUSH2 0x14AC JUMP JUMPDEST PUSH1 0x8 DUP2 SWAP1 SSTORE POP PUSH2 0xAE2 PUSH2 0x1141 JUMP JUMPDEST PUSH1 0x7 DUP2 SWAP1 SSTORE POP PUSH1 0x0 PUSH20 0xFFFFFFFFFFFFFFFFFFFFFFFFFFFFFFFFFFFFFFFF AND DUP2 PUSH20 0xFFFFFFFFFFFFFFFFFFFFFFFFFFFFFFFFFFFFFFFF AND EQ PUSH2 0xBAF JUMPI PUSH2 0xB25 DUP2 PUSH2 0x589 JUMP JUMPDEST PUSH1 0xA PUSH1 0x0 DUP4 PUSH20 0xFFFFFFFFFFFFFFFFFFFFFFFFFFFFFFFFFFFFFFFF AND PUSH20 0xFFFFFFFFFFFFFFFFFFFFFFFFFFFFFFFFFFFFFFFF AND DUP2 MSTORE PUSH1 0x20 ADD SWAP1 DUP2 MSTORE PUSH1 0x20 ADD PUSH1 0x0 KECCAK256 DUP2 SWAP1 SSTORE POP PUSH1 0x8 SLOAD PUSH1 0x9 PUSH1 0x0 DUP4 PUSH20 0xFFFFFFFFFFFFFFFFFFFFFFFFFFFFFFFFFFFFFFFF AND PUSH20 0xFFFFFFFFFFFFFFFFFFFFFFFFFFFFFFFFFFFFFFFF AND DUP2 MSTORE PUSH1 0x20 ADD SWAP1 DUP2 MSTORE PUSH1 0x20 ADD PUSH1 0x0 KECCAK256 DUP2 SWAP1 SSTORE POP JUMPDEST PUSH1 0x4 SLOAD TIMESTAMP LT PUSH2 0xBD8 JUMPI PUSH2 0xBCD PUSH1 0x6 SLOAD DUP4 PUSH2 0x1B26 SWAP1 SWAP2 SWAP1 PUSH4 0xFFFFFFFF AND JUMP JUMPDEST PUSH1 0x5 DUP2 SWAP1 SSTORE POP PUSH2 0xC3A JUMP JUMPDEST PUSH1 0x0 PUSH2 0xBEF TIMESTAMP PUSH1 0x4 SLOAD PUSH2 0x1A17 SWAP1 SWAP2 SWAP1 PUSH4 0xFFFFFFFF AND JUMP JUMPDEST SWAP1 POP PUSH1 0x0 PUSH2 0xC08 PUSH1 0x5 SLOAD DUP4 PUSH2 0x1AA0 SWAP1 SWAP2 SWAP1 PUSH4 0xFFFFFFFF AND JUMP JUMPDEST SWAP1 POP PUSH2 0xC31 PUSH1 0x6 SLOAD PUSH2 0xC23 DUP4 DUP8 PUSH2 0x1BB5 SWAP1 SWAP2 SWAP1 PUSH4 0xFFFFFFFF AND JUMP JUMPDEST PUSH2 0x1B26 SWAP1 SWAP2 SWAP1 PUSH4 0xFFFFFFFF AND JUMP JUMPDEST PUSH1 0x5 DUP2 SWAP1 SSTORE POP POP POP JUMPDEST PUSH1 0x0 PUSH1 0x2 PUSH1 0x0 SWAP1 SLOAD SWAP1 PUSH2 0x100 EXP SWAP1 DIV PUSH20 0xFFFFFFFFFFFFFFFFFFFFFFFFFFFFFFFFFFFFFFFF AND PUSH20 0xFFFFFFFFFFFFFFFFFFFFFFFFFFFFFFFFFFFFFFFF AND PUSH4 0x70A08231 ADDRESS PUSH1 0x40 MLOAD DUP3 PUSH4 0xFFFFFFFF AND PUSH1 0xE0 SHL DUP2 MSTORE PUSH1 0x4 ADD DUP1 DUP3 PUSH20 0xFFFFFFFFFFFFFFFFFFFFFFFFFFFFFFFFFFFFFFFF AND PUSH20 0xFFFFFFFFFFFFFFFFFFFFFFFFFFFFFFFFFFFFFFFF AND DUP2 MSTORE PUSH1 0x20 ADD SWAP2 POP POP PUSH1 0x20 PUSH1 0x40 MLOAD DUP1 DUP4 SUB DUP2 DUP7 DUP1 EXTCODESIZE ISZERO DUP1 ISZERO PUSH2 0xCDB JUMPI PUSH1 0x0 DUP1 REVERT JUMPDEST POP GAS STATICCALL ISZERO DUP1 ISZERO PUSH2 0xCEF JUMPI RETURNDATASIZE PUSH1 0x0 DUP1 RETURNDATACOPY RETURNDATASIZE PUSH1 0x0 REVERT JUMPDEST POP POP POP POP PUSH1 0x40 MLOAD RETURNDATASIZE PUSH1 0x20 DUP2 LT ISZERO PUSH2 0xD05 JUMPI PUSH1 0x0 DUP1 REVERT JUMPDEST DUP2 ADD SWAP1 DUP1 DUP1 MLOAD SWAP1 PUSH1 0x20 ADD SWAP1 SWAP3 SWAP2 SWAP1 POP POP POP SWAP1 POP PUSH2 0xD2D PUSH1 0x6 SLOAD DUP3 PUSH2 0x1B26 SWAP1 SWAP2 SWAP1 PUSH4 0xFFFFFFFF AND JUMP JUMPDEST PUSH1 0x5 SLOAD GT ISZERO PUSH2 0xDA4 JUMPI PUSH1 0x40 MLOAD PUSH32 0x8C379A000000000000000000000000000000000000000000000000000000000 DUP2 MSTORE PUSH1 0x4 ADD DUP1 DUP1 PUSH1 0x20 ADD DUP3 DUP2 SUB DUP3 MSTORE PUSH1 0x18 DUP2 MSTORE PUSH1 0x20 ADD DUP1 PUSH32 0x50726F76696465642072657761726420746F6F20686967680000000000000000 DUP2 MSTORE POP PUSH1 0x20 ADD SWAP2 POP POP PUSH1 0x40 MLOAD DUP1 SWAP2 SUB SWAP1 REVERT JUMPDEST TIMESTAMP PUSH1 0x7 DUP2 SWAP1 SSTORE POP PUSH2 0xDC0 PUSH1 0x6 SLOAD TIMESTAMP PUSH2 0x1BB5 SWAP1 SWAP2 SWAP1 PUSH4 0xFFFFFFFF AND JUMP JUMPDEST PUSH1 0x4 DUP2 SWAP1 SSTORE POP PUSH32 0xDE88A922E0D3B88B24E9623EFEB464919C6BF9F66857A65E2BFCF2CE87A9433D DUP4 PUSH1 0x40 MLOAD DUP1 DUP3 DUP2 MSTORE PUSH1 0x20 ADD SWAP2 POP POP PUSH1 0x40 MLOAD DUP1 SWAP2 SUB SWAP1 LOG1 POP POP POP JUMP JUMPDEST PUSH1 0x1 DUP1 PUSH1 0x0 DUP3 DUP3 SLOAD ADD SWAP3 POP POP DUP2 SWAP1 SSTORE POP PUSH1 0x0 PUSH1 0x1 SLOAD SWAP1 POP CALLER PUSH2 0xE22 PUSH2 0x14AC JUMP JUMPDEST PUSH1 0x8 DUP2 SWAP1 SSTORE POP PUSH2 0xE30 PUSH2 0x1141 JUMP JUMPDEST PUSH1 0x7 DUP2 SWAP1 SSTORE POP PUSH1 0x0 PUSH20 0xFFFFFFFFFFFFFFFFFFFFFFFFFFFFFFFFFFFFFFFF AND DUP2 PUSH20 0xFFFFFFFFFFFFFFFFFFFFFFFFFFFFFFFFFFFFFFFF AND EQ PUSH2 0xEFD JUMPI PUSH2 0xE73 DUP2 PUSH2 0x589 JUMP JUMPDEST PUSH1 0xA PUSH1 0x0 DUP4 PUSH20 0xFFFFFFFFFFFFFFFFFFFFFFFFFFFFFFFFFFFFFFFF AND PUSH20 0xFFFFFFFFFFFFFFFFFFFFFFFFFFFFFFFFFFFFFFFF AND DUP2 MSTORE PUSH1 0x20 ADD SWAP1 DUP2 MSTORE PUSH1 0x20 ADD PUSH1 0x0 KECCAK256 DUP2 SWAP1 SSTORE POP PUSH1 0x8 SLOAD PUSH1 0x9 PUSH1 0x0 DUP4 PUSH20 0xFFFFFFFFFFFFFFFFFFFFFFFFFFFFFFFFFFFFFFFF AND PUSH20 0xFFFFFFFFFFFFFFFFFFFFFFFFFFFFFFFFFFFFFFFF AND DUP2 MSTORE PUSH1 0x20 ADD SWAP1 DUP2 MSTORE PUSH1 0x20 ADD PUSH1 0x0 KECCAK256 DUP2 SWAP1 SSTORE POP JUMPDEST PUSH1 0x0 PUSH1 0xA PUSH1 0x0 CALLER PUSH20 0xFFFFFFFFFFFFFFFFFFFFFFFFFFFFFFFFFFFFFFFF AND PUSH20 0xFFFFFFFFFFFFFFFFFFFFFFFFFFFFFFFFFFFFFFFF AND DUP2 MSTORE PUSH1 0x20 ADD SWAP1 DUP2 MSTORE PUSH1 0x20 ADD PUSH1 0x0 KECCAK256 SLOAD SWAP1 POP PUSH1 0x0 DUP2 GT ISZERO PUSH2 0x102B JUMPI PUSH1 0x0 PUSH1 0xA PUSH1 0x0 CALLER PUSH20 0xFFFFFFFFFFFFFFFFFFFFFFFFFFFFFFFFFFFFFFFF AND PUSH20 0xFFFFFFFFFFFFFFFFFFFFFFFFFFFFFFFFFFFFFFFF AND DUP2 MSTORE PUSH1 0x20 ADD SWAP1 DUP2 MSTORE PUSH1 0x20 ADD PUSH1 0x0 KECCAK256 DUP2 SWAP1 SSTORE POP PUSH2 0xFDC CALLER DUP3 PUSH1 0x2 PUSH1 0x0 SWAP1 SLOAD SWAP1 PUSH2 0x100 EXP SWAP1 DIV PUSH20 0xFFFFFFFFFFFFFFFFFFFFFFFFFFFFFFFFFFFFFFFF AND PUSH20 0xFFFFFFFFFFFFFFFFFFFFFFFFFFFFFFFFFFFFFFFF AND PUSH2 0x1C3D SWAP1 SWAP3 SWAP2 SWAP1 PUSH4 0xFFFFFFFF AND JUMP JUMPDEST CALLER PUSH20 0xFFFFFFFFFFFFFFFFFFFFFFFFFFFFFFFFFFFFFFFF AND PUSH32 0xE2403640BA68FED3A2F88B7557551D1993F84B99BB10FF833F0CF8DB0C5E0486 DUP3 PUSH1 0x40 MLOAD DUP1 DUP3 DUP2 MSTORE PUSH1 0x20 ADD SWAP2 POP POP PUSH1 0x40 MLOAD DUP1 SWAP2 SUB SWAP1 LOG2 JUMPDEST POP POP PUSH1 0x1 SLOAD DUP2 EQ PUSH2 0x10A4 JUMPI PUSH1 0x40 MLOAD PUSH32 0x8C379A000000000000000000000000000000000000000000000000000000000 DUP2 MSTORE PUSH1 0x4 ADD DUP1 DUP1 PUSH1 0x20 ADD DUP3 DUP2 SUB DUP3 MSTORE PUSH1 0x1F DUP2 MSTORE PUSH1 0x20 ADD DUP1 PUSH32 0x5265656E7472616E637947756172643A207265656E7472616E742063616C6C00 DUP2 MSTORE POP PUSH1 0x20 ADD SWAP2 POP POP PUSH1 0x40 MLOAD DUP1 SWAP2 SUB SWAP1 REVERT JUMPDEST POP JUMP JUMPDEST PUSH1 0x0 DUP1 SWAP1 SLOAD SWAP1 PUSH2 0x100 EXP SWAP1 DIV PUSH20 0xFFFFFFFFFFFFFFFFFFFFFFFFFFFFFFFFFFFFFFFF AND DUP2 JUMP JUMPDEST PUSH1 0x0 PUSH1 0xC PUSH1 0x0 DUP4 PUSH20 0xFFFFFFFFFFFFFFFFFFFFFFFFFFFFFFFFFFFFFFFF AND PUSH20 0xFFFFFFFFFFFFFFFFFFFFFFFFFFFFFFFFFFFFFFFF AND DUP2 MSTORE PUSH1 0x20 ADD SWAP1 DUP2 MSTORE PUSH1 0x20 ADD PUSH1 0x0 KECCAK256 SLOAD SWAP1 POP SWAP2 SWAP1 POP JUMP JUMPDEST PUSH1 0x3 PUSH1 0x0 SWAP1 SLOAD SWAP1 PUSH2 0x100 EXP SWAP1 DIV PUSH20 0xFFFFFFFFFFFFFFFFFFFFFFFFFFFFFFFFFFFFFFFF AND DUP2 JUMP JUMPDEST PUSH1 0x5 SLOAD DUP2 JUMP JUMPDEST PUSH1 0x0 PUSH2 0x114F TIMESTAMP PUSH1 0x4 SLOAD PUSH2 0x1D0E JUMP JUMPDEST SWAP1 POP SWAP1 JUMP JUMPDEST PUSH1 0x9 PUSH1 0x20 MSTORE DUP1 PUSH1 0x0 MSTORE PUSH1 0x40 PUSH1 0x0 KECCAK256 PUSH1 0x0 SWAP2 POP SWAP1 POP SLOAD DUP2 JUMP JUMPDEST PUSH1 0x1 DUP1 PUSH1 0x0 DUP3 DUP3 SLOAD ADD SWAP3 POP POP DUP2 SWAP1 SSTORE POP PUSH1 0x0 PUSH1 0x1 SLOAD SWAP1 POP CALLER PUSH2 0x118C PUSH2 0x14AC JUMP JUMPDEST PUSH1 0x8 DUP2 SWAP1 SSTORE POP PUSH2 0x119A PUSH2 0x1141 JUMP JUMPDEST PUSH1 0x7 DUP2 SWAP1 SSTORE POP PUSH1 0x0 PUSH20 0xFFFFFFFFFFFFFFFFFFFFFFFFFFFFFFFFFFFFFFFF AND DUP2 PUSH20 0xFFFFFFFFFFFFFFFFFFFFFFFFFFFFFFFFFFFFFFFF AND EQ PUSH2 0x1267 JUMPI PUSH2 0x11DD DUP2 PUSH2 0x589 JUMP JUMPDEST PUSH1 0xA PUSH1 0x0 DUP4 PUSH20 0xFFFFFFFFFFFFFFFFFFFFFFFFFFFFFFFFFFFFFFFF AND PUSH20 0xFFFFFFFFFFFFFFFFFFFFFFFFFFFFFFFFFFFFFFFF AND DUP2 MSTORE PUSH1 0x20 ADD SWAP1 DUP2 MSTORE PUSH1 0x20 ADD PUSH1 0x0 KECCAK256 DUP2 SWAP1 SSTORE POP PUSH1 0x8 SLOAD PUSH1 0x9 PUSH1 0x0 DUP4 PUSH20 0xFFFFFFFFFFFFFFFFFFFFFFFFFFFFFFFFFFFFFFFF AND PUSH20 0xFFFFFFFFFFFFFFFFFFFFFFFFFFFFFFFFFFFFFFFF AND DUP2 MSTORE PUSH1 0x20 ADD SWAP1 DUP2 MSTORE PUSH1 0x20 ADD PUSH1 0x0 KECCAK256 DUP2 SWAP1 SSTORE POP JUMPDEST PUSH1 0x0 DUP4 GT PUSH2 0x12DD JUMPI PUSH1 0x40 MLOAD PUSH32 0x8C379A000000000000000000000000000000000000000000000000000000000 DUP2 MSTORE PUSH1 0x4 ADD DUP1 DUP1 PUSH1 0x20 ADD DUP3 DUP2 SUB DUP3 MSTORE PUSH1 0xE DUP2 MSTORE PUSH1 0x20 ADD DUP1 PUSH32 0x43616E6E6F74207374616B652030000000000000000000000000000000000000 DUP2 MSTORE POP PUSH1 0x20 ADD SWAP2 POP POP PUSH1 0x40 MLOAD DUP1 SWAP2 SUB SWAP1 REVERT JUMPDEST PUSH2 0x12F2 DUP4 PUSH1 0xB SLOAD PUSH2 0x1BB5 SWAP1 SWAP2 SWAP1 PUSH4 0xFFFFFFFF AND JUMP JUMPDEST PUSH1 0xB DUP2 SWAP1 SSTORE POP PUSH2 0x134A DUP4 PUSH1 0xC PUSH1 0x0 CALLER PUSH20 0xFFFFFFFFFFFFFFFFFFFFFFFFFFFFFFFFFFFFFFFF AND PUSH20 0xFFFFFFFFFFFFFFFFFFFFFFFFFFFFFFFFFFFFFFFF AND DUP2 MSTORE PUSH1 0x20 ADD SWAP1 DUP2 MSTORE PUSH1 0x20 ADD PUSH1 0x0 KECCAK256 SLOAD PUSH2 0x1BB5 SWAP1 SWAP2 SWAP1 PUSH4 0xFFFFFFFF AND JUMP JUMPDEST PUSH1 0xC PUSH1 0x0 CALLER PUSH20 0xFFFFFFFFFFFFFFFFFFFFFFFFFFFFFFFFFFFFFFFF AND PUSH20 0xFFFFFFFFFFFFFFFFFFFFFFFFFFFFFFFFFFFFFFFF AND DUP2 MSTORE PUSH1 0x20 ADD SWAP1 DUP2 MSTORE PUSH1 0x20 ADD PUSH1 0x0 KECCAK256 DUP2 SWAP1 SSTORE POP PUSH2 0x13DC CALLER ADDRESS DUP6 PUSH1 0x3 PUSH1 0x0 SWAP1 SLOAD SWAP1 PUSH2 0x100 EXP SWAP1 DIV PUSH20 0xFFFFFFFFFFFFFFFFFFFFFFFFFFFFFFFFFFFFFFFF AND PUSH20 0xFFFFFFFFFFFFFFFFFFFFFFFFFFFFFFFFFFFFFFFF AND PUSH2 0x1D27 SWAP1 SWAP4 SWAP3 SWAP2 SWAP1 PUSH4 0xFFFFFFFF AND JUMP JUMPDEST CALLER PUSH20 0xFFFFFFFFFFFFFFFFFFFFFFFFFFFFFFFFFFFFFFFF AND PUSH32 0x9E71BC8EEA02A63969F509818F2DAFB9254532904319F9DBDA79B67BD34A5F3D DUP5 PUSH1 0x40 MLOAD DUP1 DUP3 DUP2 MSTORE PUSH1 0x20 ADD SWAP2 POP POP PUSH1 0x40 MLOAD DUP1 SWAP2 SUB SWAP1 LOG2 POP PUSH1 0x1 SLOAD DUP2 EQ PUSH2 0x14A2 JUMPI PUSH1 0x40 MLOAD PUSH32 0x8C379A000000000000000000000000000000000000000000000000000000000 DUP2 MSTORE PUSH1 0x4 ADD DUP1 DUP1 PUSH1 0x20 ADD DUP3 DUP2 SUB DUP3 MSTORE PUSH1 0x1F DUP2 MSTORE PUSH1 0x20 ADD DUP1 PUSH32 0x5265656E7472616E637947756172643A207265656E7472616E742063616C6C00 DUP2 MSTORE POP PUSH1 0x20 ADD SWAP2 POP POP PUSH1 0x40 MLOAD DUP1 SWAP2 SUB SWAP1 REVERT JUMPDEST POP POP JUMP JUMPDEST PUSH1 0x7 SLOAD DUP2 JUMP JUMPDEST PUSH1 0x0 DUP1 PUSH1 0xB SLOAD EQ ISZERO PUSH2 0x14C2 JUMPI PUSH1 0x8 SLOAD SWAP1 POP PUSH2 0x1537 JUMP JUMPDEST PUSH2 0x1534 PUSH2 0x1523 PUSH1 0xB SLOAD PUSH2 0x1515 PUSH8 0xDE0B6B3A7640000 PUSH2 0x1507 PUSH1 0x5 SLOAD PUSH2 0x14F9 PUSH1 0x7 SLOAD PUSH2 0x14EB PUSH2 0x1141 JUMP JUMPDEST PUSH2 0x1A17 SWAP1 SWAP2 SWAP1 PUSH4 0xFFFFFFFF AND JUMP JUMPDEST PUSH2 0x1AA0 SWAP1 SWAP2 SWAP1 PUSH4 0xFFFFFFFF AND JUMP JUMPDEST PUSH2 0x1AA0 SWAP1 SWAP2 SWAP1 PUSH4 0xFFFFFFFF AND JUMP JUMPDEST PUSH2 0x1B26 SWAP1 SWAP2 SWAP1 PUSH4 0xFFFFFFFF AND JUMP JUMPDEST PUSH1 0x8 SLOAD PUSH2 0x1BB5 SWAP1 SWAP2 SWAP1 PUSH4 0xFFFFFFFF AND JUMP JUMPDEST SWAP1 POP JUMPDEST SWAP1 JUMP JUMPDEST PUSH1 0x2 PUSH1 0x0 SWAP1 SLOAD SWAP1 PUSH2 0x100 EXP SWAP1 DIV PUSH20 0xFFFFFFFFFFFFFFFFFFFFFFFFFFFFFFFFFFFFFFFF AND DUP2 JUMP JUMPDEST PUSH1 0x8 SLOAD DUP2 JUMP JUMPDEST PUSH2 0x15AE PUSH1 0xC PUSH1 0x0 CALLER PUSH20 0xFFFFFFFFFFFFFFFFFFFFFFFFFFFFFFFFFFFFFFFF AND PUSH20 0xFFFFFFFFFFFFFFFFFFFFFFFFFFFFFFFFFFFFFFFF AND DUP2 MSTORE PUSH1 0x20 ADD SWAP1 DUP2 MSTORE PUSH1 0x20 ADD PUSH1 0x0 KECCAK256 SLOAD PUSH2 0x6E7 JUMP JUMPDEST PUSH2 0x15B6 PUSH2 0xE02 JUMP JUMPDEST JUMP JUMPDEST PUSH1 0x4 SLOAD DUP2 JUMP JUMPDEST PUSH1 0x1 DUP1 PUSH1 0x0 DUP3 DUP3 SLOAD ADD SWAP3 POP POP DUP2 SWAP1 SSTORE POP PUSH1 0x0 PUSH1 0x1 SLOAD SWAP1 POP CALLER PUSH2 0x15DE PUSH2 0x14AC JUMP JUMPDEST PUSH1 0x8 DUP2 SWAP1 SSTORE POP PUSH2 0x15EC PUSH2 0x1141 JUMP JUMPDEST PUSH1 0x7 DUP2 SWAP1 SSTORE POP PUSH1 0x0 PUSH20 0xFFFFFFFFFFFFFFFFFFFFFFFFFFFFFFFFFFFFFFFF AND DUP2 PUSH20 0xFFFFFFFFFFFFFFFFFFFFFFFFFFFFFFFFFFFFFFFF AND EQ PUSH2 0x16B9 JUMPI PUSH2 0x162F DUP2 PUSH2 0x589 JUMP JUMPDEST PUSH1 0xA PUSH1 0x0 DUP4 PUSH20 0xFFFFFFFFFFFFFFFFFFFFFFFFFFFFFFFFFFFFFFFF AND PUSH20 0xFFFFFFFFFFFFFFFFFFFFFFFFFFFFFFFFFFFFFFFF AND DUP2 MSTORE PUSH1 0x20 ADD SWAP1 DUP2 MSTORE PUSH1 0x20 ADD PUSH1 0x0 KECCAK256 DUP2 SWAP1 SSTORE POP PUSH1 0x8 SLOAD PUSH1 0x9 PUSH1 0x0 DUP4 PUSH20 0xFFFFFFFFFFFFFFFFFFFFFFFFFFFFFFFFFFFFFFFF AND PUSH20 0xFFFFFFFFFFFFFFFFFFFFFFFFFFFFFFFFFFFFFFFF AND DUP2 MSTORE PUSH1 0x20 ADD SWAP1 DUP2 MSTORE PUSH1 0x20 ADD PUSH1 0x0 KECCAK256 DUP2 SWAP1 SSTORE POP JUMPDEST PUSH1 0x0 DUP8 GT PUSH2 0x172F JUMPI PUSH1 0x40 MLOAD PUSH32 0x8C379A000000000000000000000000000000000000000000000000000000000 DUP2 MSTORE PUSH1 0x4 ADD DUP1 DUP1 PUSH1 0x20 ADD DUP3 DUP2 SUB DUP3 MSTORE PUSH1 0xE DUP2 MSTORE PUSH1 0x20 ADD DUP1 PUSH32 0x43616E6E6F74207374616B652030000000000000000000000000000000000000 DUP2 MSTORE POP PUSH1 0x20 ADD SWAP2 POP POP PUSH1 0x40 MLOAD DUP1 SWAP2 SUB SWAP1 REVERT JUMPDEST PUSH2 0x1744 DUP8 PUSH1 0xB SLOAD PUSH2 0x1BB5 SWAP1 SWAP2 SWAP1 PUSH4 0xFFFFFFFF AND JUMP JUMPDEST PUSH1 0xB DUP2 SWAP1 SSTORE POP PUSH2 0x179C DUP8 PUSH1 0xC PUSH1 0x0 CALLER PUSH20 0xFFFFFFFFFFFFFFFFFFFFFFFFFFFFFFFFFFFFFFFF AND PUSH20 0xFFFFFFFFFFFFFFFFFFFFFFFFFFFFFFFFFFFFFFFF AND DUP2 MSTORE PUSH1 0x20 ADD SWAP1 DUP2 MSTORE PUSH1 0x20 ADD PUSH1 0x0 KECCAK256 SLOAD PUSH2 0x1BB5 SWAP1 SWAP2 SWAP1 PUSH4 0xFFFFFFFF AND JUMP JUMPDEST PUSH1 0xC PUSH1 0x0 CALLER PUSH20 0xFFFFFFFFFFFFFFFFFFFFFFFFFFFFFFFFFFFFFFFF AND PUSH20 0xFFFFFFFFFFFFFFFFFFFFFFFFFFFFFFFFFFFFFFFF AND DUP2 MSTORE PUSH1 0x20 ADD SWAP1 DUP2 MSTORE PUSH1 0x20 ADD PUSH1 0x0 KECCAK256 DUP2 SWAP1 SSTORE POP PUSH1 0x3 PUSH1 0x0 SWAP1 SLOAD SWAP1 PUSH2 0x100 EXP SWAP1 DIV PUSH20 0xFFFFFFFFFFFFFFFFFFFFFFFFFFFFFFFFFFFFFFFF AND PUSH20 0xFFFFFFFFFFFFFFFFFFFFFFFFFFFFFFFFFFFFFFFF AND PUSH4 0xD505ACCF CALLER ADDRESS DUP11 DUP11 DUP11 DUP11 DUP11 PUSH1 0x40 MLOAD DUP9 PUSH4 0xFFFFFFFF AND PUSH1 0xE0 SHL DUP2 MSTORE PUSH1 0x4 ADD DUP1 DUP9 PUSH20 0xFFFFFFFFFFFFFFFFFFFFFFFFFFFFFFFFFFFFFFFF AND PUSH20 0xFFFFFFFFFFFFFFFFFFFFFFFFFFFFFFFFFFFFFFFF AND DUP2 MSTORE PUSH1 0x20 ADD DUP8 PUSH20 0xFFFFFFFFFFFFFFFFFFFFFFFFFFFFFFFFFFFFFFFF AND PUSH20 0xFFFFFFFFFFFFFFFFFFFFFFFFFFFFFFFFFFFFFFFF AND DUP2 MSTORE PUSH1 0x20 ADD DUP7 DUP2 MSTORE PUSH1 0x20 ADD DUP6 DUP2 MSTORE PUSH1 0x20 ADD DUP5 PUSH1 0xFF AND PUSH1 0xFF AND DUP2 MSTORE PUSH1 0x20 ADD DUP4 DUP2 MSTORE PUSH1 0x20 ADD DUP3 DUP2 MSTORE PUSH1 0x20 ADD SWAP8 POP POP POP POP POP POP POP POP PUSH1 0x0 PUSH1 0x40 MLOAD DUP1 DUP4 SUB DUP2 PUSH1 0x0 DUP8 DUP1 EXTCODESIZE ISZERO DUP1 ISZERO PUSH2 0x18E2 JUMPI PUSH1 0x0 DUP1 REVERT JUMPDEST POP GAS CALL ISZERO DUP1 ISZERO PUSH2 0x18F6 JUMPI RETURNDATASIZE PUSH1 0x0 DUP1 RETURNDATACOPY RETURNDATASIZE PUSH1 0x0 REVERT JUMPDEST POP POP POP POP PUSH2 0x1949 CALLER ADDRESS DUP10 PUSH1 0x3 PUSH1 0x0 SWAP1 SLOAD SWAP1 PUSH2 0x100 EXP SWAP1 DIV PUSH20 0xFFFFFFFFFFFFFFFFFFFFFFFFFFFFFFFFFFFFFFFF AND PUSH20 0xFFFFFFFFFFFFFFFFFFFFFFFFFFFFFFFFFFFFFFFF AND PUSH2 0x1D27 SWAP1 SWAP4 SWAP3 SWAP2 SWAP1 PUSH4 0xFFFFFFFF AND JUMP JUMPDEST CALLER PUSH20 0xFFFFFFFFFFFFFFFFFFFFFFFFFFFFFFFFFFFFFFFF AND PUSH32 0x9E71BC8EEA02A63969F509818F2DAFB9254532904319F9DBDA79B67BD34A5F3D DUP9 PUSH1 0x40 MLOAD DUP1 DUP3 DUP2 MSTORE PUSH1 0x20 ADD SWAP2 POP POP PUSH1 0x40 MLOAD DUP1 SWAP2 SUB SWAP1 LOG2 POP PUSH1 0x1 SLOAD DUP2 EQ PUSH2 0x1A0F JUMPI PUSH1 0x40 MLOAD PUSH32 0x8C379A000000000000000000000000000000000000000000000000000000000 DUP2 MSTORE PUSH1 0x4 ADD DUP1 DUP1 PUSH1 0x20 ADD DUP3 DUP2 SUB DUP3 MSTORE PUSH1 0x1F DUP2 MSTORE PUSH1 0x20 ADD DUP1 PUSH32 0x5265656E7472616E637947756172643A207265656E7472616E742063616C6C00 DUP2 MSTORE POP PUSH1 0x20 ADD SWAP2 POP POP PUSH1 0x40 MLOAD DUP1 SWAP2 SUB SWAP1 REVERT JUMPDEST POP POP POP POP POP POP JUMP JUMPDEST PUSH1 0x0 DUP3 DUP3 GT ISZERO PUSH2 0x1A8F JUMPI PUSH1 0x40 MLOAD PUSH32 0x8C379A000000000000000000000000000000000000000000000000000000000 DUP2 MSTORE PUSH1 0x4 ADD DUP1 DUP1 PUSH1 0x20 ADD DUP3 DUP2 SUB DUP3 MSTORE PUSH1 0x1E DUP2 MSTORE PUSH1 0x20 ADD DUP1 PUSH32 0x536166654D6174683A207375627472616374696F6E206F766572666C6F770000 DUP2 MSTORE POP PUSH1 0x20 ADD SWAP2 POP POP PUSH1 0x40 MLOAD DUP1 SWAP2 SUB SWAP1 REVERT JUMPDEST PUSH1 0x0 DUP3 DUP5 SUB SWAP1 POP DUP1 SWAP2 POP POP SWAP3 SWAP2 POP POP JUMP JUMPDEST PUSH1 0x0 DUP1 DUP4 EQ ISZERO PUSH2 0x1AB3 JUMPI PUSH1 0x0 SWAP1 POP PUSH2 0x1B20 JUMP JUMPDEST PUSH1 0x0 DUP3 DUP5 MUL SWAP1 POP DUP3 DUP5 DUP3 DUP2 PUSH2 0x1AC4 JUMPI INVALID JUMPDEST DIV EQ PUSH2 0x1B1B JUMPI PUSH1 0x40 MLOAD PUSH32 0x8C379A000000000000000000000000000000000000000000000000000000000 DUP2 MSTORE PUSH1 0x4 ADD DUP1 DUP1 PUSH1 0x20 ADD DUP3 DUP2 SUB DUP3 MSTORE PUSH1 0x21 DUP2 MSTORE PUSH1 0x20 ADD DUP1 PUSH2 0x208C PUSH1 0x21 SWAP2 CODECOPY PUSH1 0x40 ADD SWAP2 POP POP PUSH1 0x40 MLOAD DUP1 SWAP2 SUB SWAP1 REVERT JUMPDEST DUP1 SWAP2 POP POP JUMPDEST SWAP3 SWAP2 POP POP JUMP JUMPDEST PUSH1 0x0 DUP1 DUP3 GT PUSH2 0x1B9D JUMPI PUSH1 0x40 MLOAD PUSH32 0x8C379A000000000000000000000000000000000000000000000000000000000 DUP2 MSTORE PUSH1 0x4 ADD DUP1 DUP1 PUSH1 0x20 ADD DUP3 DUP2 SUB DUP3 MSTORE PUSH1 0x1A DUP2 MSTORE PUSH1 0x20 ADD DUP1 PUSH32 0x536166654D6174683A206469766973696F6E206279207A65726F000000000000 DUP2 MSTORE POP PUSH1 0x20 ADD SWAP2 POP POP PUSH1 0x40 MLOAD DUP1 SWAP2 SUB SWAP1 REVERT JUMPDEST PUSH1 0x0 DUP3 DUP5 DUP2 PUSH2 0x1BA8 JUMPI INVALID JUMPDEST DIV SWAP1 POP DUP1 SWAP2 POP POP SWAP3 SWAP2 POP POP JUMP JUMPDEST PUSH1 0x0 DUP1 DUP3 DUP5 ADD SWAP1 POP DUP4 DUP2 LT ISZERO PUSH2 0x1C33 JUMPI PUSH1 0x40 MLOAD PUSH32 0x8C379A000000000000000000000000000000000000000000000000000000000 DUP2 MSTORE PUSH1 0x4 ADD DUP1 DUP1 PUSH1 0x20 ADD DUP3 DUP2 SUB DUP3 MSTORE PUSH1 0x1B DUP2 MSTORE PUSH1 0x20 ADD DUP1 PUSH32 0x536166654D6174683A206164646974696F6E206F766572666C6F770000000000 DUP2 MSTORE POP PUSH1 0x20 ADD SWAP2 POP POP PUSH1 0x40 MLOAD DUP1 SWAP2 SUB SWAP1 REVERT JUMPDEST DUP1 SWAP2 POP POP SWAP3 SWAP2 POP POP JUMP JUMPDEST PUSH2 0x1D09 DUP4 DUP5 PUSH20 0xFFFFFFFFFFFFFFFFFFFFFFFFFFFFFFFFFFFFFFFF AND PUSH4 0xA9059CBB SWAP1 POP PUSH1 0xE0 SHL DUP5 DUP5 PUSH1 0x40 MLOAD PUSH1 0x24 ADD DUP1 DUP4 PUSH20 0xFFFFFFFFFFFFFFFFFFFFFFFFFFFFFFFFFFFFFFFF AND PUSH20 0xFFFFFFFFFFFFFFFFFFFFFFFFFFFFFFFFFFFFFFFF AND DUP2 MSTORE PUSH1 0x20 ADD DUP3 DUP2 MSTORE PUSH1 0x20 ADD SWAP3 POP POP POP PUSH1 0x40 MLOAD PUSH1 0x20 DUP2 DUP4 SUB SUB DUP2 MSTORE SWAP1 PUSH1 0x40 MSTORE SWAP1 PUSH28 0xFFFFFFFFFFFFFFFFFFFFFFFFFFFFFFFFFFFFFFFFFFFFFFFFFFFFFFFF NOT AND PUSH1 0x20 DUP3 ADD DUP1 MLOAD PUSH28 0xFFFFFFFFFFFFFFFFFFFFFFFFFFFFFFFFFFFFFFFFFFFFFFFFFFFFFFFF DUP4 DUP2 DUP4 AND OR DUP4 MSTORE POP POP POP POP PUSH2 0x1E2D JUMP JUMPDEST POP POP POP JUMP JUMPDEST PUSH1 0x0 DUP2 DUP4 LT PUSH2 0x1D1D JUMPI DUP2 PUSH2 0x1D1F JUMP JUMPDEST DUP3 JUMPDEST SWAP1 POP SWAP3 SWAP2 POP POP JUMP JUMPDEST PUSH2 0x1E27 DUP5 DUP6 PUSH20 0xFFFFFFFFFFFFFFFFFFFFFFFFFFFFFFFFFFFFFFFF AND PUSH4 0x23B872DD SWAP1 POP PUSH1 0xE0 SHL DUP6 DUP6 DUP6 PUSH1 0x40 MLOAD PUSH1 0x24 ADD DUP1 DUP5 PUSH20 0xFFFFFFFFFFFFFFFFFFFFFFFFFFFFFFFFFFFFFFFF AND PUSH20 0xFFFFFFFFFFFFFFFFFFFFFFFFFFFFFFFFFFFFFFFF AND DUP2 MSTORE PUSH1 0x20 ADD DUP4 PUSH20 0xFFFFFFFFFFFFFFFFFFFFFFFFFFFFFFFFFFFFFFFF AND PUSH20 0xFFFFFFFFFFFFFFFFFFFFFFFFFFFFFFFFFFFFFFFF AND DUP2 MSTORE PUSH1 0x20 ADD DUP3 DUP2 MSTORE PUSH1 0x20 ADD SWAP4 POP POP POP POP PUSH1 0x40 MLOAD PUSH1 0x20 DUP2 DUP4 SUB SUB DUP2 MSTORE SWAP1 PUSH1 0x40 MSTORE SWAP1 PUSH28 0xFFFFFFFFFFFFFFFFFFFFFFFFFFFFFFFFFFFFFFFFFFFFFFFFFFFFFFFF NOT AND PUSH1 0x20 DUP3 ADD DUP1 MLOAD PUSH28 0xFFFFFFFFFFFFFFFFFFFFFFFFFFFFFFFFFFFFFFFFFFFFFFFFFFFFFFFF DUP4 DUP2 DUP4 AND OR DUP4 MSTORE POP POP POP POP PUSH2 0x1E2D JUMP JUMPDEST POP POP POP POP JUMP JUMPDEST PUSH2 0x1E4C DUP3 PUSH20 0xFFFFFFFFFFFFFFFFFFFFFFFFFFFFFFFFFFFFFFFF AND PUSH2 0x2078 JUMP JUMPDEST PUSH2 0x1EBE JUMPI PUSH1 0x40 MLOAD PUSH32 0x8C379A000000000000000000000000000000000000000000000000000000000 DUP2 MSTORE PUSH1 0x4 ADD DUP1 DUP1 PUSH1 0x20 ADD DUP3 DUP2 SUB DUP3 MSTORE PUSH1 0x1F DUP2 MSTORE PUSH1 0x20 ADD DUP1 PUSH32 0x5361666545524332303A2063616C6C20746F206E6F6E2D636F6E747261637400 DUP2 MSTORE POP PUSH1 0x20 ADD SWAP2 POP POP PUSH1 0x40 MLOAD DUP1 SWAP2 SUB SWAP1 REVERT JUMPDEST PUSH1 0x0 PUSH1 0x60 DUP4 PUSH20 0xFFFFFFFFFFFFFFFFFFFFFFFFFFFFFFFFFFFFFFFF AND DUP4 PUSH1 0x40 MLOAD DUP1 DUP3 DUP1 MLOAD SWAP1 PUSH1 0x20 ADD SWAP1 DUP1 DUP4 DUP4 JUMPDEST PUSH1 0x20 DUP4 LT PUSH2 0x1F0D JUMPI DUP1 MLOAD DUP3 MSTORE PUSH1 0x20 DUP3 ADD SWAP2 POP PUSH1 0x20 DUP2 ADD SWAP1 POP PUSH1 0x20 DUP4 SUB SWAP3 POP PUSH2 0x1EEA JUMP JUMPDEST PUSH1 0x1 DUP4 PUSH1 0x20 SUB PUSH2 0x100 EXP SUB DUP1 NOT DUP3 MLOAD AND DUP2 DUP5 MLOAD AND DUP1 DUP3 OR DUP6 MSTORE POP POP POP POP POP POP SWAP1 POP ADD SWAP2 POP POP PUSH1 0x0 PUSH1 0x40 MLOAD DUP1 DUP4 SUB DUP2 PUSH1 0x0 DUP7 GAS CALL SWAP2 POP POP RETURNDATASIZE DUP1 PUSH1 0x0 DUP2 EQ PUSH2 0x1F6F JUMPI PUSH1 0x40 MLOAD SWAP2 POP PUSH1 0x1F NOT PUSH1 0x3F RETURNDATASIZE ADD AND DUP3 ADD PUSH1 0x40 MSTORE RETURNDATASIZE DUP3 MSTORE RETURNDATASIZE PUSH1 0x0 PUSH1 0x20 DUP5 ADD RETURNDATACOPY PUSH2 0x1F74 JUMP JUMPDEST PUSH1 0x60 SWAP2 POP JUMPDEST POP SWAP2 POP SWAP2 POP DUP2 PUSH2 0x1FEC JUMPI PUSH1 0x40 MLOAD PUSH32 0x8C379A000000000000000000000000000000000000000000000000000000000 DUP2 MSTORE PUSH1 0x4 ADD DUP1 DUP1 PUSH1 0x20 ADD DUP3 DUP2 SUB DUP3 MSTORE PUSH1 0x20 DUP2 MSTORE PUSH1 0x20 ADD DUP1 PUSH32 0x5361666545524332303A206C6F772D6C6576656C2063616C6C206661696C6564 DUP2 MSTORE POP PUSH1 0x20 ADD SWAP2 POP POP PUSH1 0x40 MLOAD DUP1 SWAP2 SUB SWAP1 REVERT JUMPDEST PUSH1 0x0 DUP2 MLOAD GT ISZERO PUSH2 0x2072 JUMPI DUP1 DUP1 PUSH1 0x20 ADD SWAP1 MLOAD PUSH1 0x20 DUP2 LT ISZERO PUSH2 0x200B JUMPI PUSH1 0x0 DUP1 REVERT JUMPDEST DUP2 ADD SWAP1 DUP1 DUP1 MLOAD SWAP1 PUSH1 0x20 ADD SWAP1 SWAP3 SWAP2 SWAP1 POP POP POP PUSH2 0x2071 JUMPI PUSH1 0x40 MLOAD PUSH32 0x8C379A000000000000000000000000000000000000000000000000000000000 DUP2 MSTORE PUSH1 0x4 ADD DUP1 DUP1 PUSH1 0x20 ADD DUP3 DUP2 SUB DUP3 MSTORE PUSH1 0x2A DUP2 MSTORE PUSH1 0x20 ADD DUP1 PUSH2 0x20D7 PUSH1 0x2A SWAP2 CODECOPY PUSH1 0x40 ADD SWAP2 POP POP PUSH1 0x40 MLOAD DUP1 SWAP2 SUB SWAP1 REVERT JUMPDEST JUMPDEST POP POP POP POP JUMP JUMPDEST PUSH1 0x0 DUP1 DUP3 EXTCODESIZE SWAP1 POP PUSH1 0x0 DUP2 GT SWAP2 POP POP SWAP2 SWAP1 POP JUMP INVALID MSTORE8 PUSH2 0x6665 0x4D PUSH2 0x7468 GASPRICE KECCAK256 PUSH14 0x756C7469706C69636174696F6E20 PUSH16 0x766572666C6F7743616C6C6572206973 KECCAK256 PUSH15 0x6F7420526577617264734469737472 PUSH10 0x627574696F6E20636F6E PUSH21 0x726163745361666545524332303A20455243323020 PUSH16 0x7065726174696F6E20646964206E6F74 KECCAK256 PUSH20 0x756363656564A265627A7A72315820CF4E1E4660 MULMOD 0xCF PUSH8 0x49CBD9120DBDA62D OR DUP13 LOG2 PUSH11 0x10EC918C8E7DF88D0B60CB CALLDATALOAD PUSH5 0x736F6C6343 STOP SDIV LT STOP ORIGIN 0x4F PUSH24 0x6E61626C653A206E6577206F776E65722069732074686520 PUSH27 0x65726F20616464726573735374616B696E67526577617264734661 PUSH4 0x746F7279 GASPRICE GASPRICE PUSH5 0x65706C6F79 GASPRICE KECCAK256 PUSH2 0x6C72 PUSH6 0x616479206465 PUSH17 0x6C6F7965645374616B696E675265776172 PUSH5 0x7346616374 PUSH16 0x72793A3A6E6F74696679526577617264 COINBASE PUSH14 0x6F756E74733A2063616C6C656420 PUSH3 0x65666F PUSH19 0x6520616E79206465706C6F79735374616B696E PUSH8 0x5265776172647346 PUSH2 0x6374 PUSH16 0x72793A3A6E6F74696679526577617264 COINBASE PUSH14 0x6F756E743A207472616E73666572 KECCAK256 PUSH7 0x61696C65645374 PUSH2 0x6B69 PUSH15 0x6752657761726473466163746F7279 GASPRICE GASPRICE PUSH5 0x65706C6F79 GASPRICE KECCAK256 PUSH19 0x6577617264734475726174696F6E2063616E20 PUSH15 0x6F74206265207A65726F5374616B69 PUSH15 0x6752657761726473466163746F7279 GASPRICE GASPRICE PUSH15 0x6F74696679526577617264416D6F75 PUSH15 0x743A206E6F74207265616479537461 PUSH12 0x696E67526577617264734661 PUSH4 0x746F7279 GASPRICE GASPRICE PUSH15 0x6F74696679526577617264416D6F75 PUSH15 0x743A206E6F74206465706C6F796564 LOG2 PUSH6 0x627A7A723158 KECCAK256 PUSH18 0xF6EF73C0A8F6D7153E607E0EDEB798237A8C 0xD0 DUP7 DELEGATECALL SHR CHAINID 0x1E 0xC1 0x25 0xC PUSH16 0x25C86364736F6C634300051000325374 PUSH2 0x6B69 PUSH15 0x6752657761726473466163746F7279 GASPRICE GASPRICE PUSH4 0x6F6E7374 PUSH19 0x7563746F723A2067656E6573697320746F6F20 PUSH20 0x6F6F6E0000000000000000000000000000000000 "
				},
				"gasEstimates": {
					"creation": {
						"codeDepositCost": "2633400",
						"executionCost": "infinite",
						"totalCost": "infinite"
					},
					"external": {
						"deploy(address,uint256,uint256)": "infinite",
						"isOwner()": "1078",
						"notifyRewardAmount(address)": "infinite",
						"notifyRewardAmounts()": "infinite",
						"owner()": "1150",
						"renounceOwnership()": "24342",
						"rewardsToken()": "1141",
						"stakingRewardsGenesis()": "1027",
						"stakingRewardsInfoByStakingToken(address)": "2086",
						"stakingTokens(uint256)": "2018",
						"transferOwnership(address)": "infinite"
					}
				},
				"methodIdentifiers": {
					"deploy(address,uint256,uint256)": "cfda5478",
					"isOwner()": "8f32d59b",
					"notifyRewardAmount(address)": "81e16298",
					"notifyRewardAmounts()": "ae741d8d",
					"owner()": "8da5cb5b",
					"renounceOwnership()": "715018a6",
					"rewardsToken()": "d1af0c7d",
					"stakingRewardsGenesis()": "a0928c11",
					"stakingRewardsInfoByStakingToken(address)": "6cf8caf8",
					"stakingTokens(uint256)": "344e5e34",
					"transferOwnership(address)": "f2fde38b"
				}
			},
			"storageLayout": {
				"storage": [
					{
						"astId": 325,
						"contract": "contracts/StakingRewardsFactory_flattened.sol:StakingRewardsFactory",
						"label": "_owner",
						"offset": 0,
						"slot": "0",
						"type": "t_address"
					},
					{
						"astId": 1372,
						"contract": "contracts/StakingRewardsFactory_flattened.sol:StakingRewardsFactory",
						"label": "rewardsToken",
						"offset": 0,
						"slot": "1",
						"type": "t_address"
					},
					{
						"astId": 1374,
						"contract": "contracts/StakingRewardsFactory_flattened.sol:StakingRewardsFactory",
						"label": "stakingRewardsGenesis",
						"offset": 0,
						"slot": "2",
						"type": "t_uint256"
					},
					{
						"astId": 1377,
						"contract": "contracts/StakingRewardsFactory_flattened.sol:StakingRewardsFactory",
						"label": "stakingTokens",
						"offset": 0,
						"slot": "3",
						"type": "t_array(t_address)dyn_storage"
					},
					{
						"astId": 1386,
						"contract": "contracts/StakingRewardsFactory_flattened.sol:StakingRewardsFactory",
						"label": "stakingRewardsInfoByStakingToken",
						"offset": 0,
						"slot": "4",
						"type": "t_mapping(t_address,t_struct(StakingRewardsInfo)1382_storage)"
					}
				],
				"types": {
					"t_address": {
						"encoding": "inplace",
						"label": "address",
						"numberOfBytes": "20"
					},
					"t_array(t_address)dyn_storage": {
						"base": "t_address",
						"encoding": "dynamic_array",
						"label": "address[]",
						"numberOfBytes": "32"
					},
					"t_mapping(t_address,t_struct(StakingRewardsInfo)1382_storage)": {
						"encoding": "mapping",
						"key": "t_address",
						"label": "mapping(address => struct StakingRewardsFactory.StakingRewardsInfo)",
						"numberOfBytes": "32",
						"value": "t_struct(StakingRewardsInfo)1382_storage"
					},
					"t_struct(StakingRewardsInfo)1382_storage": {
						"encoding": "inplace",
						"label": "struct StakingRewardsFactory.StakingRewardsInfo",
						"members": [
							{
								"astId": 1379,
								"contract": "contracts/StakingRewardsFactory_flattened.sol:StakingRewardsFactory",
								"label": "stakingRewards",
								"offset": 0,
								"slot": "0",
								"type": "t_address"
							},
							{
								"astId": 1381,
								"contract": "contracts/StakingRewardsFactory_flattened.sol:StakingRewardsFactory",
								"label": "rewardAmount",
								"offset": 0,
								"slot": "1",
								"type": "t_uint256"
							}
						],
						"numberOfBytes": "64"
					},
					"t_uint256": {
						"encoding": "inplace",
						"label": "uint256",
						"numberOfBytes": "32"
					}
				}
			},
			"userdoc": {
				"methods": {
					"deploy(address,uint256,uint256)": {
						"notice": "// permissioned functions"
					},
					"notifyRewardAmounts()": {
						"notice": "// permissionless functions"
					}
				}
			}
		}
	}
}